:100000000C94D0000C943D080C9416080C946809CC
:100010000C9468090C9468090C94F8000C9464081A
:100020000C94F8000C94F8000C94F8000C94F80070
:100030000C94F8000C94F8000C94F8000C94F80060
:100040000C94941D0C94F8000C941A090C94F40868
:100050000C94F8000C94F8000C94F8000C94F80040
:100060000C94360C0C94F8005F0E7C0E360E7E114C
:100070007E117E117E117E117E119D0EDF0EFE0E11
:100080001D0F3C0F7E117E117E117E117E115B0FC4
:10009000790F970FBB0F7E117E117E117E117E119D
:1000A0007E11591088107E117E117E117E117E11F5
:1000B0007E117E117E11A610E9102E117E117E1187
:1000C0007E117E117E117E117E1155115B11506FD4
:1000D0007765720053657276650043726564697472
:1000E00000416D6F756E74005472616E73004C69DF
:1000F0006D697400467265650054696D65005661EE
:1001000063616E7400436F696E005465726D696E51
:10011000616C005068696C697070696E657300414C
:100120002E522E542E53001F0113010A010501FE09
:1001300000F900F400EE00E800E100DA00D400CE9F
:100140000000000000230026002900000000002518
:100150000028002B00040404040404040402020226
:1001600002020203030303030301020408102040F8
:100170008001020408102001020408102000000081
:1001800000240027002A00000000080002010000EF
:100190000304070000000000000000024F21621E5F
:1001A00011241FBECFEFD8E0DEBFCDBF24E0A2EA0E
:1001B000B1E001C01D92AA3CB207E1F711E0A0E056
:1001C000B1E0E2E0F8E502C005900D92A23AB10775
:1001D000D9F710E0CFECD0E004C02197FE010E94D7
:1001E0001127CE3CD107C9F70E947F1E0C94F42B37
:1001F0000C94000080E090E00895CF92DF92EF929F
:10020000FF92CF93DF9300D000D0CDB7DEB7BE0111
:100210006F5F7F4F84E390E00E94F809C980DA8025
:10022000EB80FC80BE016F5F7F4F8CE190E00E940D
:10023000F80989819A81AB81BC81C816D906EA0682
:10024000FB0620F081E08093A20102C01092A2017F
:100250000F900F900F900F90DF91CF91FF90EF9044
:10026000DF90CF90089582E390E00C94AE174F9208
:100270005F926F927F928F929F92AF92BF92CF9236
:10028000DF92EF92FF92CF93DF93CDB7DEB7629705
:100290000FB6F894DEBF0FBECDBF0E94CA0B63300D
:1002A00071058105910508F042C060E080E00E9480
:1002B000831961E573E0CE0107960E94F807E7E233
:1002C000F1E06591749187EE91E00E94A12367EEC1
:1002D00071E0CE0101960E940108AE01495F5F4FB7
:1002E000BE016F5F7F4FCE010D960E944619BE0181
:1002F000635F7F4F87E593E00E94E608CE010D968D
:100300000E94A917CE0101960E94A917CE01079657
:100310000E94A91761E080E00E94831961E573E003
:10032000CE0107960E94F807E9E2F1E0D3C00E94EF
:10033000CA0B633071058105910508F4F5C00E9470
:10034000CA0B663071058105910508F0EDC060E0CB
:1003500080E00E94831961E573E0CE0107960E9458
:10036000F807E7E3F1E06591749187EE91E00E9470
:10037000A12367EE71E0CE0101960E940108AE0153
:10038000495F5F4FBE016F5F7F4FCE010D960E94A8
:100390004619BE01635F7F4F87E593E00E94E60840
:1003A000CE010D960E94A917CE0101960E94A917B1
:1003B000CE0107960E94A91760E088E00E94831989
:1003C000BE016F5F7F4F80E390E00E94F809698172
:1003D0007A818B819C814AE00E94C41961E080E0AF
:1003E0000E94831961E573E0CE0107960E94F80729
:1003F000E9E3F1E06591749187EE91E00E94A12319
:1004000067EE71E0CE0101960E940108AE01495FDE
:100410005F4FBE016F5F7F4FCE010D960E94461960
:10042000BE01635F7F4F87E593E00E94E608CE013F
:100430000D960E94A917CE0101960E94A917CE0120
:1004400007960E94A91761E088E00E948319BE0107
:100450006F5F7F4F84E390E02FC180E00E9483199B
:1004600061E573E0CE0107960E94F8070E944C09EF
:10047000BC01CE0101960E940108AE01495F5F4FA9
:10048000BE016F5F7F4FCE010D960E944619BE01DF
:10049000635F7F4F87E593E00E94E608CE010D96EB
:1004A0000E94A917CE0101960E94A917CE010796B6
:1004B0000E94A91761E088E00E9483198091A2013F
:1004C00061E573E08111B8C3CE0107960E94F80779
:1004D000EFE2F1E06591749187EE91E00E94A12333
:1004E00067EE71E0CE0101960E940108AE01495FFE
:1004F0005F4FBE016F5F7F4FCE010D960E94461980
:10050000BE01635F7F4F87E593E00E94E608CE015E
:100510000D960E94A917CE0101960E94A917CE013F
:1005200007960E94A91796C30E94CA0B66307105F0
:100530008105910538F00E94CA0B6930710581056B
:10054000910588F00E94CA0B6930710581059105FB
:1005500008F402C20E94CA0B6C3071058105910536
:1005600008F4DAC0F9C160E080E00E94831961E517
:1005700073E0CE0107960E94F807EDE3F1E0659184
:10058000749187EE91E00E94A12367EE71E0CE01A5
:1005900001960E940108AE01495F5F4FBE016F5F87
:1005A0007F4FCE010D960E944619BE01635F7F4FBB
:1005B00087E593E00E94E608CE010D960E94A917F8
:1005C000CE0101960E94A917CE0107960E94A91795
:1005D00060E088E00E94831961E573E0CE01079630
:1005E0000E94F807BE016F5F7F4F84E490E00E9495
:1005F000F80949815A816B817C81CE0101960E9464
:10060000DE1DAE01495F5F4FBE016F5F7F4FCE01C0
:100610000D960E944619BE01635F7F4F87E593E008
:100620000E94E608CE010D960E94A917CE01019600
:100630000E94A917CE0107960E94A91761E080E0E9
:100640000E94831961E573E0CE0107960E94F807C6
:10065000EBE3F1E06591749187EE91E00E94A123B4
:1006600067EE71E0CE0101960E940108AE01495F7C
:100670005F4FBE016F5F7F4FCE010D960E944619FE
:10068000BE01635F7F4F87E593E00E94E608CE01DD
:100690000D960E94A917CE0101960E94A917CE01BE
:1006A00007960E94A91761E088E00E948319BE01A5
:1006B0006F5F7F4F8CE390E00E94F80989819A81F7
:1006C0002B813C81E4E6F3E044E1DF011D924A9591
:1006D000E9F73F932F939F938F9381E891E09F9346
:1006E0008F93FF93EF930E94412964E673E0CE015C
:1006F00001960E940108BE016F5F7F4F87E593E07E
:100700000E94E608CE0101960E94A9170FB6F89440
:10071000DEBF0FBECDBF9EC260E080E00E948319A5
:1007200061E573E0CE0107960E94F807EFE3F1E080
:100730006591749187EE91E00E94A12367EE71E0CC
:10074000CE0101960E940108AE01495F5F4FBE01D4
:100750006F5F7F4FCE010D960E944619BE01635F09
:100760007F4F87E593E00E94E608CE010D960E9438
:10077000A917CE0101960E94A917CE0107960E94E3
:10078000A91760E088E00E948319BE016F5F7F4F68
:1007900080E290E00E94F80989809A80AB80BC805A
:1007A000BE016F5F7F4F80E490E00E94F80969818D
:1007B0007A818B819C810E940E2420E030E04AE700
:1007C00054E40E94012620E030E04AE754E40E940D
:1007D00001266B017C01C501B4010E940E2420E0BA
:1007E00030E048EC52E40E9401269B01AC01C701B5
:1007F000B6010E946F246B017C014B015C019B01DF
:10080000AC010E94A726882319F085E791E01AC061
:1008100026013701E89477F82FEF3FEF4FE75FE7C6
:10082000C301B2010E94A72681110FC02FEF3FEF35
:100830004FE75FE7C301B2010E94092418162CF4A8
:1008400089E791E00E94B2197AC02FEF3FEF4FE79E
:100850005FE4C701B6010E94A22618161CF48DE7BA
:1008600091E0F0CF2FEF3FEF4FE75FECC701B6010C
:100870000E94092487FDF3CF20E030E0A901C701E1
:10088000B6010E94092487FF0CC041E06DE287E5B4
:1008900093E00E94101646015701B7FAB094B7F8DA
:1008A000B0942AE037ED43EA5BE3C501B4010E944E
:1008B00095254B015C010E9473266B017C010E940F
:1008C0000E249B01AC01C501B4010E9494254B018B
:1008D0005C014AE0C701B6010E94C41941E06EE222
:1008E00087E593E00E94101620E030E040E251E4FA
:1008F000C501B4010E946F244B015C010E94732664
:100900006B01E12CF12C4AE0C701B6010E94C41929
:10091000C701B6010E940E249B01AC01C501B401C0
:100920000E94942520E030E040E251E40E946F24D0
:100930000E94732680E090E04AE00E94C41961E0C2
:1009400080E00E94831961E573E0CE0107960E9462
:10095000F80768E871E0C6CD60E080E00E94831986
:1009600061E573E0CE0107960E94F807EDE2F1E041
:100970006591749187EE91E00E94A12367EE71E08A
:10098000CE0101960E940108AE01495F5F4FBE0192
:100990006F5F7F4FCE010D960E944619BE01635FC7
:1009A0007F4F87E593E00E94E608CE010D960E94F6
:1009B000A917CE0101960E94A917CE0107960E94A1
:1009C000A91760E088E00E94831961E573E0CE0119
:1009D00007960E94F80780912D0490912E04AC0197
:1009E000E4E6F3E024E1DF011D922A95E9F71F9286
:1009F0001F925F938F9381E891E09F938F93FF9372
:100A0000EF930E94412964E673E0CE0101960E94B3
:100A10000108AE01495F5F4FBE016F5F7F4FCE019E
:100A20000D960E944619BE01635F7F4F87E593E0F4
:100A30000E94E608CE010D960E94A917CE010196EC
:100A40000E94A917CE0107960E94A9170FB6F89425
:100A5000DEBF0FBECDBF8091400490914104A091B4
:100A60004204B0914304892B8A2B8B2B09F441C09B
:100A700061E080E00E94831961E573E0CE01079692
:100A80000E94F8070E944C09BC01CE0101960E9409
:100A90000108AE01495F5F4FBE016F5F7F4FCE011E
:100AA0000D960E944619BE01635F7F4F87E593E074
:100AB0000E94E608CE010D960E94A917CE0101966C
:100AC0000E94A917CE0107960E94A91761E088E04D
:100AD0000E94831961E573E0CE0107960E94F80732
:100AE000409140045091410460914204709143044C
:100AF00066C0BE016F5F7F4F8CE090E00E94F809F6
:100B000089819A81AB81BC81892B8A2B8B2B09F03F
:100B10005BC080912D0490912E0461E0892B09F433
:100B20009CCC80E00E94831961E573E0CE010796BA
:100B30000E94F8070E944C09BC01CE0101960E9458
:100B40000108AE01495F5F4FBE016F5F7F4FCE016D
:100B50000D960E944619BE01635F7F4F87E593E0C3
:100B60000E94E608CE010D960E94A917CE010196BB
:100B70000E94A917CE0107960E94A91761E088E09C
:100B80000E94831961E573E0CE0107960E94F80781
:100B9000C0902D04D0902E04E12CF12CBE016F5F8B
:100BA0007F4F84E190E00E94F80969817A818B810E
:100BB0009C81A70196010E94AC26AB01BC01CE012D
:100BC00001960E94DE1D92CC61E080E00E948319B4
:100BD00061E573E0CE0107960E94F8070E944C0978
:100BE000BC01CE0101960E940108AE01495F5F4F32
:100BF000BE016F5F7F4FCE010D960E944619BE0168
:100C0000635F7F4F87E593E00E94E608CE010D9673
:100C10000E94A917CE0101960E94A917CE0107963E
:100C20000E94A91761E088E00E9483198091A201C7
:100C300061E573E0882339F0CE0107960E94F8073A
:100C4000E5E3F1E047CCCE0107960E94F807E3E325
:100C5000F1E040CC62960FB6F894DEBF0FBECDBF78
:100C6000DF91CF91FF90EF90DF90CF90BF90AF904A
:100C70009F908F907F906F905F904F9008950C940D
:100C800037010895CF92DF92EF92FF920F931F9357
:100C9000CF93DF936C017A018B01C0E0D0E0CE15D9
:100CA000DF0581F0D8016D918D01D601ED91FC91A8
:100CB0000190F081E02DC6010995892B11F0219654
:100CC000EECF7E01C701DF91CF911F910F91FF9071
:100CD000EF90DF90CF900895FC01538D448D252F28
:100CE00030E0842F90E0821B930B541710F0CF96C6
:100CF000089501970895FC01918D828D981761F0F8
:100D0000828DDF01A80FB11D5D968C91928D9F5F42
:100D10009F73928F90E008958FEF9FEF0895FC01ED
:100D2000918D828D981731F0828DE80FF11D858DA0
:100D300090E008958FEF9FEF0895FC01918D228D33
:100D4000892F90E0805C9F4F821B91098F739927B8
:100D5000089588EA92E00E949D0621E0892B09F41B
:100D600020E0822F0895FC01848DDF01A80FB11DC2
:100D7000A35ABF4F2C91848D90E001968F739927D1
:100D8000848FA689B7892C93A089B1898C918370AF
:100D900080648C93938D848D981306C00288F389A8
:100DA000E02D80818F7D80830895EF92FF920F93D5
:100DB0001F93CF93DF93EC0181E0888F9B8D8C8D07
:100DC000981305C0E889F989808185FD26C0F62E33
:100DD0000B8D10E00F5F1F4F0F731127E02E8C8DCE
:100DE000E8120CC00FB607FCFACFE889F9898081B8
:100DF00085FFF5CFCE010E94B306F1CF8B8DFE01AA
:100E0000E80FF11DE35AFF4FF0829FB7F8940B8F64
:100E1000EA89FB89808180620AC09FB7F894EE89D5
:100E2000FF896083E889F989808183708064808389
:100E30009FBF81E090E0DF91CF911F910F91FF90D4
:100E4000EF900895CF93DF93EC01888D8823C9F04C
:100E5000EA89FB89808185FD05C0A889B9898C91C3
:100E600086FD0FC00FB607FCF5CF808185FFF2CF5E
:100E7000A889B9898C9185FFEDCFCE010E94B30678
:100E8000E7CFDF91CF9108950E94A90681110C94BC
:100E90007516089520919A0230919B022817390700
:100EA00071F49091980280919902981741F0E09125
:100EB0009802F0E0EA5CFD4F808190E008958FEFAA
:100EC0009FEF089508951F93CF93DF93DC015C9605
:100ED0008D919C915D97009739F421E030E0139655
:100EE0003C932E9312973BC05196ED91FC915297F3
:100EF00050962C915097322F30951FB75E964C919B
:100F00005E97742F727041FD6095F894408177234D
:100F100011F0422B01C043234083EC012197F1F7EC
:100F200048E0508160FF02C0522B01C05323508320
:100F3000EC012197F1F76695415099F7808177236D
:100F400019F08323808302C0282B20831FBF5C9667
:100F50008D919C915D970197F1F781E090E0DF9191
:100F6000CF911F91089520919A0230919B022817EA
:100F7000390771F4809199022091980290E0805C89
:100F80009F4F821B910960E470E00E94BC26089587
:100F900080E090E0089520919A0230919B022817FA
:100FA0003907B9F49091980280919902981789F0C5
:100FB000E0919802F0E0EA5CFD4F80812091980278
:100FC00030E02F5F3F4F2F7333272093980290E03C
:100FD00008958FEF9FEF089585ED8093BC00809179
:100FE000BC0084FDFCCF1092A202089508950895DC
:100FF000FC011182108213821282158214820C94D9
:101000009217FC01118210821382128215821482BF
:101010006115710551F0FB0101900020E9F731974E
:10102000AF01461B570B0C945A1708951F920F924D
:101030000FB60F9211242F933F934F935F936F93AB
:101040007F938F939F93AF93BF93EF93FF93E09121
:101050001601F09117010995FF91EF91BF91AF91A2
:101060009F918F917F916F915F914F913F912F91C0
:101070000F900FBE0F901F9018951F920F920FB6F2
:101080000F9211242F933F934F935F936F937F930E
:101090008F939F93AF93BF93EF93FF93E0911401CE
:1010A000F09115010995FF91EF91BF91AF919F913B
:1010B0008F917F916F915F914F913F912F910F9001
:1010C0000FBE0F901F9018951F920F920FB60F92A0
:1010D00011242F933F934F935F936F937F938F933D
:1010E0009F93AF93BF93EF93FF938091B30490913D
:1010F000B404A091B504B091B604892B8A2B8B2B34
:1011000059F19091B004E091B104F091B204808162
:10111000892780838091B3049091B404A091B50491
:10112000B091B604181619061A061B060CF03DC03D
:101130008091B3049091B404A091B504B091B60429
:101140000197A109B1098093B3049093B404A093CB
:10115000B504B093B60429C080911801EBE9F1E021
:10116000E4919FEF90931801E130B9F098F0E230EC
:10117000C9F4909170009D7F9093700091E09093DE
:10118000B0009091B100987F94609093B10010925C
:10119000B30008C010926E0005C090916F009D7F53
:1011A00090936F0060E00E94501AFF91EF91BF9101
:1011B000AF919F918F917F916F915F914F913F91EF
:1011C0002F910F900FBE0F901F901895DB01149672
:1011D0004D915C9115976D917C91DC01ED91FC91A5
:1011E0000280F381E02D09941F920F920FB60F92A7
:1011F00011242F933F934F935F936F937F938F931C
:101200009F93AF93BF93EF93FF9388EA92E00E947E
:10121000B306FF91EF91BF91AF919F918F917F9115
:101220006F915F914F913F912F910F900FBE0F9053
:101230001F9018951F920F920FB60F9211242F93A3
:101240008F939F93EF93FF93E091B802F091B902CF
:101250008081E091BE02F091BF0282FD12C09081B8
:101260008091C1028F5F8F732091C202821751F06B
:10127000E091C102F0E0E855FD4F958F8093C102E7
:1012800001C08081FF91EF919F918F912F910F90DD
:101290000FBE0F901F901895E1E3F1E065917491F6
:1012A00087EE91E00E94A12387EE91E00895CF930D
:1012B000DF93EC018C810E94271A2E8130E041E0FF
:1012C0002817390709F040E0842FDF91CF91089566
:1012D0001F920F920FB60F9211242F933F934F93AB
:1012E0005F936F937F938F939F93AF93BF93EF938E
:1012F000FF93E0919A02F0919B02309709F451C05C
:10130000968DA685B785858591FF04C09C9189231C
:1013100029F447C09C91892309F043C0A389B4896B
:101320009C918589809589238C93868997890197DB
:10133000F1F7608D718DA685B785558538E020E081
:10134000CB010197F1F7822F90E095958795282F93
:101350004C91452309F02068315091F7868D81FD2D
:1013600020958091990290E001968F739927309192
:101370009802381749F0A0919902B0E0AA5CBD4FDD
:101380002C938093990203C0868D8160868F828D15
:10139000938D0197F1F7A389B4899C918589892B55
:1013A0008C93FF91EF91BF91AF919F918F917F911E
:1013B0006F915F914F913F912F910F900FBE0F90C2
:1013C0001F901895E0919A02F0919B02E817F90797
:1013D00069F4A389B4899C918589809589238C932C
:1013E00010929B0210929A0281E0089580E0089585
:1013F000CF92DF92EF92FF920F931F93CF93DF93E1
:10140000EB017B0124E0E20EF11C8B016C01C61A9A
:10141000D70AC601800F911F0E942D25F8018193E4
:101420008F01EE15FF05A9F7CE01DF91CF911F9136
:101430000F91FF90EF90DF90CF900895AF92BF9201
:10144000DF92EF92FF920F931F93CF93DF93EC0104
:101450007B018B015C0184E0A80EB11CF801D190E6
:101460008F01CE010E942D25D81621F06D2DCE01C1
:101470000E9435252196CA15DB0581F7C701DF914A
:10148000CF911F910F91FF90EF90DF90BF90AF90A1
:101490000895CF92DF92EF92FF92CF93DF9300D027
:1014A00000D0CDB7DEB76B01BE016F5F7F4F84E424
:1014B00090E00E94F809E12CF12C89819A81AB819E
:1014C000BC818C0D9D1DAE1DBF1D89839A83AB838E
:1014D000BC83BE016F5F7F4F84E490E00E941E0AD0
:1014E000BE016F5F7F4F8CE590E00E94F809898113
:1014F0009A81AB81BC81C80ED91EEA1EFB1EC9822F
:10150000DA82EB82FC82BE016F5F7F4F8CE590E058
:101510000E941E0A0F900F900F900F90DF91CF91B5
:10152000FF90EF90DF90CF900895AF92BF92CF924F
:10153000DF92EF92FF920F931F93CF93DF93CDB77C
:10154000DEB728970FB6F894DEBF0FBECDBF5C01A3
:101550008B01BE016B5F7F4F8CE390E00E94F80926
:101560006801E12CF12C8D819E81AF81B8858C0DB5
:101570009D1DAE1DBF1D8D839E83AF83B887BE01A9
:101580006B5F7F4F8CE390E00E941E0ABE016B5F91
:101590007F4F84E590E00E94F8098D819E81AF81A4
:1015A000B885C80ED91EEA1EFB1ECD82DE82EF82F0
:1015B000F886BE016B5F7F4F84E590E00E941E0AB3
:1015C000BE016F5F7F4F88E390E00E94F809898138
:1015D0009A81AB81BC810196A11DB11D89839A833B
:1015E000AB83BC83BE016F5F7F4F88E390E00E94B6
:1015F0001E0ABE016F5F7F4F80E590E00E94F809F0
:1016000089819A81AB81BC810196A11DB11D89831D
:101610009A83AB83BC83BE016F5F7F4F80E590E010
:101620000E941E0ABE016F5F7F4F84E190E00E941E
:10163000F80989819A81AB81BC81089FB001099F1B
:10164000700D189F700D1124C5010E94490A28963B
:101650000FB6F894DEBF0FBECDBFDF91CF911F91C3
:101660000F91FF90EF90DF90CF90BF90AF900895D3
:10167000EF92FF920F931F93CF93DF9300D000D090
:10168000CDB7DEB77C0149835A836B837C838C01A1
:10169000045F1F4FB8018CE090E00E941E0AB70162
:1016A00080E190E00E941E0AB7016C5F7F4F84E1E9
:1016B00090E00E941E0AB80188E190E00E941E0A94
:1016C000B701685F7F4F8CE190E00E941E0AB7016E
:1016D000605F7F4F80E290E00E941E0AB80180E3C5
:1016E00090E00E941E0AB80184E390E00E941E0A66
:1016F000B80188E390E00E941E0AB8018CE390E0F4
:101700000E941E0AB80184E490E00E941E0AB801FB
:1017100080E490E00E941E0AB80188E490E00E94F4
:101720001E0AB8018CE490E00E941E0AB80180E510
:1017300090E00E941E0AB80184E590E00E941E0A13
:10174000B8018CE590E00E941E0AB80188E590E09F
:101750000E941E0ABE016F5F7F4F84E290E00E94EC
:101760001E0ABE016F5F7F4F88E290E00E941E0A52
:10177000BE016F5F7F4F8CE290E00E941E0A0F90C7
:101780000F900F900F90DF91CF911F910F91FF90CD
:10179000EF9008952FB7F8946091AC047091AD0468
:1017A0008091AE049091AF042FBF28EE33E040E06B
:1017B00050E00E94D026CA01B9010895FC01808141
:1017C000811102C00C94351D813079F48FB7F894E3
:1017D0004091AC045091AD046091AE047091AF049F
:1017E0008FBF342F252FCB0104C0823011F40C940D
:1017F000CA0B632F722F08950F931F93CF93DF931C
:10180000EC010E94DE0B0C811D812E813F81DC01E9
:10181000CB01801B910BA20BB30B088519852A8580
:101820003B8580179107A207B307D8F0CE010E942D
:10183000DE0B6C837D838E839F838981882389F06F
:101840009A81992371F09F3F29F08B81891748F481
:101850008F5F8B83EC85FD85DF91CF911F910F9179
:101860000994DF91CF911F910F9108951F920F92CC
:101870000FB60F9211242F933F934F935F936F9363
:101880007F938F939F93AF93BF93EF93FF93809139
:10189000B900887F803609F49CC068F5883209F465
:1018A0005BC090F4803109F454C038F4882309F403
:1018B000F6C0883009F44DC0F6C0883109F44CC038
:1018C000803209F45DC0EFC0803409F468C048F488
:1018D000803309F455C0883309F0E5C08093C30113
:1018E000D8C0803509F44FC0883509F45DC088340C
:1018F00009F0D9C0D6C0883909F4C7C0A8F4883720
:1019000009F467C038F4883609F463C0803709F4F5
:1019100060C0C9C0883809F4B8C0803909F45FC014
:10192000803809F0C0C05BC0803B09F486C038F441
:10193000803A09F466C0883A09F47FC0B4C0803C9C
:1019400009F4A7C0883C09F4A4C0883B09F48AC004
:10195000AAC08091E60110C09091E5018091E40158
:10196000981770F5E091E50181E08E0F8093E50115
:10197000F0E0EC53FE4F80818093BB0085EC86C085
:101980008093C3018EC0E091E50181E08E0F8093CA
:10199000E5018091BB00F0E0EC53FE4F8083909115
:1019A000E5018091E4016EC0E091E50181E08E0FD8
:1019B0008093E5018091BB00F0E0EC53FE4F808303
:1019C0008091A10281116DC081E08093A00284EA20
:1019D00061C083E08093A20210923502CFCF809144
:1019E0003502803208F051C0E091350281E08E0F5F
:1019F000809335028091BB00F0E0EB5EFD4F808369
:101A0000BDCF85EC8093BC001092A202809135027C
:101A1000803230F4E0913502F0E0EB5EFD4F108251
:101A20006091350270E0E0919C02F0919D0285E1A9
:101A300092E009951092350236C084E08093A202AC
:101A40001092140210921302E0919E02F0919F02F4
:101A5000099580911302811105C081E080931302E2
:101A60001092F301E091140281E08E0F8093140232
:101A7000F0E0ED50FE4F80818093BB009091140206
:101A800080911302981708F479CF85E88093BC0001
:101A90000AC085EC8093BC001092A20204C0109290
:101AA000C3010E94EC07FF91EF91BF91AF919F910D
:101AB0008F917F916F915F914F913F912F910F90F7
:101AC0000FBE0F901F90189540911302262F30E003
:101AD000240F311D21323105DCF42091A202243083
:101AE000C9F4FC0180E090E0861758F430911302AD
:101AF0002191DC01AD50BE4FA30FB11D2C93019677
:101B0000F3CF80911302680F6093130280E0089571
:101B100081E0089582E008954F925F926F927F92E4
:101B20008F929F92AF92BF92CF92DF92EF92FF92ED
:101B30000F931F93CF93DF93CDB7DEB7C454D10972
:101B40000FB6F894DEBF0FBECDBF80E090E00E94DC
:101B500054183C01772443018FEF881A980AC40176
:101B60000E9454187C01FF245701EFEFAE1ABE0A01
:101B7000C5010E9454188C0111276801FFEFCF1A8C
:101B8000DF0AC6010E9454182C01A30160E070E036
:101B9000CE0101960E947318CE0101960E94B718DB
:101BA0006093EF03CE0101960E94A917A701B4012B
:101BB000CE0101960E947318CE0101960E94B718BB
:101BC0006093F003CE0101960E94A917A801B50108
:101BD000CE0101960E947318CE0101960E94B7189B
:101BE0006093F1037093F2038093F3039093F403F3
:101BF000CE0101960E94A9175524A201B601CE017B
:101C000001960E947318CE0101960E94B718609346
:101C1000F5037093F6038093F7039093F803CE01D6
:101C200001960E94A9174091ED035091EE03B20175
:101C30006F5F7F4FCE0101960E947318CE0101960F
:101C40000E94B7186093F903CE0101960E94A9176C
:101C5000E091EF038E2F90E0FC013197E333F10523
:101C600008F04CC3EC5CFF4F0C9411278091F003FB
:101C7000813071F40E94CA0B6093F1037093F203F8
:101C80008093F3039093F40331C0843009F476C059
:101C90008091030490E0A0E0B0E08093F103909382
:101CA000F203A093F303B093F4038093F5039093AE
:101CB000F603A093F703B093F80384E337C380914E
:101CC000F003813029F7BE016F5F7F4F88E090E01D
:101CD0000E94F80989819A81AB81BC818093F103CC
:101CE0009093F203A093F303B093F4038091030461
:101CF00090E0A0E0B0E0F8C28091F003813031F4D0
:101D0000BE016F5F7F4F8CE090E0E2CF823009F040
:101D1000BFCF8091F1039091F203A091F303B091B2
:101D2000F40325968CAF9DAFAEAFBFAF2597BE0134
:101D30006F5B7F4F8CE090E08EC28091F00381302A
:101D400031F4BE016F5F7F4F80E190E0C1CF823000
:101D500009F09BCF8091F1039091F203A091F303DE
:101D6000B091F40321968CAF9DAFAEAFBFAF21977A
:101D7000BE01635C7F4F80E190E06DC2C090F103D3
:101D8000D090F203E090F303F090F403BE016F5F94
:101D90007F4F80E190E00E94F80949815A816B8170
:101DA0007C8181E090E0A0E0B0E0C416D506E606B4
:101DB000F70609F093CF80E090E0DC018FCF8091AF
:101DC000F003813031F4BE016F5F7F4F84E190E01A
:101DD0007FCF823009F05CCF8091F1039091F203C4
:101DE000A091F303B091F40389AF9AAFABAFBCAF4E
:101DF000BE01675C7F4F84E190E02DC28091F003CB
:101E0000813031F4BE016F5F7F4F88E190E060CF99
:101E1000823009F03DCF8091F1039091F203A091BF
:101E2000F303B091F4038DAB9EABAFABB8AFBE0183
:101E30006B5C7F4F88E190E00EC28091F0038130AF
:101E400031F4BE016F5F7F4F8CE190E041CF823073
:101E500009F01ECF8091F1039091F203A091F3035A
:101E6000B091F40389AB9AABABABBCABBE016F5C7A
:101E70007F4F8CE190E0EFC18091F003813031F42D
:101E8000BE016F5F7F4F80E290E022CF823009F089
:101E9000FFCE8091F1039091F203A091F303B091F2
:101EA000F4038DA79EA7AFA7B8ABBE01635D7F4FBC
:101EB00080E290E0D0C18091F003813009F0E8CE5B
:101EC000BE016F5F7F4F80E390E00E94F809898137
:101ED0009A81AB81BC818093F1039093F203A0932C
:101EE000F303B093F403BE016F5F7F4F88E490E08B
:101EF0003BC08091F003813009F0CACEBE016F5F14
:101F00007F4F84E390E00E94F80989819A81AB8138
:101F1000BC818093F1039093F203A093F303B093F9
:101F2000F403BE016F5F7F4F8CE490E01DC0809191
:101F3000F003813009F0ACCEBE016F5F7F4F88E3C4
:101F400090E00E94F80989819A81AB81BC818093DD
:101F5000F1039093F203A093F303B093F403BE0153
:101F60006F5F7F4F80E590E00E94F80989819A8138
:101F7000AB81BC81B9C18091F0038130C9F4BE014D
:101F80006F5F7F4F8CE390E00E94F80989819A810E
:101F9000AB81BC818093F1039093F203A093F30390
:101FA000B093F403BE016F5F7F4F84E590E0DCCF18
:101FB000833009F06DCE6091F5037091F603809146
:101FC000F7039091F803611571058105910509F4F6
:101FD00052C084E094E00E94950AC090F503D0902E
:101FE000F603E090F703F090F803BE016F5F7F4FB8
:101FF00084E190E00E94F80969817A818B819C815B
:10200000A70196010E94AC266B017C012091F1038F
:102010003091F2034FE0429FC001439F900D112485
:102020000091E7031091E803080F191FF801868556
:10203000882349F084819581A681B7818C0D9D1DEF
:10204000AE1DBF1D10C00E94CA0BF80160837183D2
:10205000828393830E94CA0BDC01CB018C0D9D1DF2
:10206000AE1DBF1DF80184839583A683B78381E0ED
:10207000F80186870CC12091F1033091F2034FE003
:10208000429FC001439F900D1124E091E703F0911E
:10209000E803E80FF91F1086118612861386108256
:1020A000118212821382148215821682178216867A
:1020B000EEC08091F003813009F0EACD8AE0809390
:1020C000F903BE016F5F7F4F84E490E00E94F8093E
:1020D00089819A81AB81BC818093F1039093F20353
:1020E000A093F303B093F403BE016F5F7F4F8CE5C1
:1020F00090E00E94F80989819A81AB81BC8180932C
:10210000F5039093F603A093F703B093F80310C17F
:102110008091F003813009F0BBCDBE016F5F7F4F2E
:1021200080E490E00E94F80989819A81AB81BC81AA
:102130008093F1039093F203A093F303B093F4031D
:10214000BE016F5F7F4F88E590E00ECF8091F00376
:10215000813031F4BE016F5F7F4F84E290E0B8CDF3
:10216000833009F095CD8091F1039091F203A09115
:10217000F303B091F40389A79AA7ABA7BCA760E1CA
:1021800074E080E390E00E941E0A60E174E084E362
:1021900090E00E941E0A60E174E088E390E00E94F3
:1021A0001E0A60E174E08CE390E00E941E0A60E188
:1021B00074E084E490E00E941E0A60E174E080E430
:1021C00090E00E941E0ABE01675D7F4F84E290E0AE
:1021D00042C08091F003813031F4BE016F5F7F4FC8
:1021E00088E290E075CD833009F052CD8091F10303
:1021F0009091F203A091F303B091F4038DA39EA3F9
:10220000AFA3B8A760E174E08CE090E00E941E0AE2
:1022100064E074E080E190E00E941E0A68E074E0EF
:1022200084E190E00E941E0A60E174E088E190E0A1
:102230000E941E0A6CE074E08CE190E00E941E0A8D
:1022400064E174E080E290E00E941E0ABE016B5DD2
:102250007F4F88E290E00E941E0A19C08091F0032F
:10226000813031F4BE016F5F7F4F8CE290E030CD62
:10227000833009F00DCD4091F1035091F20360914C
:10228000F3037091F40384E094E00E94380B809192
:10229000030490E0A0E0B0E08093F1039093F20398
:1022A000A093F303B093F4031FC08091F003833035
:1022B00009F0EECCFFCF8091F003813009F0E8CC3B
:1022C0002091F1033091F2034FE0429FC001439F00
:1022D000900D1124E091E703F091E803E80FF91F56
:1022E00080859185A285B3858093F5039093F6034D
:1022F000A093F703B093F8038AE018C08091030419
:102300008093F00390E0A0E0B0E08093F10390931D
:10231000F203A093F303B093F4038093F503909337
:10232000F603A093F703B093F80383E38093F903D4
:102330006091F903CE014F960E94FA174091F50380
:102340005091F6036091F7037091F803CE0149961E
:102350000E9427184091F1035091F2036091F3031A
:102360007091F403CE0143960E9427186091F00308
:10237000CE010D960E94FA176091EF03CE010196EF
:102380000E94FA17BE016F5F7F4FCE0107960E9431
:10239000F8076AEF73E0CE0107960E944717BE0167
:1023A000635F7F4F0E9447176AEF73E00E944717F1
:1023B000BE016D5E7F4F0E9447176AEF73E00E9477
:1023C0004717BE01675E7F4F0E9447176AEF73E0B1
:1023D0000E944717BE01615E7F4F0E9447178C0124
:1023E00041E050E067E871E00E94F4168823A9F10B
:1023F000B80189EE93E00E949217CE0107960E94E1
:10240000A917CE0101960E94A917CE010D960E9430
:10241000A917CE0143960E94A917CE0149960E94A2
:10242000A917CE014F960E94A917CC5BDF4F0FB6BC
:10243000F894DEBF0FBECDBFDF91CF911F910F91FA
:10244000FF90EF90DF90CF90BF90AF909F908F90D4
:102450007F906F905F904F900895C8010E9435174C
:10246000C7CFE091A6028091A502E81730F4F0E012
:10247000ED55FE4F808190E008958FEF9FEF089516
:102480009091A6028091A502981750F4E92FF0E0F0
:10249000ED55FE4F208130E09F5F9093A60202C071
:1024A0002FEF3FEFC90108958091A50290E02091A0
:1024B000A602821B910908950895CF92DF92EF92B0
:1024C000FF920F931F93CF93DF937C01CB018A017F
:1024D00020919702222389F0EB016B01C40ED51ED7
:1024E000CC15DD0569F06991D701ED91FC91019062
:1024F000F081E02DC7010995F3CF642F0E94640D90
:10250000C801DF91CF911F910F91FF90EF90DF9065
:10251000CF900895CF93DF931F92CDB7DEB7698335
:10252000209197022223D1F02091A302203240F083
:1025300021E030E0FC013383228380E090E015C08D
:102540008091A402E82FF0E0E958FD4F9981908333
:102550008F5F8093A4028093A30205C061E0CE0147
:1025600001960E94640D81E090E00F90DF91CF9181
:1025700008951F93CF93DF93C82F1092A702D4E141
:102580001FE0E091A702E43020F5DE9FF001112466
:10259000E858FC4F8481C81316C00E94BB1AE09112
:1025A000A7021E9FF0011124E85CFB4F10861186E4
:1025B000128613861082118212821382148215826F
:1025C0001682178216868091A7028F5F8093A702DA
:1025D000D8CFDF91CF911F9108952F923F924F92C4
:1025E0005F926F927F928F929F92AF92BF92CF92A3
:1025F000DF92EF92FF920F931F93CF93DF93CDB7AC
:10260000DEB728970FB6F894DEBF0FBECDBFC82E39
:10261000BE016F5F7F4F8CE090E00E94F8098981D6
:102620009A81AB81BC8120912D0430912E04820FC0
:10263000931F90932E0480932D04892B09F439C1A4
:102640001092A70284E1382E9FE0D92E26E0222E98
:102650008091A702843008F02CC190E0389EF001F0
:10266000399EF00D1124E858FC4F2481C2121BC181
:10267000D89EF001D99EF00D1124E85CFB4F8685B1
:10268000882309F4A7C00E94BB1A00912D04109161
:102690002E042801612C712CBE016F5F7F4F84E1F5
:1026A00090E00E94F80969817A818B819C81A30165
:1026B00092010E94AC264B015C01BE016F5F7F4F0F
:1026C0008CE090E00E94F80989819A81AB81BC81FD
:1026D000892B8A2B8B2B09F095C0BE016B5F7F4F36
:1026E00084E390E00E94F8098D819E81AF81B885D6
:1026F000840D951DA61DB71D8D839E83AF83B8875E
:10270000BE016B5F7F4F84E390E00E941E0ABE0112
:102710006B5F7F4F8CE490E00E94F8098D819E8171
:10272000AF81B885840D951DA61DB71D8D839E8331
:10273000AF83B887BE016B5F7F4F8CE490E00E944F
:102740001E0ABE016F5F7F4F80E390E00E94F80990
:1027500089819A81AB81BC810196A11DB11D8983BC
:102760009A83AB83BC83BE016F5F7F4F80E390E0B1
:102770000E941E0ABE016F5F7F4F88E490E00E94B6
:10278000F80989819A81AB81BC810196A11DB11D97
:1027900089839A83AB83BC83BE016F5F7F4F88E4DC
:1027A00090E00E941E0ABE016F5F7F4F84E190E0BF
:1027B0000E94F80989819A81AB81BC81089FB00190
:1027C000099F700D189F700D112480E091E00E9408
:1027D000490A18C080902D0490902E04A12CB12C91
:1027E000BE016F5F7F4F88E190E00E94F809898108
:1027F0009A81AB81BC8188169906AA06BB0608F4AB
:1028000052C041CFBE016F5F7F4F8CE090E00E94CD
:10281000F80989819A81AB81BC81892B8A2B8B2B0A
:1028200029F0B80180E091E00E94950A289CC0013F
:10283000299C900D11240E94AE17E090A702F12C64
:10284000DE9C8001DF9C100D1124085C1B4FF801F9
:102850008685882349F084819581A681B781880E79
:10286000991EAA1EBB1E0EC00E94CA0BF8016083EF
:102870007183828393830E94CA0B860E971EA81EC3
:10288000B91EF80184829582A682B782DE9CF0018F
:10289000DF9CF00D1124E85CFB4F81E086871092ED
:1028A0002E0410922D048091A7028F5F8093A702BF
:1028B000CFCE28960FB6F894DEBF0FBECDBFDF9106
:1028C000CF911F910F91FF90EF90DF90CF90BF902D
:1028D000AF909F908F907F906F905F904F903F90C0
:1028E0002F9008950E94BB1A1092320480913204F6
:1028F000863960F4809130040E94271A892B91F464
:10290000809132048F5F80933204F0CF20912F04A6
:1029100080912D0490912E04820F911D90932E048E
:1029200080932D0408954F925F926F927F92BF9291
:10293000CF92DF92EF92FF920F931F93CF93DF938B
:102940001092A70284E1D82E9FE0C92EBB24B39435
:102950008091A702843008F0D8C0E82EF12CDE9CCC
:10296000E001DF9CD00D1124C858DC4FCE010E943D
:1029700057099F81891709F468C0CE010E94570941
:10298000882309F462C02FB7F8948091AC04909129
:10299000AD04A091AE04B091AF042FBF8887998792
:1029A000AA87BB87CE010E945709DE9CF001DF9CFD
:1029B000F00D1124E858FC4F87830091A70210E026
:1029C000C09EF001C19EF00D1124E85CFB4F86858E
:1029D0006585811101C06B2584850E94501AC09EB7
:1029E000E001C19ED00D1124C85CDB4F8E85882389
:1029F00031F14C805D806E807F800E94CA0B461A48
:102A0000570A680A790A488659866A867B860E9430
:102A1000CA0B0C811D812E813F81601771078207CF
:102A2000930768F0188619861A861B861882198201
:102A30001A821B821C821D821E821F821E8680912A
:102A4000A7028F5F8093A70283CFCE010E94570910
:102A5000DE9C8001DF9C100D112408581C4FF801EA
:102A60009781891709F49ECFCE010E9457098111E1
:102A700099CF2FB7F8948091AC049091AD04A091B8
:102A8000AE04B091AF042FBFF80140855185628537
:102A90007385841B950BA60BB70B448555856685FE
:102AA0007785481759076A077B0790F4F801408932
:102AB00051896289738984179507A607B70740F47F
:102AC0000190F081E02D309709F46CCFD80119C046
:102AD000DE9C9001DF9C300D112428583C4FF901F9
:102AE0004089518962897389481759076A077B07AA
:102AF00008F058CF0280F381E02D309709F452CFCF
:102B0000D90114968C9109954DCFDF91CF911F91EA
:102B10000F91FF90EF90DF90CF90BF907F906F90DC
:102B20005F904F900895CF93FC01C48121E02093E2
:102B30009702C09376021092A4021092A30283859A
:102B4000682B85E493E00E948A129091A30291324F
:102B500008F045C08091A2028111FCCF82E08093F1
:102B6000A20281E08093A1028FEF8093C3011092B3
:102B7000E5019093E401A7E7B2E0E4ECF1E080E046
:102B8000981721F02D9121938F5FFACF1092E601D3
:102B90008091E601CC0FC82BC093E6018091A00282
:102BA000813061F41092A0028091E6018093BB0015
:102BB0008091BC0083FDF8CF85EC01C085EE809349
:102BC000BC008091A2028230E1F38091C3018F3F6B
:102BD00031F08091C301803211F08091C3011092D5
:102BE000A4021092A30210929702CF9108950F931E
:102BF0001F93CF938C01C62F0E9493156C2F646096
:102C0000C8010E9493156C2F6B7FC8010E94931519
:102C100083EC90E00197F1F7CF911F910F91089508
:102C20000F931F93CF93DF938C01C62FD42F607F18
:102C3000642B0E94F71580E1C89FB00111246D2B11
:102C4000C801DF91CF911F910F910C94F71541E0CE
:102C50000E94101681E090E00895CF93DF9300D09A
:102C600000D000D0CDB7DEB769E871E0CE010196A3
:102C70000E94010869EE73E0CE0101960E94471799
:102C8000BC0188EA92E00E94E608CE0101960E940B
:102C9000A9170E948C0D6CE871E0CE0101960E948C
:102CA000010869EE73E0CE0101960E944717BC014E
:102CB00088EA92E00E94E608CE0101960E94A917D8
:102CC00069EE73E088EC93E00E94E60868E871E042
:102CD00089EE93E00E947B1726960FB6F894DEBF2C
:102CE0000FBECDBFDF91CF9108951F93CF93DF9398
:102CF00000D000D000D0CDB7DEB788EA92E00E94C5
:102D00009D06892BF1F188EA92E00E947B06182F3C
:102D1000682F89EE93E00E9422171A3091F569E836
:102D200071E0CE0101960E94010869EE73E0CE01C8
:102D300001960E944717BC0188EA92E00E94E608CB
:102D4000CE0101960E94A9170E948C0D6CE871E0DB
:102D5000CE0101960E94010869EE73E0CE01019652
:102D60000E944717BC0188EA92E00E94E608CE0163
:102D700001960E94A91768E871E089EE93E00E942D
:102D80007B1726960FB6F894DEBF0FBECDBFDF913E
:102D9000CF911F9108950E9412290F931F93CF93F3
:102DA000DF93EC0188819981009729F02A813B818A
:102DB0002617370788F48B016F5F7F4F0E944C28DE
:102DC000009761F0998388831B830A832C813D815E
:102DD000232B11F4FC01108281E001C080E0DF911F
:102DE000CF911F910F910895EF92FF920F931F9330
:102DF000CF93DF936115710511F480E01CC041157C
:102E00005105C1F07B01EC018C819D818A01080F85
:102E1000191FB801CE010E94CD16882371F32881B5
:102E200039818C819D81B701820F931F0E942029D7
:102E30001D830C8381E0DF91CF911F910F91FF9053
:102E4000EF900895CF93DF9300D0CDB7DEB76983BD
:102E50001A8241E050E0BE016F5F7F4F0E94F4167E
:102E60000F900F90DF91CF910895CF93DF93EC01F6
:102E700088819981009711F00E94C32719821882D6
:102E80001D821C821B821A82DF91CF910895CF93FD
:102E9000DF93EC01FB0144815581608171810E94C7
:102EA000F416811103C0CE010E943517CE01DF91C7
:102EB000CF910895EF92FF920F931F93CF93DF93DB
:102EC000EC017B018A01BA010E94CD16811104C078
:102ED000CE010E94351707C01D830C83B70188817E
:102EE00099810E942029CE01DF91CF911F910F91EE
:102EF000FF90EF900895CF93DF93EC01611571057A
:102F000059F0FB0101900020E9F73197AF01461B12
:102F1000570B0E945A1702C00E943517CE01DF914D
:102F2000CF910895CF93DF93EC01FB0186179707AC
:102F300061F0608171816115710529F044815581CD
:102F40000E945A1702C00E943517CE01DF91CF911F
:102F50000895FC01808191810C94C327CF92DF9268
:102F6000EF92FF92CF93DF9300D000D0CDB7DEB7C2
:102F70006C01BE016F5F7F4F80E490E00E94F80912
:102F8000E12CF12C89819A81AB81BC818C0D9D1D36
:102F9000AE1DBF1D89839A83AB83BC83BE016F5F67
:102FA0007F4F80E490E00E941E0ABE016F5F7F4F5A
:102FB00088E590E00E94F80989819A81AB81BC8103
:102FC000C80ED91EEA1EFB1EC982DA82EB82FC8281
:102FD000BE016F5F7F4F88E590E00E941E0A0F9050
:102FE0000F900F900F90DF91CF91FF90EF90DF90B7
:102FF000CF9008950F931F93CF93DF93CDB7DEB794
:1030000029970FB6F894DEBF0FBECDBF8C01862F77
:10301000F8011182108213821282158214824AE012
:10302000BE016F5F7F4F90E00E94DF23BE016F5FA4
:103030007F4FC8010E947B1729960FB6F894DEBF18
:103040000FBECDBFDF91CF911F910F9108950F93C8
:103050001F93CF93DF93CDB7DEB7A1970FB6F89448
:10306000DEBF0FBECDBF8C01CB01BA01F8011182CA
:10307000108213821282158214822AE0AE014F5F01
:103080005F4F0E94BD23BE016F5F7F4FC8010E944A
:103090007B17A1960FB6F894DEBF0FBECDBFDF91B0
:1030A000CF911F910F910895CF93DF932091ED035E
:1030B0003091EE038217930788F4C091E903D09111
:1030C000EA036091FA037091FB038C0F9D1F0E942D
:1030D0002729009719F08C1B9D0B02C08FEF9FEFE3
:1030E000DF91CF910895CF92DF92EF92FF920F93ED
:1030F0001F93CF93DF936C018B017A01461757071B
:1031000020F4812F8A01E62EF82E68E871E0C601CE
:103110000E940108C091ED03D091EE030C171D072A
:10312000E0F4EC16FD0608F4E701E091E903F09104
:10313000EA03EC0FFD1FF08010826091E9037091AB
:10314000EA03600F711FC6010E947B178091E9039B
:103150009091EA03C80FD91FF882C601DF91CF9181
:103160001F910F91FF90EF90DF90CF900895CF9235
:10317000DF92EF92FF920F931F93CF93DF9300D0D4
:1031800000D000D0CDB7DEB78C0168E871E0CE0189
:1031900001960E940108109218048091180490E092
:1031A000F801248135818217930730F540815181E0
:1031B0004115510529F0FA01E80FF91F208101C0DE
:1031C00020E0022E000C330B205331092A30310548
:1031D00068F44115510529F0FA01E80FF91F6081E3
:1031E00001C060E0CE0101960E9422178091180470
:1031F0008F5F80931804D1CF89819A81009729F03D
:103200000E947A236B017C0103C0C12CD12C760172
:10321000CE0101960E94A917C701B60126960FB6E6
:10322000F894DEBF0FBECDBFDF91CF911F910F91FC
:10323000FF90EF90DF90CF900895833081F028F4D5
:10324000813099F08230A1F008958730A9F088305C
:10325000B9F08430D1F4809180008F7D03C08091DB
:1032600080008F7780938000089584B58F7702C0A7
:1032700084B58F7D84BD08958091B0008F7703C0A1
:103280008091B0008F7D8093B0000895EF92FF92FF
:103290000F931F93CF93DF938C01EB017A018C8105
:1032A0008093630380916303803160F4F70144816C
:1032B000558160817181CE010E94F4168091630373
:1032C0008F5FEECFF8011182108213821282158275
:1032D000148288819981918380838A819B819383E1
:1032E00082838C819D8195838483198218821B82BD
:1032F0001A821D821C82C801DF91CF911F910F910C
:10330000FF90EF900895CF93DF93CDB7DEB7289766
:103310000FB6F894DEBF0FBECDBF98E0EDE6F1E04A
:10332000DE01119601900D929A95E1F790915F035D
:10333000961710F46FEF690FFE013196E60FF11D3D
:10334000E60FF11D6081680F606840E087E593E05B
:1033500028960FB6F894DEBF0FBECDBFDF91CF9198
:103360000C941016009769F0FC0101900020E9F719
:103370003197AF01481B590BBC0187E593E00C94D2
:10338000420680E090E008958F929F92AF92BF92A4
:103390000F931F93CF93DF93CDB7DEB7A1970FB6EF
:1033A000F894DEBF0FBECDBF19A2423008F44AE048
:1033B0008E010F5D1F4F842E912CA12CB12CA501E5
:1033C00094010E94D026E62FB901CA0101501109CB
:1033D000EA3014F4E05D01C0E95CD801EC93232BE2
:1033E000242B252B61F7C8010E94B219A1960FB6B4
:1033F000F894DEBF0FBECDBFDF91CF911F910F912B
:10340000BF90AF909F908F9008958230F8F4E82F8E
:10341000F0E0EE0FFF1FEC5EFE4F22E734E1318358
:103420002083813041F0809169008C7F682B60930C
:103430006900E89A089580916900837F660F771F7D
:10344000660F771F682B60936900E99A0895CF9300
:10345000DF93282F30E0F901E957FE4F8491F901FD
:10346000E759FE4FD491F901EB5AFE4FC491CC239A
:1034700091F081110E941D19EC2FF0E0EE0FFF1F5B
:10348000EF5BFE4FA591B491EC91ED2381E090E0CC
:1034900021F480E002C080E090E0DF91CF910895B8
:1034A0001F93CF93DF93282F30E0F901E957FE4FA8
:1034B0008491F901E759FE4FD491F901EB5AFE4F7F
:1034C000C491CC23C1F0162F81110E941D19EC2F3D
:1034D000F0E0EE0FFF1FE55BFE4FA591B4919FB7A3
:1034E000F894111104C08C91D095D82302C0EC91AE
:1034F000DE2BDC939FBFDF91CF911F910895CF9377
:10350000DF9390E0FC01E759FE4F2491FC01EB5A58
:10351000FE4F8491882361F190E0880F991FFC0190
:10352000E358FE4FC591D491FC01E55BFE4FA59198
:10353000B491611109C09FB7F894888120958223C6
:103540008883EC912E230BC0623061F49FB7F8940E
:103550008881322F309583238883EC912E2B2C93F6
:103560009FBF06C08FB7F894E8812E2B28838FBFAA
:10357000DF91CF9108952F923F924F925F926F9279
:103580007F928F929F92AF92BF92CF92DF92EF92F3
:10359000FF920F931F93CF93DF9300D000D01F9221
:1035A000CDB7DEB72090360430903704C101A0E0DB
:1035B000B0E089839A83AB83BC830091340410917B
:1035C00035048091330490911801891721F09F3FB1
:1035D00009F033C205C0EBE9F1E094919D837CC012
:1035E00080931801EBE9F1E0A491AD83AF3F09F4BA
:1035F00024C2A13009F449C058F1A23009F06CC0CE
:103600001092B0001092B1009091B000926090932F
:10361000B0009091B10091609093B100282F30E0FC
:10362000F901EB5AFE4FE491F0E0EE0FFF1FE55B6E
:10363000FE4F459154915093B2044093B104F90167
:10364000E759FE4FE491E093B00422E02D83F1C1ED
:1036500014BC15BC94B5926094BD95B5916095BDB0
:10366000282F30E0F901EB5AFE4FE491F0E0EE0F25
:10367000FF1FE55BFE4F45915491F901E759FE4F5D
:10368000E491E093BD041D82D4C110928000109299
:1036900081009091810098609093810090918100C9
:1036A000916090938100282F30E0F901EB5AFE4F92
:1036B000E491F0E0EE0FFF1FE55BFE4F4591549162
:1036C000F901E759FE4FE491E093BC0461E00E94E8
:1036D0007F1AB1E0BD83B4C09D8197FDAEC161E0AA
:1036E0000E947F1A8D818D7F09F0AAC04801A12C0C
:1036F000B12C60E072E18AE790E0A50194010E949C
:10370000F22629013A0169017A01A1E0CA1AD10819
:10371000E108F108BFEFCB16D104E104F10409F090
:1037200008F44DC060E472E48FE090E0A5019401DC
:103730000E94F22669017A0181E0C81AD108E108E5
:10374000F1089D81923001F5AFEFCA16D104E10472
:10375000F10409F008F405C160E970ED83E090E040
:10376000A50194010E94F22669017A01B1E0CB1A09
:10377000D108E108F1082FEFC216D104E104F104E9
:1037800009F040F583E055C08FEFC816D104E1047D
:10379000F104B9F0B0F068E478EE81E090E0A501C2
:1037A00094010E94F22669017A0191E0C91AD108B8
:1037B000E108F108AD81AA2309F4D5C031C181E047
:1037C00001C082E09D81911134C095B5987F892B0D
:1037D00085BD75C068E478EE81E090E0A5019401B4
:1037E0000E94F22669017A01A1E0CA1AD108E10813
:1037F000F108BFEFCB16D104E104F10409F008F49D
:10380000AEC064E274EF80E090E0A50194010E94F4
:10381000F22669017A01B1E0CB1AD108E108F1087A
:103820002FEFC216D104E104F10411F008F0CEC06C
:1038300085E09091B100987F892B8093B1003FC0C3
:103840004801A12CB12C60E072E18AE790E0A5016B
:1038500094010E94F22669017A01A1E0CA1AD108F6
:10386000E108F108C114D104B1E0EB06F10488F0DD
:1038700068E478EE81E090E0A50194010E94F226D0
:1038800069017A0181E0C81AD108E108F10883E0F2
:1038900001C081E09D81913091F490918100987FE9
:1038A000892B8093810089819A81AB81BC81892B8E
:1038B0008A2B8B2B61F42FEF3FEFA9012EC089815A
:1038C0009A81AB81BC81892B8A2B8B2B69F0D80123
:1038D000AA0FBB1F91010E94852528EE33E040E02E
:1038E00050E00E94D02603C02FEF3FEFA9019D8139
:1038F000913099F0923019F191119FC0C7BC20937B
:10390000C2043093C3044093C4045093C50480910F
:103910006E00826080936E0090C0D0928900C09249
:1039200088002093BE043093BF044093C00450939A
:10393000C10480916F00826080936F007EC0C0924E
:10394000B3002093B3043093B4044093B504509370
:10395000B604809170008260809370006EC084E035
:1039600068CF82E066CFBFEFCB16D104E104F1044B
:1039700059F150F162E17AE780E090E0A50194010D
:103980000E94F22669017A0191E0C91AD108E10882
:10399000F108AFEFCA16D104E104F10499F090F0F8
:1039A000D301C2013AE0B595A795979587953A95C9
:1039B000D1F76C017D0121E0C21AD108E108F108BC
:1039C00085E003CF84E001CF83E0FFCE62E17AE7B8
:1039D00080E090E0A50194010E94F22669017A013D
:1039E00081E0C81AD108E108F1088FEFC816D104A8
:1039F000E104F10499F090F0D301C2012AE0B595F9
:103A0000A795979587952A95D1F76C017D0121E0BF
:103A1000C21AD108E108F10887E00BCF86E009CF90
:103A20009FEFC916D104E104F10409F078F684E0AF
:103A3000C9CE61E00E947F1A59CE0F900F900F906F
:103A40000F900F90DF91CF911F910F91FF90EF900A
:103A5000DF90CF90BF90AF909F908F907F906F90AE
:103A60005F904F903F902F9008953FB7F8948091CA
:103A7000B8049091B904A091BA04B091BB0426B5E2
:103A8000A89B05C02F3F19F00196A11DB11D3FBF96
:103A9000BA2FA92F982F8827820F911DA11DB11D24
:103AA000BC01CD0142E0660F771F881F991F4A9520
:103AB000D1F708958F929F92AF92BF92CF92DF92EB
:103AC000EF92FF926B017C010E94351D4B015C015E
:103AD000C114D104E104F104F1F00E94351DDC01B0
:103AE000CB0188199909AA09BB09883E9340A10511
:103AF000B10570F321E0C21AD108E108F10888EE9F
:103B0000880E83E0981EA11CB11CC114D104E104ED
:103B1000F10419F7DDCFFF90EF90DF90CF90BF90C9
:103B2000AF909F908F9008951F920F920FB60F92B3
:103B300011242F933F938F939F93AF93BF938091C3
:103B4000AC049091AD04A091AE04B091AF0430915B
:103B5000B70423E0230F2D3720F40196A11DB11DDA
:103B600005C026E8230F0296A11DB11D2093B704BE
:103B70008093AC049093AD04A093AE04B093AF04D3
:103B80008091B8049091B904A091BA04B091BB049B
:103B90000196A11DB11D8093B8049093B904A09320
:103BA000BA04B093BB04BF91AF919F918F913F91A5
:103BB0002F910F900FBE0F901F9018958F929F928C
:103BC000AF92BF92CF92DF92EF92FF920F931F932B
:103BD000CF93DF938C016A017B01C4E6D3E084E1DB
:103BE000FE0111928A95E9F78CE3882E912CA12C85
:103BF000B12CCB01BA01A50194010E94D0267F937C
:103C00006F93CA01B901A50194010E94D0267F9348
:103C10006F93C701B60120E13EE040E050E00E9412
:103C2000D0261F922F9383E991E09F938F93DF9388
:103C3000CF930E944129BE01C8010E940108EDB73F
:103C4000FEB73A960FB6F894FEBF0FBEEDBFC8019F
:103C5000DF91CF911F910F91FF90EF90DF90CF9068
:103C6000BF90AF909F908F900895FC01862F158292
:103C70001682178210861186128613861486158680
:103C8000168617864CED55E060E070E0408B518B56
:103C9000628B738B848362E00C947F1AFC01862F05
:103CA0001082118212821382148215821682178268
:103CB000108611861286138615861686648761E043
:103CC0000C947F1ACF93DF9381E593E00E94A917AC
:103CD000C8ECD3E08FE591E0998388838AEF93E085
:103CE0000E94A91789EE93E00E94A9178FE591E041
:103CF00099838883CE01DF91CF910C94E209CF9311
:103D0000DF93CDB7DEB728970FB6F894DEBF0FBEAE
:103D1000CDBF789484B5826084BD84B5816084BD54
:103D200085B5826085BD85B5816085BD80916E0059
:103D3000816080936E00109281008091810082608A
:103D400080938100809181008160809381008091C7
:103D500080008160809380008091B10084608093B6
:103D6000B1008091B00081608093B00080917A00B2
:103D7000846080937A0080917A00826080937A00D8
:103D800080917A00816080937A0080917A008068C7
:103D900080937A001092C100BE016F5F7F4F84E074
:103DA00090E00E94F80989819A81AB81BC810197DA
:103DB000A105B10531F147EF58EE62E070E080E017
:103DC00091E00E94380B86E190E0A0E0B0E08983AA
:103DD0009A83AB83BC83BE016F5F7F4F88E090E026
:103DE0000E941E0A81E090E0A0E0B0E08D839E83F7
:103DF000AF83B887BE016B5F7F4F84E090E00E9485
:103E00001E0A0E94BB1AE091B802F091B90282E04A
:103E10008083E091B402F091B5021082E091B60285
:103E2000F091B7028FEC80831092C002E091BC0247
:103E3000F091BD0286E08083E091BA02F091BB026E
:103E4000808180618083E091BA02F091BB02808121
:103E500088608083E091BA02F091BB028081806823
:103E60008083E091BA02F091BB0280818F7D8083D4
:103E70008DE296E190930104809300041092E30395
:103E80001092E2031092E1031092E0031092DF031C
:103E90001092DE038DE991E09093E5038093E403B3
:103EA0009091D403963108F058C02DEB30E0309358
:103EB000DF032093DE032BE931E03093E10320930D
:103EC000E0032CE231E03093E3032093E2034091DE
:103ED0006800983058F031E09E3008F430E021E07E
:103EE000822F01C0880F3A95EAF701C084E0842B45
:103EF00080936800983038F09E3040F0963148F05A
:103F000020E030E008C02DE630E005C02BE630E0D0
:103F100002C02CE630E03093DC032093DB039830C2
:103F200030F481E001C0880F9A95EAF70EC0292F7E
:103F300030E09E3018F42850310902C02E5031096B
:103F400081E001C0880F2A95EAF78093DD03809114
:103F5000E4039091E5030197F1F78091E2039091DA
:103F6000E303892B21F180919A0290919B0223E037
:103F7000883C9207E1F0009711F00E94E2098091DD
:103F8000E6038E7F8093E6031092990210929802C6
:103F900088EC93E090939B0280939A02E091DB037C
:103FA000F091DC0390818091DD03892B8083109256
:103FB000A6021092A5021092A4021092A3021092DF
:103FC000A20281E08093A1021092A00261E082E14E
:103FD0000E94501A61E083E10E94501A8091B9005A
:103FE0008E7F8093B9008091B9008D7F8093B90056
:103FF00088E48093B80085E48093BC0086EF97E066
:1040000090939F0280939E0287EF97E090939D028A
:1040100080939C0210925C0380916103823018F0BF
:1040200098E090935C0380935F0362E370E080E02C
:1040300090E00E945A1D6091620387E593E00E9420
:10404000931568EE73E080E090E00E945A1D60E3F3
:1040500087E593E00E94F7150BE416E4C801019789
:10406000F1F760E387E593E00E94F715C801019737
:10407000F1F760E387E593E00E94F71583E592E0AE
:104080000197F1F760E287E593E00E94F7156091F0
:104090005C03606240E087E593E00E94101684E0D4
:1040A00080935D0340E06CE087E593E00E9410168A
:1040B00040E061E087E593E00E9410160BE31FE10A
:1040C000C8010197F1F782E080935E0340E066E06B
:1040D00087E593E00E94101640E062E087E593E0F8
:1040E0000E941016C8010197F1F788E080936203DF
:1040F00060E087E593E00E949315809131049091F0
:104100003004882361F0923021F0933021F08FEF5A
:1041100003C080E001C081E063E070E009C092303C
:1041200029F0933011F08FEF01C081E062E070E080
:104130000E94051A88E394E09093E8038093E703D4
:1041400088EE93E0A0E0B0E08093A6049093A704EB
:10415000A093A804B093A9048FEF8093A0042FE349
:1041600036E03093AB042093AA0449E150E060E0CC
:1041700070E0409398045093990460939A0470936C
:104180009B048093920423E934E130939D042093AF
:104190009C0440E157E260E070E040938A04509351
:1041A0008B0460938C0470938D04809384042DEFB2
:1041B00030E030938F0420938E0440E65AEE60E0A6
:1041C00070E040937C0450937D0460937E04709370
:1041D0007F048093760483E391E09093810480933D
:1041E000800481E080939F048093910480938304F2
:1041F0008093750480E094E14DEE52E129EB32E1C9
:10420000989FF0011124E858FC4F51834083338379
:1042100022838F5F8430A1F78093A7029FE088E11B
:104220000FB6F894A895809360000FBE909360003D
:104230008EE994E00E94FC0B80E994E00E94FC0B64
:1042400082E894E00E94FC0B84E794E00E94FC0B5F
:1042500088EC93E00E94B307892BE9F088EC93E0A7
:104260000E94B307892BB9F088EC93E00E94CB073A
:10427000182F682F89EE93E00E9422171A3059F404
:10428000E0910004F0910104099568E871E089EE7D
:1042900093E00E947B17A8950E944407C9CFCF9254
:1042A000DF92EF92FF921F93CF93DF93CDB7DEB7EC
:1042B00065970FB6F894DEBF0FBECDBF1092AB026C
:1042C0001092AA0298EEC92E93E0D92EE12CF12C7F
:1042D000C092AC02D092AD02E092AE02F092AF0278
:1042E00083E291E09093A9028093A80285EC90E08C
:1042F0009093B5028093B40284EC90E09093B7025F
:104300008093B60280EC90E09093B9028093B8025B
:1043100081EC90E09093BB028093BA0282EC90E033
:104320009093BD028093BC0286EC90E09093BF0214
:104330008093BE021092C1021092C2021092C30278
:104340001092C4021092480310924703C09249038E
:10435000D0924A03E0924B03F0924C0385E391E044
:10436000909346038093450310929F041092A004FB
:104370001092A1041092A2041092A3041092A4041B
:104380001092A5041092A6041092A7041092A804FB
:104390001092A9041092AB041092AA0411E0109399
:1043A0009E04109291041092920410929304109221
:1043B000940410929504109296041092970410920F
:1043C00098041092990410929A0410929B041092EF
:1043D0009D0410929C0410939004109283041092F8
:1043E000840410928504109286041092870410921F
:1043F00088041092890410928A0410928B041092FF
:104400008C0410928D0410928F0410928E041093DD
:104410008204109275041092760410927704109220
:1044200078041092790410927A0410927B0410920E
:104430007C0410927D0410927E0410927F041092EE
:10444000810410928004109374046EE088E394E079
:104450000E944E1E6FE087E494E00E944E1E60E1D1
:1044600086E594E00E944E1E61E185E694E00E949C
:104470004E1E8DE08093330483E597E090933504DE
:104480008093340482E390E0909337048093360461
:1044900061E08DE00E947F1A10922E0410922D048C
:1044A000109231041092320482E080933004109311
:1044B0002F0462E00E947F1A1092CB031092CA036D
:1044C000C092CC03D092CD03E092CE03F092CF0302
:1044D0008FE591E09093C9038093C8031092DF03A6
:1044E0001092DE031092E1031092E0031092E303B6
:1044F0001092E2031092E5031092E4036091E60348
:104500006E7F6D7F6093E60366956170612788E03A
:104510000E94501A61E088E00E947F1AE1E7F1E012
:10452000E491E093D803EDE5F1E0E491F0E0EE0FE3
:10453000FF1FE55BFE4F859194919093DA03809382
:10454000D90360E089E00E947F1A8091E60381FD33
:1045500004C061E089E00E94501A89E08093D4038E
:10456000E2E7F1E0E491E093D503EEE5F1E0E491D8
:10457000F0E0EE0FFF1FEF5BFE4F8591949190935B
:10458000D7038093D6038FE591E09093C90380937E
:10459000C80368E871E089EE93E00E940108109278
:1045A000EF031092F0031092F1031092F2031092B5
:1045B000F3031092F4031092F5031092F603109295
:1045C000F7031092F8031092F9036FE871E08AEF95
:1045D00093E00E940108109202041092030424E167
:1045E000CE010196DC01E22F1D92EA95E9F740E445
:1045F00052EE61E070E049835A836B837C8348E725
:1046000050E060E070E04D835E836F83788740E127
:1046100057E260E070E049875A876B877C8740EB00
:1046200054E060E070E0498B5A8B6B8B7C8BFC0113
:10463000A4E0B4E001900D922A95E1F715E1DC01C8
:10464000E12F1D92EA95E9F7FC01A8E1B4E0812F82
:1046500001900D928A95E1F760E270E089EE93E0B7
:104660000E94CD166FE871E08AEF93E00E947B17FD
:1046700064E088E793E00E94351E65E08CE893E0F3
:104680000E94351E66E080EA93E00E94351E67E0D6
:1046900084EB93E00E94351EE3E6F3E0DF011D9218
:1046A0001A95E9F710925A031092590387E491E0A2
:1046B000909358038093570387E280935B0389E1CB
:1046C0008093600384E0809361031092620361E948
:1046D00071E081E593E065960FB6F894DEBF0FBEFA
:1046E000CDBFDF91CF911F91FF90EF90DF90CF90E2
:1046F0000C9401081F93FC0199278827BC01E894BA
:1047000011911032E9F3193010F01E30C8F31B324A
:1047100051F01D3249F4689406C00E94A823610F2D
:10472000711D811D911D119110531A30B0F33EF48B
:1047300090958095709561957F4F8F4F9F4F1F91FA
:104740000895FB01DC0105900D920020E1F708952A
:10475000592F482F372F262F660F771F881F991F35
:10476000660F771F881F991F620F731F841F951F85
:10477000660F771F881F991F0895BB27FA01A62F80
:104780006217710581059105330B30FB66F0AA278E
:10479000660F771F881F991FAA1FA21710F0A21B70
:1047A00063953850A9F7A05DAA3308F0A95DA193DD
:1047B00036F7B111B1931082CA010C94F923BB27CB
:1047C000FB015527AA27880F991FAA1FA41710F0CD
:1047D000A41B83955051B9F7A05DAA3308F0A95DD9
:1047E000A193009779F7B111B1931192CB010C9479
:1047F000F923DC01FC01672F71917723E1F73297F0
:1048000004C07C916D9370836291AE17BF07C8F3AB
:1048100008950E944B2408F481E00895E89409C0AB
:1048200097FB3EF490958095709561957F4F8F4FE3
:104830009F4F9923A9F0F92F96E9BB279395F695F9
:10484000879577956795B795F111F8CFFAF4BB0F77
:1048500011F460FF1BC06F5F7F4F8F4F9F4F16C0DB
:10486000882311F096E911C0772321F09EE8872F65
:10487000762F05C0662371F096E8862F70E060E021
:104880002AF09A95660F771F881FDAF7880F96959A
:10489000879597F90895990F0008550FAA0BE0E83E
:1048A000FEEF16161706E807F907C0F012161306F2
:1048B000E407F50798F0621B730B840B950B39F432
:1048C0000A2661F0232B242B252B21F408950A2698
:1048D00009F4A140A6958FEF811D811D08950E94C6
:1048E00082240C94F3240E94E52438F00E94EC24E6
:1048F00020F0952311F00C94DC240C94E224112474
:104900000C9427250E94042570F3959FC1F3950F01
:1049100050E0551F629FF001729FBB27F00DB11D43
:10492000639FAA27F00DB11DAA1F649F6627B00DD3
:10493000A11D661F829F2227B00DA11D621F739FBC
:10494000B00DA11D621F839FA00D611D221F749FCA
:104950003327A00D611D231F849F600D211D822F11
:10496000762F6A2F11249F5750409AF0F1F0882338
:104970004AF0EE0FFF1FBB1F661F771F881F915065
:104980005040A9F79E3F510580F00C94DC240C9414
:1049900027255F3FE4F3983ED4F386957795679596
:1049A000B795F795E7959F5FC1F7FE2B880F911D8F
:1049B0009695879597F9089597F99F6780E870E035
:1049C00060E008959FEF80EC089500240A94161685
:1049D000170618060906089500240A9412161306ED
:1049E000140605060895092E0394000C11F488237B
:1049F00052F0BB0F40F4BF2B11F460FF04C06F5F97
:104A00007F4F8F4F9F4F089557FD9058440F551F6C
:104A100059F05F3F71F04795880F97FB991F61F040
:104A20009F3F79F087950895121613061406551FB7
:104A3000F2CF4695F1DF08C0161617061806991F23
:104A4000F1CF86957105610508940895E894BB2718
:104A500066277727CB0197F90895F999FECF92BD84
:104A600081BDF89A992780B50895262FF999FECF30
:104A70001FBA92BD81BD20BD0FB6F894FA9AF99A7B
:104A80000FBE019608950E948525A59F900DB49FA5
:104A9000900DA49F800D911D112408952F923F9297
:104AA0004F925F926F927F928F929F92AF92BF923E
:104AB000CF92DF92EF92FF920F931F93CF93DF93EA
:104AC000CDB7DEB7CA1BDB0B0FB6F894DEBF0FBE47
:104AD000CDBF09942A88398848885F846E847D8494
:104AE0008C849B84AA84B984C884DF80EE80FD8096
:104AF0000C811B81AA81B981CE0FD11D0FB6F8940C
:104B0000DEBF0FBECDBFED010895A29FB001B39FE0
:104B1000C001A39F700D811D1124911DB29F700DC6
:104B2000811D1124911D08955058BB27AA270E946A
:104B3000AC250C94F3240E94E52438F00E94EC2468
:104B400020F039F49F3F19F426F40C94E2240EF47B
:104B5000E095E7FB0C94DC24E92F0E94042558F330
:104B6000BA17620773078407950720F079F4A6F552
:104B70000C9426250EF4E0950B2EBA2FA02D0B01D8
:104B8000B90190010C01CA01A0011124FF27591B92
:104B900099F0593F50F4503E68F11A16F040A22F98
:104BA000232F342F4427585FF3CF46953795279509
:104BB000A795F0405395C9F77EF41F16BA0B620B08
:104BC000730B840BBAF09150A1F0FF0FBB1F661F4F
:104BD000771F881FC2F70EC0BA0F621F731F841F92
:104BE00048F4879577956795B795F7959E3F08F0B8
:104BF000B0CF9395880F08F09927EE0F979587957A
:104C000008950E9415260C94F3240E94EC2458F079
:104C10000E94E52440F029F45F3F29F00C94DC2445
:104C200051110C9427250C94E2240E94042568F36A
:104C30009923B1F3552391F3951B550BBB27AA2755
:104C400062177307840738F09F5F5F4F220F331F8F
:104C5000441FAA1FA9F335D00E2E3AF0E0E832D057
:104C600091505040E695001CCAF72BD0FE2F29D05A
:104C7000660F771F881FBB1F261737074807AB072C
:104C8000B0E809F0BB0B802DBF01FF2793585F4FA1
:104C90003AF09E3F510578F00C94DC240C942725C3
:104CA0005F3FE4F3983ED4F3869577956795B79583
:104CB000F7959F5FC9F7880F911D9695879597F98E
:104CC0000895E1E0660F771F881FBB1F6217730707
:104CD0008407BA0720F0621B730B840BBA0BEE1F1C
:104CE00088F7E09508950E940C2588F09F5798F06A
:104CF000B92F9927B751B0F0E1F0660F771F881FE1
:104D0000991F1AF0BA95C9F714C0B13091F00E94FA
:104D10002625B1E008950C942625672F782F882743
:104D2000B85F39F0B93FCCF3869577956795B39521
:104D3000D9F73EF490958095709561957F4F8F4F90
:104D40009F4F08950E944B2408F48FEF08950E940E
:104D50004B24880B990B0895DB018F939F930E943E
:104D60004325BF91AF91A29F800D911DA39F900DF0
:104D7000B29F900D1124089597FB072E16F400940E
:104D800007D077FD09D00E94172707FC05D03EF415
:104D9000909581959F4F0895709561957F4F0895E7
:104DA000A1E21A2EAA1BBB1BFD010DC0AA1FBB1F2F
:104DB000EE1FFF1FA217B307E407F50720F0A21BA1
:104DC000B30BE40BF50B661F771F881F991F1A940E
:104DD00069F760957095809590959B01AC01BD0138
:104DE000CF010895052E97FB1EF400940E94092719
:104DF00057FD07D00E94D02607FC03D04EF40C9438
:104E0000092750954095309521953F4F4F4F5F4F63
:104E1000089590958095709561957F4F8F4F9F4F26
:104E20000895EE0FFF1F0590F491E02D0994AA1B41
:104E3000BB1B51E107C0AA1FBB1FA617B70710F085
:104E4000A61BB70B881F991F5A95A9F780959095B7
:104E5000BC01CD0108950F931F93CF93DF93823050
:104E6000910510F482E090E0E091C804F091C9044B
:104E700020E030E0A0E0B0E0309719F140815181AE
:104E80000281138148175907C8F08417950769F400
:104E9000109731F012960C93129713961C9327C01B
:104EA0000093C8041093C90422C02115310519F0DC
:104EB0004217530718F49A01BD01EF01DF01F80111
:104EC000DBCF21153105F9F0281B390B24303105D2
:104ED00080F48A819B816115710521F0FB01938328
:104EE000828304C09093C9048093C804FE01329663
:104EF00044C0FE01E20FF31F8193919322503109C8
:104F0000398328833AC02091C6043091C704232BEB
:104F100041F420911B0130911C013093C704209370
:104F2000C6042091190130911A012115310541F46F
:104F30002DB73EB740911D0150911E01241B350B2A
:104F4000E091C604F091C704E217F307A0F42E1B0A
:104F50003F0B2817390778F0AC014E5F5F4F2417DD
:104F6000350748F04E0F5F1F5093C7044093C604A7
:104F70008193919302C0E0E0F0E0CF01DF91CF9107
:104F80001F910F910895CF93DF93009709F481C08B
:104F9000FC01329713821282A091C804B091C90417
:104FA000109781F420813181820F931F2091C604D4
:104FB0003091C7042817390751F5F093C704E093DF
:104FC000C60467C0ED0120E030E0CE17DF0740F4F3
:104FD0004A815B819E0141155105F1F0EA01F5CF4F
:104FE000D383C28340815181840F951FC817D9078D
:104FF00059F488819981840F951F0296918380834B
:105000008A819B81938382832115310529F4F09352
:10501000C904E093C8043DC0E901FB83EA834991D8
:105020005991C40FD51FEC17FD0761F48081918160
:10503000840F951F0296E901998388838281938169
:105040009B838A83E0E0F0E012968D919C91139708
:10505000009719F0FD01DC01F7CF8D919C9111971C
:105060009D012E5F3F4F820F931F2091C604309108
:10507000C7042817390769F4309729F41092C90436
:105080001092C80402C013821282B093C704A09386
:10509000C604DF91CF910895A0E0B0E0E2E5F8E228
:1050A0000C945225EC01009721F4CB010E942B2790
:1050B000B4C0FC01E60FF71F9C0122503109E21732
:1050C000F30708F4A8C0D9010D911C911197061798
:1050D0001707B0F00530110508F49BC0C80104970C
:1050E0008617970708F495C002501109061B170B85
:1050F000019311936D937C93CF010E94C32789C0C4
:105100005B01A01AB10A4C01800E911EA091C80447
:10511000B091C904612C712CE12CF12C109709F489
:1051200046C08D919C911197A815B905B1F56C01F8
:1051300042E0C40ED11CCA14DB0478F14C018A1879
:105140009B08640142E0C40ED11C1296BC901297D9
:105150001396AC91B5E0CB16D10440F0B282A38394
:1051600091828082D9016D937C9309C00E5F1F4F9D
:10517000800F911FF90191838083EB2DFA2FE114A9
:10518000F10431F0D7011396FC93EE93129741C0CE
:10519000F093C904E093C8043CC06816790608F48B
:1051A0003C017D0112960D90BC91A02DB7CF80914E
:1051B000C6049091C70488169906E1F4661677062E
:1051C000C8F48091190190911A01009741F48DB7AC
:1051D0009EB740911D0150911E01841B950BE8174D
:1051E000F907C8F4F093C704E093C604F90171838A
:1051F00060830FC0CB010E942B277C01009759F0E0
:10520000A801BE010E941729CE010E94C327C70131
:1052100004C0CE0102C080E090E0CDB7DEB7EEE082
:105220000C946E2581E090E0F8940C94F42BFB0133
:10523000DC0102C001900D9241505040D8F7089512
:10524000FB01DC0101900D920020E1F70895FB01C4
:1052500051915523A9F0BF01DC014D914517411132
:10526000E1F759F4CD010190002049F04D9140152E
:105270004111C9F3FB014111EFCF81E090E00197AB
:105280000895AEE0B0E0E7E4F9E20C945C250D8906
:105290001E8986E08C831A8309838FEF9FE79E83A4
:1052A0008D83AE01475E5F4F6F89788DCE01019689
:1052B0000E946329EF81F885E00FF11F10822E967E
:1052C000E4E00C947825ABE0B0E0E9E6F9E20C9478
:1052D0004E256C017B018A01FC01178216828381B5
:1052E00081FFCCC1CE0101963C01F6019381F7010B
:1052F00093FD859193FF81917F01882309F4BAC1C1
:10530000853239F493FD859193FF81917F01853238
:1053100029F4B60190E00E945A2BE7CF912C212C62
:10532000312CFFE1F315D8F08B3279F038F480326C
:1053300079F08332A1F4232D20611DC08D3261F0FC
:10534000803369F4232D216016C0832D8260382EAE
:10535000E32DE4603E2E2AC0F32DF8601DC037FC1B
:105360002DC020ED280F2A3040F08E32B9F436FCE3
:1053700081C1232D2064322E19C036FE06C08AE07A
:10538000989E200D1124922E11C0EAE02E9E200D31
:105390001124222EF32DF0623F2E08C08C3621F40A
:1053A000832D8068382E02C0883641F4F70193FDC2
:1053B000859193FF81917F018111B3CF982F9F7DBC
:1053C0009554933028F40C5F1F4F9FE399830DC0D1
:1053D000833631F0833771F0833509F059C021C02D
:1053E000F801808189830E5F1F4F88248394912C5C
:1053F000530113C02801F2E04F0E511CF801A080A8
:10540000B18036FE03C0692D70E002C06FEF7FEF00
:10541000C5010E944F2B4C018201F32DFF773F2ED7
:1054200016C0280122E0420E511CF801A080B18074
:1054300036FE03C0692D70E002C06FEF7FEFC5013B
:105440000E94442B4C01F32DF0683F2E820133FC67
:105450001BC0822D90E088169906B0F4B60180E258
:1054600090E00E945A2B2A94F4CFF50137FC8591E5
:1054700037FE81915F01B60190E00E945A2B211006
:105480002A9421E0821A91088114910471F7E8C0EE
:10549000843611F0893641F5F80137FE07C0608186
:1054A0007181828193810C5F1F4F08C0608171817F
:1054B000072E000C880B990B0E5F1F4FF32DFF7604
:1054C0003F2E97FF09C090958095709561957F4F0D
:1054D0008F4F9F4FF0683F2E2AE030E0A3010E94DB
:1054E000962B882E861845C0853731F4232D2F7EC4
:1054F000B22E2AE030E025C0932D997FB92E8F3649
:10550000C1F018F4883579F0B5C0803719F08837C4
:1055100021F0B0C0E92FE061BE2EB4FE0DC0FB2D1E
:10552000F460BF2E09C034FE0AC0292F2660B22EB7
:1055300006C028E030E005C020E130E002C020E1F4
:1055400032E0F801B7FE07C06081718182819381EA
:105550000C5F1F4F06C06081718180E090E00E5F9C
:105560001F4FA3010E94962B882E8618FB2DFF77D4
:105570003F2E36FE0DC0232D2E7FA22E891458F407
:1055800034FE0BC032FC09C0832D8E7EA82E05C0D0
:10559000B82CA32C03C0B82C01C0B92CA4FE0FC09A
:1055A000FE01E80DF11D8081803321F49A2D997E52
:1055B000A92E09C0A2FE06C0B394B39404C08A2DDC
:1055C000867809F0B394A3FC11C0A0FE06C0B21403
:1055D00088F4280C922C9B180EC0B21460F4B6010B
:1055E00080E290E00E945A2BB394F7CFB21418F4E3
:1055F0002B1802C0982C212CA4FE10C0B60180E309
:1056000090E00E945A2BA2FE17C0A1FC03C088E7BD
:1056100090E002C088E590E0B6010CC08A2D867843
:1056200059F0A1FE02C08BE201C080E2A7FC8DE22E
:10563000B60190E00E945A2B891438F4B60180E339
:1056400090E00E945A2B9A94F7CF8A94F301E80DC8
:10565000F11D8081B60190E00E945A2B8110F5CF98
:10566000222009F442CEB60180E290E00E945A2B3B
:105670002A94F6CFF6018681978102C08FEF9FEFC3
:105680002B96E2E10C946A25FC0105906150704074
:105690000110D8F7809590958E0F9F1F0895FC01FB
:1056A0006150704001900110D8F7809590958E0F51
:1056B0009F1F08950F931F93CF93DF93FB012381C7
:1056C00021FD03C08FEF9FEF2CC022FF16C0468143
:1056D0005781248135814217530744F4A081B18159
:1056E0009D012F5F3F4F318320838C93268137812B
:1056F0002F5F3F4F3783268314C08B01EC01FB01E2
:105700000084F185E02D0995892BE1F6D8011696E4
:105710008D919C911797019617969C938E9316974F
:10572000CE01DF91CF911F910F910895FA01AA2721
:10573000283051F1203181F1E8946F936E7F6E5FD4
:105740007F4F8F4F9F4FAF4FB1E03ED0B4E03CD082
:10575000670F781F891F9A1FA11D680F791F8A1F65
:10576000911DA11D6A0F711D811D911DA11D20D0CC
:1057700009F468943F912AE0269F11243019305D86
:105780003193DEF6CF010895462F4770405D419377
:10579000B3E00FD0C9F7F6CF462F4F70405D4A33C4
:1057A00018F0495D31FD4052419302D0A9F7EACF8C
:1057B000B4E0A6959795879577956795BA95C9F7BB
:1057C00000976105710508959B01AC010A2E0694AE
:1057D0005795479537952795BA95C9F7620F731F67
:1057E000841F951FA01D089510E0CFECD0E004C0E9
:1057F000FE010E9411272196C03DD107C9F7F894F8
:02580000FFCFD8
:1058020040E20100780000001027000000000000C4
:10581200B004000041064106FF0000CA04800000F7
:10582200000000D50642066C0622079D067B068F05
:1058320006000000008A125D12FA0062075412404C
:105842001231120000000027164206FA005C120014
:10585200000000CB164206FA005C12000000006352
:10586200074206FA006207B307CB074A0700004067
:1058720000140054006E616E00696E66006F7666F9
:105882000025642E3030000A003E3E003C3C002CD5
:10589200002000253032643A253032643A25303215
:0258A2006400A0
:00000001FF
