:100000000C94D0000C947A100C9453100C94A511FD
:100010000C94A5110C94A5110C94F8000C94A1104B
:100020000C94F8000C94F8000C94F8000C94F80070
:100030000C94F8000C94F8000C94F8000C94F80060
:100040000C948C1C0C94F8000C9457110C943111E6
:100050000C94F8000C94F8000C94F8000C94F80040
:100060000C94C0140C94F800630A800A3A0ACB0D71
:10007000CB0DCB0DCB0DCB0DCB0DA10AE30A020BA3
:10008000210B400BCB0DCB0DCB0DCB0DCB0D5F0B57
:100090007D0B9B0BB90B340C580CCB0DCB0DCB0D42
:1000A000CB0D760CA50CC30CCB0DCB0DCB0DCB0D16
:1000B000CB0DCB0DCB0DE10C360D7B0DCB0DCB0D50
:1000C000CB0DCB0DCB0DCB0DCB0DA20DA80D506FD5
:1000D0007765720053657276650043726564697472
:1000E00000416D6F756E74005472616E73004C69DF
:1000F0006D697400467265650054696D65005661EE
:1001000063616E7400436F696E005465726D696E51
:10011000616C005068696C697070696E657300414C
:100120002E522E542E53001F0113010A010501FE09
:1001300000F900F400EE00E800E100DA00D400CE9F
:100140000000000000230026002900000000002518
:100150000028002B00040404040404040402020226
:1001600002020203030303030301020408102040F8
:100170008001020408102001020408102000000081
:1001800000240027002A00000000080002010000EF
:1001900003040700000000000000000251202D1D94
:1001A00011241FBECFEFD8E0DEBFCDBF24E0A6E90B
:1001B000B1E001C01D92A03CB207E1F711E0A0E060
:1001C000B1E0EAE9F1E502C005900D92A639B10768
:1001D000D9F710E0CFECD0E004C02197FE010E94D7
:1001E000DD23CE3CD107C9F70E94811D0C94C028A5
:1001F0000C940000E0919A0280919902E81730F483
:10020000F0E0E754FE4F808190E008958FEF9FEF7C
:10021000089590919A0280919902981750F4E92FCD
:10022000F0E0E754FE4F208130E09F5F90939A0208
:1002300002C02FEF3FEFC90108958091990290E02D
:1002400020919A02821B91090895089580E090E020
:100250000895CF92DF92EF92FF920F931F93CF9367
:10026000DF937C01CB018A012091B801222389F020
:10027000EB016B01C40ED51ECC15DD0569F069914B
:10028000D701ED91FC910190F081E02DC701099516
:10029000F3CF642F0E94EE15C801DF91CF911F911B
:1002A0000F91FF90EF90DF90CF900895CF93DF9361
:1002B0001F92CDB7DEB769832091B8012223D1F018
:1002C00020919702203240F021E030E0FC0133839E
:1002D000228380E090E015C080919802E82FF0E042
:1002E000E856FE4F998190838F5F809398028093A8
:1002F000970205C061E0CE0101960E94EE1581E0F3
:1003000090E00F90DF91CF9108951F93CF93DF93EB
:10031000C82F10929B02D4E11FE0E0919B02E430D1
:1003200020F5DE9FF0011124E459FC4F8481C813AD
:1003300016C00E94B319E0919B021E9FF001112488
:10034000E25DFB4F108611861286138610821182A1
:100350001282138214821582168217821686809169
:100360009B028F5F80939B02D8CFDF91CF911F912B
:10037000089582E390E00C94F916CF92DF92EF9209
:10038000FF92CF93DF9300D000D0CDB7DEB7BE0190
:100390006F5F7F4F84E390E00E943512C980DA805E
:1003A000EB80FC80BE016F5F7F4F8CE190E00E948C
:1003B000351289819A81AB81BC81C816D906EA06BB
:1003C000FB0620F081E08093960102C01092960116
:1003D0000F900F900F900F90DF91CF91FF90EF90C3
:1003E000DF90CF9008954F925F926F927F928F929D
:1003F0009F92AF92BF92CF92DF92EF92FF920F93B4
:100400001F93CF93DF93CDB7DEB728970FB6F8943D
:10041000DEBF0FBECDBFA82EBE016F5F7F4F8CE049
:1004200090E00E94351289819A81AB81BC81209134
:10043000210430912204820F931F90932204809311
:100440002104892B09F411C110929B0284E1982E9A
:100450009FE0B92E26E0822E80919B02843008F026
:1004600004C190E0989EF001999EF00D1124E4598A
:10047000FC4F2481A212F3C0B89EF001B99EF00D8A
:100480001124E25DFB4F8685882309F4A7C00E94F2
:10049000B31900912104109122046801E12CF12C80
:1004A000BE016F5F7F4F84E190E00E943512698149
:1004B0007A818B819C81A70196010E9478232B0170
:1004C0003C01BE016F5F7F4F8CE090E00E943512CF
:1004D00089819A81AB81BC81892B8A2B8B2B09F076
:1004E00094C0BE016B5F7F4F84E390E00E943512A1
:1004F0008D819E81AF81B8858C0D9D1DAE1DBF1D68
:100500008D839E83AF83B887BE016B5F7F4F84E38B
:1005100090E00E945B12BE016B5F7F4F88E590E028
:100520000E9435128D819E81AF81B885C80ED91E7B
:10053000EA1EFB1ECD82DE82EF82F886BE016B5F73
:100540007F4F88E590E00E945B12BE016F5F7F4F96
:1005500080E390E00E94351289819A81AB81BC8151
:100560000196A11DB11D89839A83AB83BC83BE0113
:100570006F5F7F4F80E390E00E945B12BE016F5F70
:100580007F4F84E590E00E94351289819A81AB818A
:10059000BC810196A11DB11D89839A83AB83BC8365
:1005A000BE016F5F7F4F84E590E00E945B12BE0149
:1005B0006F5F7F4F84E190E00E94351289819A81BC
:1005C000AB81BC81089FB001099F700D189F700D11
:1005D000112480E091E00E94861217C0C09021048F
:1005E000D0902204E12CF12CBE016F5F7F4F88E197
:1005F00090E00E94351289819A81AB81BC81C81636
:10060000D906EA06FB0658F142CFBE016F5F7F4F65
:100610008CE090E00E94351289819A81AB81BC8187
:10062000892B8A2B8B2B29F0B80180E091E00E9466
:10063000D212849CC001859C900D11240E94F91651
:1006400080919B02B89EC0011124B301A201825D7A
:100650009B4F0E9439141092220410922104809121
:100660009B028F5F80939B02F7CE28960FB6F8947B
:10067000DEBF0FBECDBFDF91CF911F910F91FF90D5
:10068000EF90DF90CF90BF90AF909F908F907F9032
:100690006F905F904F9008950E94B31910922804B4
:1006A0008091280490E02091230430912404821743
:1006B0009307B0F4809126040E941F19209127040B
:1006C00030E082179307C1F461E070E080E090E0D1
:1006D0000E94521C809128048F5F80932804E0CFF1
:1006E000209125048091210490912204820F911D74
:1006F000909322048093210408958F929F92AF9249
:10070000BF92CF92DF92EF92FF920F931F93CF93FE
:10071000DF9310929B0284E1D82E9FE0C92E809136
:100720009B02843008F0C6C0E82EF12CDE9CE0016C
:10073000DF9CD00D1124C459DC4FCE010E949411CE
:100740009F81891709F456C0CE010E949411882315
:1007500009F450C02FB7F8948091A2049091A3049B
:10076000A091A404B091A5042FBF88879987AA8778
:10077000BB87CE010E949411DE9CF001DF9CF00D3E
:100780001124E459FC4F8783C0919B02CC9EE00169
:100790001124C25DDB4F8E85882331F18C809D80D2
:1007A000AE80BF800E942514861A970AA80AB90A4B
:1007B00088869986AA86BB860E9425140C811D8195
:1007C0002E813F81601771078207930768F01886B2
:1007D00019861A861B86188219821A821B821C822D
:1007E0001D821E821F821E8680919B028F5F8093D6
:1007F0009B0295CFCE010E949411DE9C8001DF9C6C
:10080000100D112404591C4FF8019781891709F420
:10081000B0CFCE010E9494118111ABCF2FB7F894C5
:100820008091A2049091A304A091A404B091A50486
:100830002FBFF8014085518562857385841B950B18
:10084000A60BB70B448555856685778548175907EC
:100850006A077B0790F4F80140895189628973899E
:1008600084179507A607B70740F40190F081E02DA3
:10087000309709F47ECFD80119C0DE9C9001DF9C2F
:10088000300D112424593C4FF90140895189628966
:100890007389481759076A077B0708F06ACF0280F7
:1008A000F381E02D309709F464CFD90114968C912F
:1008B00009955FCFDF91CF911F910F91FF90EF903E
:1008C000DF90CF90BF90AF909F908F900895CF937F
:1008D000FC01C48121E02093B801C09397011092DC
:1008E0009802109297028385682B89E393E00E9417
:1008F000560190919702913208F045C0809196027E
:100900008111FCCF82E08093960281E08093950272
:100910008FEF8093D9011092FB019093FA01A8E91F
:10092000B1E0EAEDF1E080E0981721F02D912193FC
:100930008F5FFACF1092FC018091FC01CC0FC82B85
:10094000C093FC0180919402813061F41092940272
:100950008091FC018093BB008091BC0083FDF8CFA7
:1009600085EC01C085EE8093BC00809196028230B8
:10097000E1F38091D9018F3F31F08091D90180322C
:1009800011F08091D9011092980210929702109262
:10099000B801CF9108950F931F93CF938C01C62F69
:1009A0000E9467046C2F6460C8010E9467046C2F6A
:1009B0006B7FC8010E94670483EC90E00197F1F718
:1009C000CF911F910F9108950F931F93CF93DF93B2
:1009D0008C01C62FD42F607F642B0E94CB0480E152
:1009E000C89FB00111246D2BC801DF91CF911F91D9
:1009F0000F910C94CB0441E00E94E40481E090E06C
:100A00000895CF92DF92EF92FF920F931F93CF93AF
:100A1000DF93CDB7DEB7AD970FB6F894DEBF0FBE4C
:100A2000CDBF0E942514633071058105910508F042
:100A300042C060E080E00E94CE1865E473E0CE0121
:100A400082960E943510E7E2F1E0659174918DEF96
:100A500091E00E94A9226DEF71E0CE0101960E9403
:100A60003E10AE014E5D5F4FBE016F5F7F4FCE0106
:100A700088960E949118BE01685D7F4F8BE493E0D9
:100A80000E942311CE0188960E94F416CE01019691
:100A90000E94F416CE0182960E94F41661E080E076
:100AA0000E94CE1865E473E0CE0182960E94351054
:100AB000E9E2F1E0F7C00E94251463307105810579
:100AC000910508F419C10E9425146630710581054D
:100AD000910508F011C160E080E00E94CE1865E445
:100AE00073E0CE0182960E943510E7E3F1E0659154
:100AF00074918DEF91E00E94A9226DEF71E0CE011B
:100B000001960E943E10AE014E5D5F4FBE016F5FC9
:100B10007F4FCE0188960E949118BE01685D7F4F7D
:100B20008BE493E00E942311CE0188960E94F41674
:100B3000CE0101960E94F416CE0182960E94F41610
:100B400060E088E00E94CE18BE016F5F7F4F80E3B7
:100B500090E00E94351229813A814B815C8119A273
:100B60008E010F5D1F4F8AE0C82ED12CE12CF12C95
:100B7000CA01B901A70196010E949C23605DD801BA
:100B80006E938D01211531054105510589F71097A7
:100B900069F0FD0101900020E9F73197AF014A1B90
:100BA0005B0BBD018BE493E00E947F0E61E080E06F
:100BB0000E94CE1865E473E0CE0182960E94351043
:100BC000E9E3F1E0659174918DEF91E00E94A92233
:100BD0006DEF71E0CE0101960E943E10AE014E5DB8
:100BE0005F4FBE016F5F7F4FCE0188960E949118C4
:100BF000BE01685D7F4F8BE493E00E942311CE011C
:100C000088960E94F416CE0101960E94F416CE0139
:100C100082960E94F41661E088E00E94CE18BE0120
:100C20006F5F7F4F84E390E09DC280E00E94CE180A
:100C300065E473E0CE0182960E9435100E9489110E
:100C4000BC01CE0101960E943E10AE014E5D5F4F89
:100C5000BE016F5F7F4FCE0188960E949118BE0142
:100C6000685D7F4F8BE493E00E942311CE0188964C
:100C70000E94F416CE0101960E94F416CE018296CF
:100C80000E94F41661E088E00E94CE1880919601DF
:100C900065E473E08111AFC1CE0182960E943510E8
:100CA000EFE2F1E0659174918DEF91E00E94A9224D
:100CB0006DEF71E0CE0101960E943E10AE014E5DD7
:100CC0005F4FBE016F5F7F4FCE0188960E949118E3
:100CD000BE01685D7F4F8BE493E00E942311CE013B
:100CE00088960E94F416CE0101960E94F416CE0159
:100CF00082960E94F41665C20E9425146630710522
:100D00008105910540F00E94251469307105810527
:100D1000910508F47EC160E080E00E94CE1865E491
:100D200073E0CE0182960E943510EDE2F1E065910C
:100D300074918DEF91E00E94A9226DEF71E0CE01D8
:100D400001960E943E10AE014E5D5F4FBE016F5F87
:100D50007F4FCE0188960E949118BE01685D7F4F3B
:100D60008BE493E00E942311CE0188960E94F41632
:100D7000CE0101960E94F416CE0182960E94F416CE
:100D800060E088E00E94CE1865E473E0CE018296B0
:100D90000E9435108091210490912204AC01E8E575
:100DA000F3E024E1DF011D922A95E9F71F921F92DB
:100DB0005F938F9385E791E09F938F93FF93EF93DA
:100DC0000E940D2668E573E0CE0101960E943E1058
:100DD000AE014E5D5F4FBE016F5F7F4FCE018896C3
:100DE0000E949118BE01685D7F4F8BE493E00E94E2
:100DF0002311CE0188960E94F416CE0101960E941E
:100E0000F416CE0182960E94F4160FB6F894DEBF57
:100E10000FBECDBF8091360490913704A091380465
:100E2000B0913904892B8A2B8B2B09F441C061E0E6
:100E300080E00E94CE1865E473E0CE0182960E94A5
:100E400035100E948911BC01CE0101960E943E100E
:100E5000AE014E5D5F4FBE016F5F7F4FCE01889642
:100E60000E949118BE01685D7F4F8BE493E00E9461
:100E70002311CE0188960E94F416CE0101960E949D
:100E8000F416CE0182960E94F41661E088E00E947A
:100E9000CE1865E473E0CE0182960E943510409131
:100EA000360450913704609138047091390466C05B
:100EB000BE016F5F7F4F8CE090E00E943512898108
:100EC0009A81AB81BC81892B8A2B8B2B09F05BC06B
:100ED000809121049091220461E0892B09F4A5CE30
:100EE00080E00E94CE1865E473E0CE0182960E94F5
:100EF00035100E948911BC01CE0101960E943E105E
:100F0000AE014E5D5F4FBE016F5F7F4FCE01889691
:100F10000E949118BE01685D7F4F8BE493E00E94B0
:100F20002311CE0188960E94F416CE0101960E94EC
:100F3000F416CE0182960E94F41661E088E00E94C9
:100F4000CE1865E473E0CE0182960E943510C09001
:100F50002104D0902204E12CF12CBE016F5F7F4F61
:100F600084E190E00E94351269817A818B819C81B5
:100F7000A70196010E947823AB01BC01CE01019626
:100F80000E94D61C9BCE61E080E00E94CE1865E4F2
:100F900073E0CE0182960E9435100E948911BC0137
:100FA000CE0101960E943E10AE014E5D5F4FBE0124
:100FB0006F5F7F4FCE0188960E949118BE01685DD9
:100FC0007F4F8BE493E00E942311CE0188960E940C
:100FD000F416CE0101960E94F416CE0182960E946C
:100FE000F41661E088E00E94CE188091960165E4D5
:100FF00073E0882339F0CE0182960E943510E5E334
:10100000F1E050CECE0182960E943510E3E3F1E08C
:1010100049CE60E080E00E94CE1865E473E0CE0126
:1010200082960E943510EDE3F1E0659174918DEFA9
:1010300091E00E94A9226DEF71E0CE0101960E941D
:101040003E10AE014E5D5F4FBE016F5F7F4FCE0120
:1010500088960E949118BE01685D7F4F8BE493E0F3
:101060000E942311CE0188960E94F416CE010196AB
:101070000E94F416CE0182960E94F41660E088E089
:101080000E94CE1865E473E0CE0182960E9435106E
:10109000BE016F5F7F4F8CE490E00E943512498162
:1010A0005A816B817C81CE0101960E94D61CAE01D3
:1010B0004E5D5F4FBE016F5F7F4FCE0188960E94ED
:1010C0009118BE01685D7F4F8BE493E00E9423116D
:1010D000CE0188960E94F416CE0101960E94F41665
:1010E000CE0182960E94F41661E080E00E94CE1844
:1010F00065E473E0CE0182960E943510EBE3F1E0E7
:10110000659174918DEF91E00E94A9226DEF71E0DD
:10111000CE0101960E943E10AE014E5D5F4FBE01B2
:101120006F5F7F4FCE0188960E949118BE01685D67
:101130007F4F8BE493E00E942311CE0188960E949A
:10114000F416CE0101960E94F416CE0182960E94FA
:10115000F41661E088E00E94CE18BE016F5F7F4FF9
:101160008CE390E00E94351289819A812B813C8129
:10117000E8E5F3E044E1DF011D924A95E9F73F938A
:101180002F939F938F9385E791E09F938F93FF9386
:10119000EF930E940D2668E573E0CE0101960E9450
:1011A0003E10BE016F5F7F4F8BE493E00E942311DE
:1011B000CE0101960E94F4160FB6F894DEBF0FBE62
:1011C000CDBFAD960FB6F894DEBF0FBECDBFDF9199
:1011D000CF911F910F91FF90EF90DF90CF900895E6
:1011E0000C940105CF93DF9300D000D000D0CDB791
:1011F000DEB76BE771E0CE0101960E943E106DED07
:1012000073E0CE0101960E949216BC018CE992E037
:101210000E942311CE0101960E94F4160E949009AB
:101220006EE771E0CE0101960E943E106DED73E015
:10123000CE0101960E949216BC018CE992E00E94B8
:101240002311CE0101960E94F4166DED73E08CEB34
:1012500093E00E94231162E871E08DED93E00E941B
:10126000C61626960FB6F894DEBF0FBECDBFDF912F
:10127000CF9108951F93CF93DF9300D000D000D07B
:10128000CDB7DEB78CE992E00E94DA0E892BF1F13E
:101290008CE992E00E94B80E182F682F8DED93E034
:1012A0000E946D161A3091F56BE771E0CE01019640
:1012B0000E943E106DED73E0CE0101960E949216E1
:1012C000BC018CE992E00E942311CE0101960E949C
:1012D000F4160E9490096EE771E0CE0101960E941B
:1012E0003E106DED73E0CE0101960E949216BC0196
:1012F0008CE992E00E942311CE0101960E94F4161F
:1013000062E871E08DED93E00E94C61626960FB656
:10131000F894DEBF0FBECDBFDF91CF911F9108952E
:101320004F925F926F927F928F929F92AF92BF92F5
:10133000CF92DF92EF92FF920F931F93CF93DF93A1
:10134000CDB7DEB7C454D1090FB6F894DEBF0FBED7
:10135000CDBF80E090E00E949F173C0177244301BD
:101360008FEF881A980AC4010E949F177C01FF24FE
:1013700057018FEFA81AB80AC5010E949F178C0168
:10138000112768018FEFC81AD80AC6010E949F175B
:101390002C01A30160E070E0CE0101960E94BE170F
:1013A000CE0101960E9402186093E303CE010196DC
:1013B0000E94F416A701B401CE0101960E94BE1747
:1013C000CE0101960E9402186093E403CE010196BB
:1013D0000E94F416A801B501CE0101960E94BE1725
:1013E000CE0101960E9402186093E5037093E60314
:1013F0008093E7039093E803CE0101960E94F416D0
:101400005524A201B601CE0101960E94BE17CE015D
:1014100001960E9402186093E9037093EA03809397
:10142000EB039093EC03CE0101960E94F4164091D9
:10143000E1035091E203B2016F5F7F4FCE0101964D
:101440000E94BE17CE0101960E9402186093ED0320
:10145000CE0101960E94F416E091E3038E2F90E0F6
:10146000FC013197E333F10508F095C3EC5CFF4FC5
:101470000C94DD238091E403813071F40E942514E3
:101480006093E5037093E6038093E7039093E8038A
:1014900031C0843009F476C08091F70390E0A0E079
:1014A000B0E08093E5039093E603A093E703B09345
:1014B000E8038093E9039093EA03A093EB03B093CE
:1014C000EC0384E380C38091E403813029F7BE01FB
:1014D0006F5F7F4F88E090E00E94351289819A818A
:1014E000AB81BC818093E5039093E603A093E7036F
:1014F000B093E8038091F70390E0A0E0B0E041C32F
:101500008091E403813031F4BE016F5F7F4F8CE046
:1015100090E0E2CF823009F0BFCF8091E503909157
:10152000E603A091E703B091E80325968CAF9DAF49
:10153000AEAFBFAF2597BE016F5B7F4F8CE090E0F1
:10154000D7C28091E403813031F4BE016F5F7F4FD9
:1015500080E190E0C1CF823009F09BCF8091E5031C
:101560009091E603A091E703B091E80321968CAF38
:101570009DAFAEAFBFAF2197BE01635C7F4F80E1EF
:1015800090E0B6C2C090E503D090E603E090E70398
:10159000F090E803BE016F5F7F4F80E190E00E9412
:1015A000351249815A816B817C8181E090E0A0E015
:1015B000B0E0C416D506E606F70609F093CF80E042
:1015C00090E0DC018FCF8091E403813031F4BE01E3
:1015D0006F5F7F4F84E190E07FCF823009F05CCF76
:1015E0008091E5039091E603A091E703B091E803B1
:1015F00089AF9AAFABAFBCAFBE01675C7F4F84E1F0
:1016000090E076C28091E403813031F4BE016F5FD7
:101610007F4F88E190E060CF823009F03DCF80912C
:10162000E5039091E603A091E703B091E8038DAB49
:101630009EABAFABB8AFBE016B5C7F4F88E190E073
:1016400057C28091E403813031F4BE016F5F7F4F58
:101650008CE190E041CF823009F01ECF8091E5030C
:101660009091E603A091E703B091E80389AB9AABB0
:10167000ABABBCABBE016F5C7F4F8CE190E038C27E
:101680008091E403813031F4BE016F5F7F4F80E2CF
:1016900090E022CF823009F0FFCE8091E503909157
:1016A000E603A091E703B091E8038DA79EA7AFA73B
:1016B000B8ABBE01635D7F4F80E290E019C28091BC
:1016C000E403813009F0E8CEBE016F5F7F4F80E315
:1016D00090E00E94351289819A81AB81BC81809310
:1016E000E5039093E603A093E703B093E803BE01FC
:1016F0006F5F7F4F84E590E0D4C08091E403813038
:1017000009F0CACEBE016F5F7F4F84E390E00E9474
:10171000351289819A81AB81BC818093E5039093D6
:10172000E603A093E703B093E803BE016F5F7F4F2A
:1017300088E590E0B6C08091E403813009F0ACCE3A
:10174000BE016F5F7F4F88E390E00E943512898170
:101750009A81AB81BC818093E5039093E603A093CB
:10176000E703B093E803BE016F5F7F4F8CE590E025
:1017700098C08091E4038130C9F4BE016F5F7F4F50
:101780008CE390E00E94351289819A81AB81BC8103
:101790008093E5039093E603A093E703B093E803F7
:1017A000BE016F5F7F4F80E690E07BC0833009F021
:1017B00073CE6091E9037091EA038091EB039091FD
:1017C000EC03611571058105910581F188EF93E0C6
:1017D0000E94D212C090E903D090EA03E090EB039C
:1017E000F090EC03BE016F5F7F4F84E190E00E94B8
:1017F000351269817A818B819C81A70196010E94B3
:101800007823AB01BC012091E5033091E603EFE0C2
:10181000E29FC001E39F900D11242091DB033091E2
:10182000DC03820F931F0E9439147EC12091E503CF
:101830003091E6034FE0429FC001439F900D112479
:10184000E091DB03F091DC03E80FF91F10861186AD
:1018500012861386108211821282138214821582DC
:1018600016821782168660C18091E403813009F0E8
:1018700013CEBE016F5F7F4F80E490E00E9435126F
:1018800089819A81AB81BC818093E5039093E603C3
:10189000A093E703B093E803BE016F5F7F4F84E638
:1018A00090E00E94351289819A81AB81BC8169C127
:1018B0008091E403813009F0EFCDBE016F5F7F4F6F
:1018C00084E490E00E94351289819A81AB81BC81C9
:1018D0008093E5039093E603A093E703B093E803B6
:1018E000BE016F5F7F4F88E690E0DBCF8091E4031D
:1018F000813009F0D1CD8AE08093ED03BE016F5FA6
:101900007F4F8CE490E00E94351289819A81AB81EF
:10191000BC818093E5039093E603A093E703B09323
:10192000E803BE016F5F7F4F80E790E00E943512B1
:1019300089819A81AB81BC818093E9039093EA030A
:10194000A093EB03B093EC0340C18091E40381309A
:1019500009F0A2CDBE016F5F7F4F80E590E00E944D
:10196000351289819A81AB81BC818093E503909384
:10197000E603A093E703B093E803BE016F5F7F4FD8
:1019800084E790E08ECF8091E403813009F084CD2C
:10199000BE016F5F7F4F88E490E00E94351289811D
:1019A0009A81AB81BC818093E5039093E603A09379
:1019B000E703B093E803BE016F5F7F4F8CE690E0D2
:1019C00070CF8091E403813031F4BE016F5F7F4FAF
:1019D00084E290E081CD833009F05ECD8091E50313
:1019E0009091E603A091E703B091E80389A79AA735
:1019F000ABA7BCA764E074E080E390E00E945B12B8
:101A000064E074E084E390E00E945B1264E074E0C0
:101A100088E390E00E945B1264E074E08CE390E065
:101A20000E945B1264E074E080E490E00E945B122C
:101A300064E074E084E490E00E945B1264E074E08F
:101A40008CE490E00E945B1264E074E080E590E03A
:101A50000E945B1264E074E088E490E00E945B12F4
:101A6000BE01675D7F4F84E290E042C08091E40355
:101A7000813031F4BE016F5F7F4F88E290E02CCD62
:101A8000833009F009CD8091E5039091E603A091A0
:101A9000E703B091E8038DA39EA3AFA3B8A764E0CA
:101AA00074E08CE090E00E945B1268EF73E080E1EC
:101AB00090E00E945B126CEF73E084E190E00E9482
:101AC0005B1264E074E088E190E00E945B1260E0E9
:101AD00074E08CE190E00E945B1268E074E080E2C8
:101AE00090E00E945B12BE016B5D7F4F88E290E048
:101AF0000E945B1219C08091E403813031F4BE0171
:101B00006F5F7F4F8CE290E0E7CC833009F0C4CC6C
:101B10004091E5035091E6036091E7037091E8037B
:101B200088EF93E00E9475138091F70390E0A0E0A6
:101B3000B0E08093E5039093E603A093E703B093AE
:101B4000E8031FC08091E403833009F0A5CCFFCFE8
:101B50008091E403813009F09FCC2091E50330911E
:101B6000E6034FE0429FC001439F900D1124E09196
:101B7000DB03F091DC03E80FF91F80859185A285D6
:101B8000B3858093E9039093EA03A093EB03B093AA
:101B9000EC038AE018C08091F7038093E40390E09F
:101BA000A0E0B0E08093E5039093E603A093E70301
:101BB000B093E8038093E9039093EA03A093EB03C7
:101BC000B093EC0383E38093ED036091ED03CE01CA
:101BD0004F960E9445174091E9035091EA036091A6
:101BE000EB037091EC03CE0149960E94721740916D
:101BF000E5035091E6036091E7037091E803CE019D
:101C000043960E9472176091E403CE010D960E94E4
:101C100045176091E303CE0101960E944517BE016E
:101C20006F5F7F4FCE0107960E9435106EEE73E016
:101C3000CE0107960E949216BE01635F7F4F0E94FD
:101C400092166EEE73E00E949216BE016D5E7F4F9B
:101C50000E9492166EEE73E00E949216BE01675EBD
:101C60007F4F0E9492166EEE73E00E949216BE01A4
:101C7000615E7F4F0E9492168C0141E050E061E866
:101C800071E00E943F168823A9F1B8018DED93E021
:101C90000E94DD16CE0107960E94F416CE01019631
:101CA0000E94F416CE010D960E94F416CE014396C2
:101CB0000E94F416CE0149960E94F416CE014F966A
:101CC0000E94F416CC5BDF4F0FB6F894DEBF0FBE58
:101CD000CDBFDF91CF911F910F91FF90EF90DF90DB
:101CE000CF90BF90AF909F908F907F906F905F90BC
:101CF0004F900895C8010E948016C7CF0895CF92D3
:101D0000DF92EF92FF920F931F93CF93DF936C01BB
:101D10007A018B01C0E0D0E0CE15DF0581F0D8015B
:101D20006D918D01D601ED91FC910190F081E02D36
:101D3000C6010995892B11F02196EECF7E01C701CE
:101D4000DF91CF911F910F91FF90EF90DF90CF9097
:101D50000895FC01538D448D252F30E0842F90E0B1
:101D6000821B930B541710F0CF9608950197089596
:101D7000FC01918D828D981761F0828DDF01A80F93
:101D8000B11D5D968C91928D9F5F9F73928F90E0B5
:101D900008958FEF9FEF0895FC01918D828D981724
:101DA00031F0828DE80FF11D858D90E008958FEF61
:101DB0009FEF0895FC01918D228D892F90E0805C2A
:101DC0009F4F821B91098F73992708958CE992E0A8
:101DD0000E94DA0E21E0892B09F420E0822F089579
:101DE000FC01848DDF01A80FB11DA35ABF4F2C91B8
:101DF000848D90E001968F739927848FA689B78987
:101E00002C93A089B1898C91837080648C93938D7D
:101E1000848D981306C00288F389E02D80818F7D20
:101E200080830895EF92FF920F931F93CF93DF93D8
:101E3000EC0181E0888F9B8D8C8D981305C0E8891B
:101E4000F989808185FD26C0F62E0B8D10E00F5F8D
:101E50001F4F0F731127E02E8C8DE8120CC00FB6A8
:101E600007FCFACFE889F989808185FFF5CFCE019B
:101E70000E94F00EF1CF8B8DFE01E80FF11DE35AA9
:101E8000FF4FF0829FB7F8940B8FEA89FB8980811E
:101E900080620AC09FB7F894EE89FF896083E88961
:101EA000F98980818370806480839FBF81E090E0A6
:101EB000DF91CF911F910F91FF90EF900895CF93F5
:101EC000DF93EC01888D8823C9F0EA89FB89808142
:101ED00085FD05C0A889B9898C9186FD0FC00FB614
:101EE00007FCF5CF808185FFF2CFA889B9898C9155
:101EF00085FFEDCFCE010E94F00EE7CFDF91CF91AD
:101F000008950E94E60E81110C943A0908952091DB
:101F10008E0230918F022817390771F490918C024C
:101F200080918D02981741F0E0918C02F0E0E45B23
:101F3000FD4F808190E008958FEF9FEF0895089501
:101F40001F93CF93DF93DC015C968D919C915D97FD
:101F5000009739F421E030E013963C932E931297CA
:101F60003BC05196ED91FC91529750962C91509711
:101F7000322F30951FB75E964C915E97742F72701A
:101F800041FD6095F8944081772311F0422B01C008
:101F900043234083EC012197F1F748E0508160FF33
:101FA00002C0522B01C053235083EC012197F1F75B
:101FB0006695415099F78081772319F083238083B8
:101FC00002C0282B20831FBF5C968D919C915D974A
:101FD0000197F1F781E090E0DF91CF911F91089593
:101FE00020918E0230918F022817390771F4809169
:101FF0008D0220918C0290E0805C9F4F821B9109A2
:1020000060E470E00E948823089580E090E00895E5
:1020100020918E0230918F0228173907B9F49091E0
:102020008C0280918D02981789F0E0918C02F0E08B
:10203000E45BFD4F808120918C0230E02F5F3F4FA9
:102040002F73332720938C0290E008958FEF9FEF3A
:10205000089585ED8093BC008091BC0084FDFCCF89
:1020600010929602089508950895FC01118210823D
:1020700013821282158214820C94DD16FC011182E7
:10208000108213821282158214826115710551F03B
:10209000FB0101900020E9F73197AF01461B570B78
:1020A0000C94A51608951F920F920FB60F9211244B
:1020B0002F933F934F935F936F937F938F939F9350
:1020C000AF93BF93EF93FF93E0911601F091170147
:1020D0000995FF91EF91BF91AF919F918F917F9162
:1020E0006F915F914F913F912F910F900FBE0F9085
:1020F0001F9018951F920F920FB60F9211242F93D5
:102100003F934F935F936F937F938F939F93AF937F
:10211000BF93EF93FF93E0911401F091150109959E
:10212000FF91EF91BF91AF919F918F917F916F91AF
:102130005F914F913F912F910F900FBE0F901F9085
:1021400018951F920F920FB60F9211242F933F9361
:102150004F935F936F937F938F939F93AF93BF93AF
:10216000EF93FF938091A9049091AA04A091AB04EE
:10217000B091AC04892B8A2B8B2B59F19091A6043A
:10218000E091A704F091A804808189278083809141
:10219000A9049091AA04A091AB04B091AC041816C4
:1021A00019061A061B060CF03DC08091A9049091F7
:1021B000AA04A091AB04B091AC040197A109B109A4
:1021C0008093A9049093AA04A093AB04B093AC04A9
:1021D00029C080911801EBE9F1E0E4919FEF909321
:1021E0001801E130B9F098F0E230C9F49091700034
:1021F0009D7F9093700091E09093B0009091B1001A
:10220000987F94609093B1001092B30008C0109230
:102210006E0005C090916F009D7F90936F0060E00D
:102220000E944819FF91EF91BF91AF919F918F91BB
:102230007F916F915F914F913F912F910F900FBEC2
:102240000F901F901895DB0114964D915C91159796
:102250006D917C91DC01ED91FC910280F381E02D88
:1022600009941F920F920FB60F9211242F933F9350
:102270004F935F936F937F938F939F93AF93BF938E
:10228000EF93FF938CE992E00E94F00EFF91EF91A3
:10229000BF91AF919F918F917F916F915F914F917E
:1022A0003F912F910F900FBE0F901F9018951F9286
:1022B0000F920FB60F9211242F938F939F93EF934A
:1022C000FF93E091AC02F091AD028081E091B20207
:1022D000F091B30282FD12C090818091B5028F5FB0
:1022E0008F732091B602821751F0E091B502F0E0B1
:1022F000E456FD4F958F8093B50201C08081FF9118
:10230000EF919F918F912F910F900FBE0F901F9083
:102310001895E1E3F1E0659174918DEF91E00E94F1
:10232000A9228DEF91E00895CF93DF93EC018C818A
:102330000E941F192E8130E041E02817390709F06B
:1023400040E0842FDF91CF9108951F920F920FB636
:102350000F9211242F933F934F935F936F937F932B
:102360008F939F93AF93BF93EF93FF93E0918E0270
:10237000F0918F02309709F451C0968DA685B785EC
:10238000858591FF04C09C91892329F447C09C91C5
:10239000892309F043C0A389B4899C9185898095DC
:1023A00089238C93868997890197F1F7608D718DC8
:1023B000A685B785558538E020E0CB010197F1F778
:1023C000822F90E095958795282F4C91452309F011
:1023D0002068315091F7868D81FD209580918D0286
:1023E00090E001968F73992730918C02381749F04D
:1023F000A0918D02B0E0A45BBD4F2C9380938D0221
:1024000003C0868D8160868F828D938D0197F1F751
:10241000A389B4899C918589892B8C93FF91EF9135
:10242000BF91AF919F918F917F916F915F914F91EC
:102430003F912F910F900FBE0F901F901895E09134
:102440008E02F0918F02E817F90769F4A389B48925
:102450009C918589809589238C9310928F0210928C
:102460008E0281E0089580E00895CF92DF92EF928E
:10247000FF920F931F93CF93DF93EB017B0124E037
:10248000E20EF11C8B016C01C61AD70AC601800F3F
:10249000911F0E941123F80181938F01EE15FF0512
:1024A000A9F7CE01DF91CF911F910F91FF90EF908F
:1024B000DF90CF900895AF92BF92DF92EF92FF929C
:1024C0000F931F93CF93DF93EC017B018B015C0192
:1024D00084E0A80EB11CF801D1908F01CE010E94BA
:1024E0001123D81621F06D2DCE010E9419232196BB
:1024F000CA15DB0581F7C701DF91CF911F910F91BD
:10250000FF90EF90DF90BF90AF900895CF92DF9251
:10251000EF92FF92CF93DF9300D000D0CDB7DEB71C
:102520006B01BE016F5F7F4F8CE490E00E9435121B
:10253000E12CF12C89819A81AB81BC818C0D9D1D90
:10254000AE1DBF1D89839A83AB83BC83BE016F5FC1
:102550007F4F8CE490E00E945B12BE016F5F7F4F63
:1025600080E790E00E94351289819A81AB81BC811D
:10257000C80ED91EEA1EFB1EC982DA82EB82FC82DB
:10258000BE016F5F7F4F80E790E00E945B120F906B
:102590000F900F900F90DF91CF91FF90EF90DF9011
:1025A000CF900895AF92BF92CF92DF92EF92FF92B9
:1025B0000F931F93CF93DF93CDB7DEB728970FB656
:1025C000F894DEBF0FBECDBF5C018B01BE016B5F17
:1025D0007F4F8CE390E00E9435126801E12CF12CD2
:1025E0008D819E81AF81B8858C0D9D1DAE1DBF1D57
:1025F0008D839E83AF83B887BE016B5F7F4F8CE373
:1026000090E00E945B12BE016B5F7F4F80E690E01E
:102610000E9435128D819E81AF81B885C80ED91E6A
:10262000EA1EFB1ECD82DE82EF82F886BE016B5F62
:102630007F4F80E690E00E945B12BE016F5F7F4F8C
:1026400088E390E00E94351289819A81AB81BC8138
:102650000196A11DB11D89839A83AB83BC83BE0102
:102660006F5F7F4F88E390E00E945B12BE016F5F57
:102670007F4F8CE590E00E94351289819A81AB8171
:10268000BC810196A11DB11D89839A83AB83BC8354
:10269000BE016F5F7F4F8CE590E00E945B12BE0130
:1026A0006F5F7F4F84E190E00E94351289819A81AB
:1026B000AB81BC81089FB001099F700D189F700D00
:1026C0001124C5010E94861228960FB6F894DEBF29
:1026D0000FBECDBFDF91CF911F910F91FF90EF9073
:1026E000DF90CF90BF90AF900895EF92FF920F933D
:1026F0001F93CF93DF9300D000D0CDB7DEB77C011E
:1027000049835A836B837C838C01045F1F4FB8011C
:102710008CE090E00E945B12B70180E190E00E94A3
:102720005B12B7016C5F7F4F84E190E00E945B1207
:10273000B80188E190E00E945B12B701685F7F4FAB
:102740008CE190E00E945B12B701605F7F4F80E2F6
:1027500090E00E945B12B80180E390E00E945B125F
:10276000B80184E390E00E945B12B80188E390E036
:102770000E945B12B8018CE390E00E945B12B801EA
:1027800080E490E00E945B12B80184E490E00E9433
:102790005B12B8018CE490E00E945B12B80180E506
:1027A00090E00E945B12B80188E490E00E945B1206
:1027B000B80184E590E00E945B12B80188E590E0E2
:1027C0000E945B12B8018CE590E00E945B12B80198
:1027D00080E690E00E945B12B80184E690E00E94DF
:1027E0005B12B80188E690E00E945B12B80180E7B6
:1027F00090E00E945B12B80184E790E00E945B12B7
:10280000B8018CE690E00E945B12BE016F5F7F4FC3
:1028100084E290E00E945B12BE016F5F7F4F88E20E
:1028200090E00E945B12BE016F5F7F4F8CE290E0F0
:102830000E945B120F900F900F900F90DF91CF913D
:102840001F910F91FF90EF9008952FB7F89460912A
:10285000A2047091A3048091A4049091A5042FBFB9
:1028600028EE33E040E050E00E949C23CA01B90109
:102870000895CF92DF92EF92FF92CF93DF93EC0116
:102880006A017B018E85882329F08C819D81AE8130
:10289000BF810AC00E942514688379838A839B8341
:1028A0000E942514DC01CB018C0D9D1DAE1DBF1DAA
:1028B0008C839D83AE83BF8381E08E876D858C85FD
:1028C000DF91CF91FF90EF90DF90CF900C9448195B
:1028D000FC018081811102C00C942D1C813079F49F
:1028E0008FB7F8944091A2045091A3046091A4047E
:1028F0007091A5048FBF342F252FCB0104C08230E7
:1029000011F40C942514632F722F08950F931F93C5
:10291000CF93DF93EC010E9468140C811D812E81FE
:102920003F81DC01CB01801B910BA20BB30B08850F
:1029300019852A853B8580179107A207B307D8F030
:10294000CE010E9468146C837D838E839F8389816E
:10295000882389F09A81992371F09F3F29F08B8118
:10296000891748F48F5F8B83EC85FD85DF91CF91CC
:102970001F910F910994DF91CF911F910F910895AD
:102980001F920F920FB60F9211242F933F934F93E4
:102990005F936F937F938F939F93AF93BF93EF93C7
:1029A000FF938091B900887F803609F49CC068F558
:1029B000883209F45BC090F4803109F454C038F4D3
:1029C000882309F4F6C0883009F44DC0F6C0883178
:1029D00009F44CC0803209F45DC0EFC0803409F4C2
:1029E00068C048F4803309F455C0883309F0E5C065
:1029F0008093D901D8C0803509F44FC0883509F4D7
:102A00005DC0883409F0D9C0D6C0883909F4C7C080
:102A1000A8F4883709F467C038F4883609F463C02D
:102A2000803709F460C0C9C0883809F4B8C080395B
:102A300009F45FC0803809F0C0C05BC0803B09F476
:102A400086C038F4803A09F466C0883A09F47FC039
:102A5000B4C0803C09F4A7C0883C09F4A4C0883BFA
:102A600009F48AC0AAC08091FC0110C09091FB01BA
:102A70008091FA01981770F5E091FB0181E08E0FCB
:102A80008093FB01F0E0E652FE4F80818093BB0013
:102A900085EC86C08093D9018EC0E091FB0181E076
:102AA0008E0F8093FB018091BB00F0E0E652FE4F59
:102AB00080839091FB018091FA016EC0E091FB014F
:102AC00081E08E0F8093FB018091BB00F0E0E65225
:102AD000FE4F80838091950281116DC081E08093CB
:102AE000940284EA61C083E08093960210924B02C4
:102AF000CFCF80914B02803208F051C0E0914B0261
:102B000081E08E0F80934B028091BB00F0E0E55D89
:102B1000FD4F8083BDCF85EC8093BC001092960260
:102B200080914B02803230F4E0914B02F0E0E55DA1
:102B3000FD4F108260914B0270E0E0919002F091A5
:102B400091028BE292E0099510924B0236C084E02C
:102B50008093960210922A0210922902E09192022A
:102B6000F0919302099580912902811105C081E0BD
:102B70008093290210920902E0912A0281E08E0FCF
:102B800080932A02F0E0E75FFD4F80818093BB00D5
:102B900090912A0280912902981708F479CF85E84C
:102BA0008093BC000AC085EC8093BC001092960212
:102BB00004C01092D9010E942910FF91EF91BF919A
:102BC000AF919F918F917F916F915F914F913F91C5
:102BD0002F910F900FBE0F901F90189540912902D2
:102BE000262F30E0240F311D21323105DCF42091F5
:102BF00096022430C9F4FC0180E090E0861758F476
:102C0000309129022191DC01A75FBD4FA30FB11DB7
:102C10002C930196F3CF80912902680F60932902CB
:102C200080E0089581E0089582E008950E94DE2505
:102C30000F931F93CF93DF93EC01888199810097C5
:102C400029F02A813B812617370788F48B016F5FB3
:102C50007F4F0E941825009761F0998388831B831A
:102C60000A832C813D81232B11F4FC01108281E029
:102C700001C080E0DF91CF911F910F910895EF92F5
:102C8000FF920F931F93CF93DF936115710511F49A
:102C900080E01CC041155105C1F07B01EC018C8125
:102CA0009D818A01080F191FB801CE010E941816D4
:102CB000882371F3288139818C819D81B701820F2E
:102CC000931F0E94EC251D830C8381E0DF91CF913F
:102CD0001F910F91FF90EF900895CF93DF9300D055
:102CE000CDB7DEB769831A8241E050E0BE016F5F65
:102CF0007F4F0E943F160F900F90DF91CF91089564
:102D0000CF93DF93EC0188819981009711F00E94A5
:102D10008F24198218821D821C821B821A82DF91E5
:102D2000CF910895CF93DF93EC01FB01448155814E
:102D3000608171810E943F16811103C0CE010E9403
:102D40008016CE01DF91CF910895EF92FF920F93FD
:102D50001F93CF93DF93EC017B018A01BA010E949C
:102D60001816811104C0CE010E94801607C01D8371
:102D70000C83B701888199810E94EC25CE01DF91F7
:102D8000CF911F910F91FF90EF900895CF93DF9314
:102D9000EC016115710559F0FB0101900020E9F784
:102DA0003197AF01461B570B0E94A51602C00E9427
:102DB0008016CE01DF91CF910895CF93DF93EC0180
:102DC000FB018617970761F06081718161157105BC
:102DD00029F0448155810E94A51602C00E948016E8
:102DE000CE01DF91CF910895FC01808191810C94F7
:102DF0008F24CF92DF92EF92FF92CF93DF9300D098
:102E000000D0CDB7DEB76C01BE016F5F7F4F88E4A5
:102E100090E00E943512E12CF12C89819A81AB81DE
:102E2000BC818C0D9D1DAE1DBF1D89839A83AB8314
:102E3000BC83BE016F5F7F4F88E490E00E945B120D
:102E4000BE016F5F7F4F8CE690E00E943512898152
:102E50009A81AB81BC81C80ED91EEA1EFB1EC982B5
:102E6000DA82EB82FC82BE016F5F7F4F8CE690E0DE
:102E70000E945B120F900F900F900F90DF91CF91F7
:102E8000FF90EF90DF90CF9008950F931F93CF9313
:102E9000DF93CDB7DEB729970FB6F894DEBF0FBE2C
:102EA000CDBF8C01862FF80111821082138212820D
:102EB000158214824AE0BE016F5F7F4F90E00E944E
:102EC000E722BE016F5F7F4FC8010E94C616299698
:102ED0000FB6F894DEBF0FBECDBFDF91CF911F912B
:102EE0000F9108950F931F93CF93DF93CDB7DEB764
:102EF000A1970FB6F894DEBF0FBECDBF8C01CB01FA
:102F0000BA01F80111821082138212821582148292
:102F10002AE0AE014F5F5F4F0E94C522BE016F5F86
:102F20007F4FC8010E94C616A1960FB6F894DEBF67
:102F30000FBECDBFDF91CF911F910F910895CF9319
:102F4000DF932091E1033091E2038217930788F425
:102F5000C091DD03D091DE036091EE037091EF0329
:102F60008C0F9D1F0E94F325009719F08C1B9D0B61
:102F700002C08FEF9FEFDF91CF910895CF92DF9244
:102F8000EF92FF920F931F93CF93DF936C018B010E
:102F90007A014617570720F4812F8A01E62EF82E72
:102FA00062E871E0C6010E943E10C091E103D09139
:102FB000E2030C171D07E0F4EC16FD0608F4E70128
:102FC000E091DD03F091DE03EC0FFD1FF080108235
:102FD0006091DD037091DE03600F711FC6010E94D6
:102FE000C6168091DD039091DE03C80FD91FF882C9
:102FF000C601DF91CF911F910F91FF90EF90DF906D
:10300000CF900895CF92DF92EF92FF920F931F938C
:10301000CF93DF9300D000D000D0CDB7DEB78C01C6
:1030200062E871E0CE0101960E943E1010920C04FD
:1030300080910C0490E0F801248135818217930778
:1030400030F5408151814115510529F0FA01E80F11
:10305000F91F208101C020E0022E000C330B205309
:1030600031092A30310568F44115510529F0FA017A
:10307000E80FF91F608101C060E0CE0101960E9457
:103080006D1680910C048F5F80930C04D1CF8981E1
:103090009A81009729F00E9482226B017C0103C073
:1030A000C12CD12C7601CE0101960E94F416C701E5
:1030B000B60126960FB6F894DEBF0FBECDBFDF91E6
:1030C000CF911F910F91FF90EF90DF90CF900895D7
:1030D000833081F028F4813099F08230A1F0089596
:1030E0008730A9F08830B9F08430D1F48091800025
:1030F0008F7D03C0809180008F778093800008953A
:1031000084B58F7702C084B58F7D84BD089580918A
:10311000B0008F7703C08091B0008F7D8093B000A6
:103120000895EF92FF920F931F93CF93DF938C013B
:10313000EB017A018C818093570380915703803192
:1031400060F4F7014481558160817181CE010E9454
:103150003F16809157038F5FEECFF80111821082E6
:1031600013821282158214828881998191838083CF
:103170008A819B81938382838C819D8195838483C3
:10318000198218821B821A821D821C82C801DF915B
:10319000CF911F910F91FF90EF900895CF93DF9300
:1031A000CDB7DEB728970FB6F894DEBF0FBECDBF00
:1031B00098E0EDE6F1E0DE01119601900D929A950E
:1031C000E1F790915303961710F46FEF690FFE012A
:1031D0003196E60FF11DE60FF11D6081680F606802
:1031E00040E08BE493E028960FB6F894DEBF0FBE64
:1031F000CDBFDF91CF910C94E4048230F8F4E82F36
:10320000F0E0EE0FFF1FEC5EFE4F2CE433E0318365
:103210002083813041F0809169008C7F682B60931E
:103220006900E89A089580916900837F660F771F8F
:10323000660F771F682B60936900E99A0895CF9312
:10324000DF93282F30E0F901E957FE4F8491F9010F
:10325000E759FE4FD491F901EB5AFE4FC491CC23AC
:1032600091F081110E946818EC2FF0E0EE0FFF1F23
:10327000EF5BFE4FA591B491EC91ED2381E090E0DE
:1032800021F480E002C080E090E0DF91CF910895CA
:103290001F93CF93DF93282F30E0F901E957FE4FBA
:1032A0008491F901E759FE4FD491F901EB5AFE4F91
:1032B000C491CC23C1F0162F81110E946818EC2F05
:1032C000F0E0EE0FFF1FE55BFE4FA591B4919FB7B5
:1032D000F894111104C08C91D095D82302C0EC91C0
:1032E000DE2BDC939FBFDF91CF911F910895CF9389
:1032F000DF9390E0FC01E759FE4F2491FC01EB5A6B
:10330000FE4F8491882361F190E0880F991FFC01A2
:10331000E358FE4FC591D491FC01E55BFE4FA591AA
:10332000B491611109C09FB7F894888120958223D8
:103330008883EC912E230BC0623061F49FB7F89420
:103340008881322F309583238883EC912E2B2C9308
:103350009FBF06C08FB7F894E8812E2B28838FBFBC
:10336000DF91CF9108952F923F924F925F926F928B
:103370007F928F929F92AF92BF92CF92DF92EF9205
:10338000FF920F931F93CF93DF9300D000D01F9233
:10339000CDB7DEB720902C0430902D04C101A0E001
:1033A000B0E089839A83AB83BC8300912A04109197
:1033B0002B048091290490911801891721F09F3FD7
:1033C00009F033C205C0EBE9F1E094919D837CC024
:1033D00080931801EBE9F1E0A491AD83AF3F09F4CC
:1033E00024C2A13009F449C058F1A23009F06CC0E0
:1033F0001092B0001092B1009091B0009260909342
:10340000B0009091B10091609093B100282F30E00E
:10341000F901EB5AFE4FE491F0E0EE0FFF1FE55B80
:10342000FE4F459154915093A8044093A704F9018D
:10343000E759FE4FE491E093A60422E02D83F1C109
:1034400014BC15BC94B5926094BD95B5916095BDC2
:10345000282F30E0F901EB5AFE4FE491F0E0EE0F37
:10346000FF1FE55BFE4F45915491F901E759FE4F6F
:10347000E491E093B3041D82D4C1109280001092B5
:1034800081009091810098609093810090918100DB
:10349000916090938100282F30E0F901EB5AFE4FA4
:1034A000E491F0E0EE0FFF1FE55BFE4F4591549174
:1034B000F901E759FE4FE491E093B20461E00E9404
:1034C0007719B1E0BD83B4C09D8197FDAEC161E0C5
:1034D0000E9477198D818D7F09F0AAC04801A12C27
:1034E000B12C60E072E18AE790E0A50194010E94AE
:1034F000BE2329013A0169017A01A1E0CA1AD10863
:10350000E108F108BFEFCB16D104E104F10409F0A2
:1035100008F44DC060E472E48FE090E0A5019401EE
:103520000E94BE2369017A0181E0C81AD108E1082E
:10353000F1089D81923001F5AFEFCA16D104E10484
:10354000F10409F008F405C160E970ED83E090E052
:10355000A50194010E94BE2369017A01B1E0CB1A52
:10356000D108E108F1082FEFC216D104E104F104FB
:1035700009F040F583E055C08FEFC816D104E1048F
:10358000F104B9F0B0F068E478EE81E090E0A501D4
:1035900094010E94BE2369017A0191E0C91AD10801
:1035A000E108F108AD81AA2309F4D5C031C181E059
:1035B00001C082E09D81911134C095B5987F892B1F
:1035C00085BD75C068E478EE81E090E0A5019401C6
:1035D0000E94BE2369017A01A1E0CA1AD108E1085C
:1035E000F108BFEFCB16D104E104F10409F008F4AF
:1035F000AEC064E274EF80E090E0A50194010E9407
:10360000BE2369017A01B1E0CB1AD108E108F108C3
:103610002FEFC216D104E104F10411F008F0CEC07E
:1036200085E09091B100987F892B8093B1003FC0D5
:103630004801A12CB12C60E072E18AE790E0A5017D
:1036400094010E94BE2369017A01A1E0CA1AD1083F
:10365000E108F108C114D104B1E0EB06F10488F0EF
:1036600068E478EE81E090E0A50194010E94BE2319
:1036700069017A0181E0C81AD108E108F10883E004
:1036800001C081E09D81913091F490918100987FFB
:10369000892B8093810089819A81AB81BC81892BA0
:1036A0008A2B8B2B61F42FEF3FEFA9012EC089816C
:1036B0009A81AB81BC81892B8A2B8B2B69F0D80135
:1036C000AA0FBB1F91010E94692328EE33E040E05E
:1036D00050E00E949C2303C02FEF3FEFA9019D8182
:1036E000913099F0923019F191119FC0C7BC20938D
:1036F000B8043093B9044093BA045093BB0480914A
:103700006E00826080936E0090C0D0928900C0925B
:1037100088002093B4043093B5044093B6045093CA
:10372000B70480916F00826080936F007EC0C0926A
:10373000B3002093A9043093AA044093AB045093A0
:10374000AC04809170008260809370006EC084E051
:1037500068CF82E066CFBFEFCB16D104E104F1045D
:1037600059F150F162E17AE780E090E0A50194011F
:103770000E94BE2369017A0191E0C91AD108E108CB
:10378000F108AFEFCA16D104E104F10499F090F00A
:10379000D301C2013AE0B595A795979587953A95DB
:1037A000D1F76C017D0121E0C21AD108E108F108CE
:1037B00085E003CF84E001CF83E0FFCE62E17AE7CA
:1037C00080E090E0A50194010E94BE2369017A0186
:1037D00081E0C81AD108E108F1088FEFC816D104BA
:1037E000E104F10499F090F0D301C2012AE0B5950B
:1037F000A795979587952A95D1F76C017D0121E0D2
:10380000C21AD108E108F10887E00BCF86E009CFA2
:103810009FEFC916D104E104F10409F078F684E0C1
:10382000C9CE61E00E94771959CE0F900F900F908A
:103830000F900F90DF91CF911F910F91FF90EF901C
:10384000DF90CF90BF90AF909F908F907F906F90C0
:103850005F904F903F902F9008953FB7F8948091DC
:10386000AE049091AF04A091B004B091B10426B51C
:10387000A89B05C02F3F19F00196A11DB11D3FBFA8
:10388000BA2FA92F982F8827820F911DA11DB11D36
:10389000BC01CD0142E0660F771F881F991F4A9532
:1038A000D1F708958F929F92AF92BF92CF92DF92FD
:1038B000EF92FF926B017C010E942D1C4B015C0179
:1038C000C114D104E104F104F1F00E942D1CDC01CB
:1038D000CB0188199909AA09BB09883E9340A10523
:1038E000B10570F321E0C21AD108E108F10888EEB1
:1038F000880E83E0981EA11CB11CC114D104E10400
:10390000F10419F7DDCFFF90EF90DF90CF90BF90DB
:10391000AF909F908F9008951F920F920FB60F92C5
:1039200011242F933F938F939F93AF93BF938091D5
:10393000A2049091A304A091A404B091A504309195
:10394000AD0423E0230F2D3720F40196A11DB11DF6
:1039500005C026E8230F0296A11DB11D2093AD04DA
:103960008093A2049093A304A093A404B093A5040D
:103970008091AE049091AF04A091B004B091B104D5
:103980000196A11DB11D8093AE049093AF04A09346
:10399000B004B093B104BF91AF919F918F913F91CB
:1039A0002F910F900FBE0F901F9018958F929F929E
:1039B000AF92BF92CF92DF92EF92FF920F931F933D
:1039C000CF93DF938C016A017B01C8E5D3E084E1EA
:1039D000FE0111928A95E9F78CE3882E912CA12C97
:1039E000B12CCB01BA01A50194010E949C237F93C5
:1039F0006F93CA01B901A50194010E949C237F9392
:103A00006F93C701B60120E13EE040E050E00E9424
:103A10009C231F922F9387E891E09F938F93DF93CE
:103A2000CF930E940D26BE01C8010E943E10EDB743
:103A3000FEB73A960FB6F894FEBF0FBEEDBFC801B1
:103A4000DF91CF911F910F91FF90EF90DF90CF907A
:103A5000BF90AF909F908F900895CF93DF9385E4B0
:103A600093E00E94F416CCEBD3E08FE591E09983CC
:103A700088838EEE93E00E94F4168DED93E00E9411
:103A8000F4168FE591E099838883CE01DF91CF9181
:103A90000C941F12FC01862F158216821782108645
:103AA00011861286138614861586168617864CEDA7
:103AB00055E060E070E0408B518B628B738B8483A8
:103AC00062E00C947719CF93DF93EC01862F188274
:103AD00019821A821B821C821D821E821F821886F6
:103AE00019861A861B861D861E866C8761E00E94D9
:103AF00077196D8581E068278C85DF91CF910C94D3
:103B00004819CF93DF93CDB7DEB728970FB6F89457
:103B1000DEBF0FBECDBF789484B5826084BD84B50E
:103B2000816084BD85B5826085BD85B5816085BDB8
:103B300080916E00816080936E0010928100809170
:103B400081008260809381008091810081608093F8
:103B50008100809180008160809380008091B1001D
:103B600084608093B1008091B00081608093B00048
:103B700080917A00846080937A0080917A008260DC
:103B800080937A0080917A00816080937A0080919E
:103B90007A00806880937A001092C100BE016F5F46
:103BA0007F4F84E090E00E94351289819A81AB8139
:103BB000BC810197A105B10531F147E559EE62E0FD
:103BC00070E080E091E00E94751389E190E0A0E050
:103BD000B0E089839A83AB83BC83BE016F5F7F4F64
:103BE00088E090E00E945B1281E090E0A0E0B0E00D
:103BF0008D839E83AF83B887BE016B5F7F4F84E068
:103C000090E00E945B120E94B319E091AC02F09127
:103C1000AD0282E08083E091A802F091A9021082B7
:103C2000E091AA02F091AB028FEC80831092B40273
:103C3000E091B002F091B10286E08083E091AE02A3
:103C4000F091AF02808180618083E091AE02F091BB
:103C5000AF02808188608083E091AE02F091AF0274
:103C6000808180688083E091AE02F091AF02808114
:103C70008F7D808382EF98E09093F5038093F40327
:103C80001092D7031092D6031092D5031092D4034A
:103C90001092D3031092D2038DE991E09093D9034F
:103CA0008093D8039091C803963108F058C02DEB4B
:103CB00030E03093D3032093D2032BE931E03093EB
:103CC000D5032093D4032CE231E03093D703209323
:103CD000D60340916800983058F031E09E3008F4E7
:103CE00030E021E0822F01C0880F3A95EAF701C049
:103CF00084E0842B80936800983038F09E3040F048
:103D0000963148F020E030E008C02DE630E005C0F4
:103D10002BE630E002C02CE630E03093D003209355
:103D2000CF03983030F481E001C0880F9A95EAF70C
:103D30000EC0292F30E09E3018F42850310902C0FF
:103D40002E50310981E001C0880F2A95EAF780934F
:103D5000D1038091D8039091D9030197F1F7809115
:103D6000D6039091D703892B21F180918E029091F7
:103D70008F0223E08C3B9207E1F0009711F00E9444
:103D80001F128091DA038E7F8093DA0310928D02E6
:103D900010928C028CEB93E090938F0280938E02B2
:103DA000E091CF03F091D00390818091D103892BD2
:103DB000808310929A0210929902109298021092A7
:103DC00097021092960281E08093950210929402DD
:103DD00061E082E10E94481961E083E10E94481994
:103DE0008091B9008E7F8093B9008091B9008D7F5A
:103DF0008093B90088E48093B80085E48093BC0088
:103E000083E390E1909393028093920284E390E1A4
:103E100090939102809390021092500380915503E9
:103E2000823018F098E0909350038093530362E33C
:103E300070E080E090E00E94521C609156038BE499
:103E400093E00E94670468EE73E080E090E00E94D7
:103E5000521C60E38BE493E00E94CB040BE416E475
:103E6000C8010197F1F760E38BE493E00E94CB0473
:103E7000C8010197F1F760E38BE493E00E94CB0463
:103E800083E592E00197F1F760E28BE493E00E9412
:103E9000CB0460915003606240E08BE493E00E94A9
:103EA000E40484E08093510340E06CE08BE493E011
:103EB0000E94E40440E061E08BE493E00E94E404AB
:103EC0000BE31FE1C8010197F1F782E080935203F1
:103ED00040E066E08BE493E00E94E40440E062E0AE
:103EE0008BE493E00E94E404C8010197F1F788E0B5
:103EF0008093560360E08BE493E00E946704809116
:103F0000270490912604882361F0923021F09330A9
:103F100021F08FEF03C080E001C081E063E070E03A
:103F200009C0923029F0933011F08FEF01C081E089
:103F300062E070E00E94FD188EE294E09093DC0352
:103F40008093DB0388EE93E0A0E0B0E080939C04D4
:103F500090939D04A0939E04B0939F048FEF809351
:103F6000960420EF38E03093A1042093A00449E1A7
:103F700050E060E070E040938E0450938F046093B3
:103F8000900470939104809388042DE733E030937C
:103F900093042093920440E157E260E070E0409384
:103FA000800450938104609382047093830480930F
:103FB0007A042DEB31E0309385042093840440E6AD
:103FC0005AEE60E070E04093720450937304609383
:103FD00074047093750480936C0489EB91E0909362
:103FE00077048093760481E080939504809387041E
:103FF0008093790480936B0480E094E143EF51E077
:1040000025E831E0989FF0011124E459FC4F5183D9
:104010004083338322838F5F8430A1F780939B0298
:104020009FE088E10FB6F894A895809360000FBEDA
:104030009093600084E994E00E94861486E894E0FE
:104040000E94861488E794E00E9486148AE694E031
:104050000E9486148CEB93E00E94F00F892BE9F00C
:104060008CEB93E00E94F00F892BB9F08CEB93E07E
:104070000E940810182F682F8DED93E00E946D1696
:104080001A3059F4E091F403F091F503099562E8D0
:1040900071E08DED93E00E94C616A8950E94810FF5
:1040A000C9CFCF92DF92EF92FF921F93CF93DF930E
:1040B000CDB7DEB765970FB6F894DEBF0FBECDBFA4
:1040C00010929F0210929E0298EEC92E93E0D92E74
:1040D000E12CF12CC092A002D092A102E092A202A7
:1040E000F092A30283E291E090939D0280939C0260
:1040F00085EC90E09093A9028093A80284EC90E074
:104100009093AB028093AA0280EC90E09093AD0272
:104110008093AC0281EC90E09093AF028093AE026A
:1041200082EC90E09093B1028093B00286EC90E034
:104130009093B3028093B2021092B5021092B6022D
:104140001092B7021092B80210923C0310923B03F7
:10415000C0923D03D0923E03E0923F03F0924003B1
:1041600085E391E090933A0380933903109295048C
:104170001092960410929704109298041092990449
:1041800010929A0410929B0410929C0410929D0429
:1041900010929E0410929F041092A1041092A00409
:1041A00011E01093940410928704109288041092E6
:1041B000890410928A0410928B0410928C0410923D
:1041C0008D0410928E0410928F041092900410921D
:1041D000910410929304109292041093860410920A
:1041E000790410927A0410927B0410927C0410924D
:1041F0007D0410927E0410927F041092800410922D
:10420000810410928204109283041092850410920B
:1042100084041093780410926B0410926C04109232
:104220006D0410926E0410926F041092700410923C
:10423000710410927204109273041092740410921C
:104240007504109277041092760410936A046EE05D
:104250008EE294E00E94631D6FE08DE394E00E9483
:10426000631D60E18CE494E00E94631D61E18BE5D5
:1042700094E00E94631D8DE08093290483E597E01C
:1042800090932B0480932A0482E390E090932D0472
:1042900080932C0461E08DE00E9477191092220433
:1042A000109221048FE090E09093240480932304E3
:1042B000109227041092280482E080932604109321
:1042C000250462E00E9477191092BF031092BE038A
:1042D000C092C003D092C103E092C203F092C30324
:1042E0008FE591E09093BD038093BC031092D303BC
:1042F0001092D2031092D5031092D4031092D703D8
:104300001092D6031092D9031092D8036091DA0369
:104310006E7F6D7F6093DA0366956170612788E038
:104320000E94481961E088E00E947719E1E7F1E016
:10433000E491E093CC03EDE5F1E0E491F0E0EE0FE1
:10434000FF1FE55BFE4F859194919093CE03809380
:10435000CD0360E089E00E9477198091DA0381FD46
:1043600004C061E089E00E94481989E08093C80395
:10437000E2E7F1E0E491E093C903EEE5F1E0E491D6
:10438000F0E0EE0FFF1FEF5BFE4F8591949190934D
:10439000CB038093CA038FE591E09093BD03809394
:1043A000BC0362E871E08DED93E00E943E10109234
:1043B000E3031092E4031092E5031092E6031092D7
:1043C000E7031092E8031092E9031092EA031092B7
:1043D000EB031092EC031092ED0363E871E08EEEB4
:1043E00093E00E943E101092F6031092F70324E12E
:1043F000CE010196DC01E22F1D92EA95E9F740E437
:1044000052EE61E070E049835A836B837C8344EB16
:1044100050E060E070E04D835E836F83788748E80A
:1044200053E160E070E049875A876B877C874CEDE9
:1044300055E060E070E0498B5A8B6B8B7C8BFC0104
:10444000A8EFB3E001900D922A95E1F715E1DC01A8
:10445000E12F1D92EA95E9F7FC01ACE0B4E0812F71
:1044600001900D928A95E1F760E270E08DED93E0A6
:104470000E94181663E871E08EEE93E00E94C61663
:1044800064E08CE693E00E944A1D65E080E893E0DA
:104490000E944A1D66E084E993E00E944A1D67E09D
:1044A00088EA93E00E944A1DE7E5F3E0DF011D92F0
:1044B0001A95E9F710924E0310924D0387E491E0AC
:1044C00090934C0380934B0387E280934F0389E1E1
:1044D0008093540384E0809355031092560365E85B
:1044E00071E085E493E065960FB6F894DEBF0FBEE9
:1044F000CDBFDF91CF911F91FF90EF90DF90CF90D4
:104500000C943E101F93FC0199278827BC01E89466
:1045100011911032E9F3193010F01E30C8F31B323C
:1045200051F01D3249F4689406C00E94B022610F18
:10453000711D811D911D119110531A30B0F33EF47D
:1045400090958095709561957F4F8F4F9F4F1F91EC
:104550000895FB01DC0105900D920020E1F708951C
:10456000592F482F372F262F660F771F881F991F27
:10457000660F771F881F991F620F731F841F951F77
:10458000660F771F881F991F0895BB27FA01A62F72
:104590006217710581059105330B30FB66F0AA2780
:1045A000660F771F881F991FAA1FA21710F0A21B62
:1045B00063953850A9F7A05DAA3308F0A95DA193CF
:1045C00036F7B111B1931082CA010C940123BB27B5
:1045D000FB015527AA27880F991FAA1FA41710F0BF
:1045E000A41B83955051B9F7A05DAA3308F0A95DCB
:1045F000A193009779F7B111B1931192CB010C946B
:104600000123DC01FC01672F71917723E1F73297D9
:1046100004C07C916D9370836291AE17BF07C8F39D
:104620000895F999FECF92BD81BDF89A992780B57A
:104630000895262FF999FECF1FBA92BD81BD20BDE6
:104640000FB6F894FA9AF99A0FBE019608950E944F
:104650006923A59F900DB49F900DA49F800D911D7F
:10466000112408952F923F924F925F926F927F9202
:104670008F929F92AF92BF92CF92DF92EF92FF9272
:104680000F931F93CF93DF93CDB7DEB7CA1BDB0B1E
:104690000FB6F894DEBF0FBECDBF09942A883988C3
:1046A00048885F846E847D848C849B84AA84B984CA
:1046B000C884DF80EE80FD800C811B81AA81B981D6
:1046C000CE0FD11D0FB6F894DEBF0FBECDBFED01EA
:1046D0000895A29FB001B39FC001A39F700D811DDB
:1046E0001124911DB29F700D811D1124911D0895FB
:1046F000DB018F939F930E942723BF91AF91A29FCD
:10470000800D911DA39F900DB29F900D11240895CF
:1047100097FB072E16F4009407D077FD09D00E946E
:10472000E32307FC05D03EF4909581959F4F0895B3
:10473000709561957F4F0895A1E21A2EAA1BBB1BAD
:10474000FD010DC0AA1FBB1FEE1FFF1FA217B3075D
:10475000E407F50720F0A21BB30BE40BF50B661F73
:10476000771F881F991F1A9469F760957095809537
:1047700090959B01AC01BD01CF010895052E97FBDB
:104780001EF400940E94D52357FD07D00E949C235D
:1047900007FC03D04EF40C94D523509540953095EA
:1047A00021953F4F4F4F5F4F08959095809570959D
:1047B00061957F4F8F4F9F4F0895EE0FFF1F05901C
:1047C000F491E02D0994AA1BBB1B51E107C0AA1F5D
:1047D000BB1FA617B70710F0A61BB70B881F991FA2
:1047E0005A95A9F780959095BC01CD0108950F9336
:1047F0001F93CF93DF938230910510F482E090E015
:10480000E091BE04F091BF0420E030E0A0E0B0E011
:10481000309719F14081518102811381481759075E
:10482000C8F08417950769F4109731F012960C932D
:10483000129713961C9327C00093BE041093BF04D5
:1048400022C02115310519F04217530718F49A01B7
:10485000BD01EF01DF01F801DBCF21153105F9F0D2
:10486000281B390B2430310580F48A819B81611526
:10487000710521F0FB019383828304C09093BF04F0
:104880008093BE04FE01329644C0FE01E20FF31F86
:104890008193919322503109398328833AC0209122
:1048A000BC043091BD04232B41F420911B013091B5
:1048B0001C013093BD042093BC0420911901309158
:1048C0001A012115310541F42DB73EB740911D0164
:1048D00050911E01241B350BE091BC04F091BD04E6
:1048E000E217F307A0F42E1B3F0B2817390778F0C7
:1048F000AC014E5F5F4F2417350748F04E0F5F1F26
:104900005093BD044093BC048193919302C0E0E0B6
:10491000F0E0CF01DF91CF911F910F910895CF93D8
:10492000DF93009709F481C0FC0132971382128251
:10493000A091BE04B091BF04109781F42081318111
:10494000820F931F2091BC043091BD0428173907B2
:1049500051F5F093BD04E093BC0467C0ED0120E085
:1049600030E0CE17DF0740F44A815B819E0141159C
:104970005105F1F0EA01F5CFD383C2834081518123
:10498000840F951FC817D90759F488819981840F1E
:10499000951F0296918380838A819B819383828372
:1049A0002115310529F4F093BF04E093BE043DC006
:1049B000E901FB83EA8349915991C40FD51FEC1794
:1049C000FD0761F480819181840F951F0296E901B2
:1049D00099838883828193819B838A83E0E0F0E0DE
:1049E00012968D919C911397009719F0FD01DC01AF
:1049F000F7CF8D919C9111979D012E5F3F4F820FB4
:104A0000931F2091BC043091BD042817390769F425
:104A1000309729F41092BF041092BE0402C0138292
:104A20001282B093BD04A093BC04DF91CF9108958E
:104A3000A0E0B0E0EEE1F5E20C943623EC01009743
:104A400021F4CB010E94F723B4C0FC01E60FF71F4D
:104A50009C0122503109E217F30708F4A8C0D901DC
:104A60000D911C91119706171707B0F0053011052D
:104A700008F49BC0C80104978617970708F495C0EF
:104A800002501109061B170B019311936D937C9330
:104A9000CF010E948F2489C05B01A01AB10A4C018A
:104AA000800E911EA091BE04B091BF04612C712CA8
:104AB000E12CF12C109709F446C08D919C9111972F
:104AC000A815B905B1F56C0142E0C40ED11CCA1499
:104AD000DB0478F14C018A189B08640142E0C40EA3
:104AE000D11C1296BC9012971396AC91B5E0CB16E0
:104AF000D10440F0B282A38391828082D9016D9368
:104B00007C9309C00E5F1F4F800F911FF9019183A5
:104B10008083EB2DFA2FE114F10431F0D7011396C5
:104B2000FC93EE93129741C0F093BF04E093BE0450
:104B30003CC06816790608F43C017D0112960D9080
:104B4000BC91A02DB7CF8091BC049091BD04881674
:104B50009906E1F466167706C8F4809119019091E0
:104B60001A01009741F48DB79EB740911D015091F5
:104B70001E01841B950BE817F907C8F4F093BD04D8
:104B8000E093BC04F901718360830FC0CB010E94E4
:104B9000F7237C01009759F0A801BE010E94E3258C
:104BA000CE010E948F24C70104C0CE0102C080E064
:104BB00090E0CDB7DEB7EEE00C94522381E090E0B8
:104BC000F8940C94C028FB01DC0102C001900D9206
:104BD00041505040D8F70895FB01DC0101900D923F
:104BE0000020E1F70895FB0151915523A9F0BF0181
:104BF000DC014D9145174111E1F759F4CD010190C8
:104C0000002049F04D9140154111C9F3FB014111BC
:104C1000EFCF81E090E001970895AEE0B0E0E3E1EE
:104C2000F6E20C9440230D891E8986E08C831A835A
:104C300009838FEF9FE79E838D83AE01475E5F4FB1
:104C40006F89788DCE0101960E942F26EF81F8851D
:104C5000E00FF11F10822E96E4E00C945C23ABE091
:104C6000B0E0E5E3F6E20C9432236C017B018A01AB
:104C7000FC0117821682838181FFCCC1CE0101968F
:104C80003C01F6019381F70193FD859193FF81919A
:104C90007F01882309F4BAC1853239F493FD8591E7
:104CA00093FF81917F01853229F4B60190E00E9443
:104CB0002628E7CF912C212C312CFFE1F315D8F0D9
:104CC0008B3279F038F4803279F08332A1F4232DDD
:104CD00020611DC08D3261F0803369F4232D216085
:104CE00016C0832D8260382EE32DE4603E2E2AC04C
:104CF000F32DF8601DC037FC2DC020ED280F2A30A1
:104D000040F08E32B9F436FC81C1232D2064322E5E
:104D100019C036FE06C08AE0989E200D1124922EFE
:104D200011C0EAE02E9E200D1124222EF32DF062F8
:104D30003F2E08C08C3621F4832D8068382E02C0A7
:104D4000883641F4F70193FD859193FF81917F01AE
:104D50008111B3CF982F9F7D9554933028F40C5F29
:104D60001F4F9FE399830DC0833631F0833771F075
:104D7000833509F059C021C0F801808189830E5F15
:104D80001F4F88248394912C530113C02801F2E013
:104D90004F0E511CF801A080B18036FE03C0692D72
:104DA00070E002C06FEF7FEFC5010E941B284C012D
:104DB0008201F32DFF773F2E16C0280122E0420E1C
:104DC000511CF801A080B18036FE03C0692D70E04F
:104DD00002C06FEF7FEFC5010E9410284C01F32D38
:104DE000F0683F2E820133FC1BC0822D90E08816B4
:104DF0009906B0F4B60180E290E00E9426282A9439
:104E0000F4CFF50137FC859137FE81915F01B60142
:104E100090E00E94262821102A9421E0821A91080D
:104E20008114910471F7E8C0843611F0893641F598
:104E3000F80137FE07C060817181828193810C5F28
:104E40001F4F08C060817181072E000C880B990BE1
:104E50000E5F1F4FF32DFF763F2E97FF09C09095F1
:104E60008095709561957F4F8F4F9F4FF0683F2ED3
:104E70002AE030E0A3010E946228882E861845C0EF
:104E8000853731F4232D2F7EB22E2AE030E025C065
:104E9000932D997FB92E8F36C1F018F4883579F0AB
:104EA000B5C0803719F0883721F0B0C0E92FE06134
:104EB000BE2EB4FE0DC0FB2DF460BF2E09C034FE23
:104EC0000AC0292F2660B22E06C028E030E005C0B7
:104ED00020E130E002C020E132E0F801B7FE07C077
:104EE00060817181828193810C5F1F4F06C0608158
:104EF000718180E090E00E5F1F4FA3010E94622845
:104F0000882E8618FB2DFF773F2E36FE0DC0232DF1
:104F10002E7FA22E891458F434FE0BC032FC09C037
:104F2000832D8E7EA82E05C0B82CA32C03C0B82CD0
:104F300001C0B92CA4FE0FC0FE01E80DF11D808157
:104F4000803321F49A2D997EA92E09C0A2FE06C0B5
:104F5000B394B39404C08A2D867809F0B394A3FC6B
:104F600011C0A0FE06C0B21488F4280C922C9B1825
:104F70000EC0B21460F4B60180E290E00E942628D0
:104F8000B394F7CFB21418F42B1802C0982C212C2C
:104F9000A4FE10C0B60180E390E00E942628A2FE85
:104FA00017C0A1FC03C088E790E002C088E590E04C
:104FB000B6010CC08A2D867859F0A1FE02C08BE2A2
:104FC00001C080E2A7FC8DE2B60190E00E94262895
:104FD000891438F4B60180E390E00E9426289A9460
:104FE000F7CF8A94F301E80DF11D8081B60190E0BE
:104FF0000E9426288110F5CF222009F442CEB60166
:1050000080E290E00E9426282A94F6CFF60186815D
:10501000978102C08FEF9FEF2B96E2E10C944E2315
:10502000FC010590615070400110D8F78095909573
:105030008E0F9F1F0895FC01615070400190011078
:10504000D8F7809590958E0F9F1F08950F931F930B
:10505000CF93DF93FB01238121FD03C08FEF9FEFEF
:105060002CC022FF16C0468157812481358142170A
:10507000530744F4A081B1819D012F5F3F4F3183DD
:1050800020838C93268137812F5F3F4F3783268380
:1050900014C08B01EC01FB010084F185E02D099522
:1050A000892BE1F6D80116968D919C911797019660
:1050B00017969C938E931697CE01DF91CF911F91F7
:1050C0000F910895FA01AA27283051F1203181F17A
:1050D000E8946F936E7F6E5F7F4F8F4F9F4FAF4F00
:1050E000B1E03ED0B4E03CD0670F781F891F9A1F13
:1050F000A11D680F791F8A1F911DA11D6A0F711DC7
:10510000811D911DA11D20D009F468943F912AE0D2
:10511000269F11243019305D3193DEF6CF010895BA
:10512000462F4770405D4193B3E00FD0C9F7F6CFEB
:10513000462F4F70405D4A3318F0495D31FD4052B3
:10514000419302D0A9F7EACFB4E0A6959795879549
:1051500077956795BA95C9F7009761057105089528
:105160009B01AC010A2E06945795479537952795D4
:10517000BA95C9F7620F731F841F951FA01D08956C
:1051800010E0CFECD0E004C0FE010E94DD232196A8
:0A519000C03DD107C9F7F894FFCF26
:10519A0040E20100B4000000881300000000000093
:1051AA00DC0500007E0E7E0EFF0000C004800000B9
:1051BA00000000120F7F0EA90E5F0FDA0EB80ECC98
:1051CA000E000000005601290126019F0F1D01094A
:1051DA0001FA0000000000FB047F0E2601250100F1
:1051EA0000000016167F0E2601250100000000A00F
:1051FA000F7F0E26019F0FF00F0810870F00004047
:10520A00001400540025642E3030003E3E003C3C21
:10521A00000A002C002000253032643A253032641E
:06522A003A253032640059
:107E0000112484B714BE81FFF0D085E080938100F7
:107E100082E08093C00088E18093C10086E0809377
:107E2000C20080E18093C4008EE0C9D0259A86E02C
:107E300020E33CEF91E0309385002093840096BBD3
:107E4000B09BFECF1D9AA8958150A9F7CC24DD24C4
:107E500088248394B5E0AB2EA1E19A2EF3E0BF2EE7
:107E6000A2D0813461F49FD0082FAFD0023811F036
:107E7000013811F484E001C083E08DD089C08234E0
:107E800011F484E103C0853419F485E0A6D080C0E4
:107E9000853579F488D0E82EFF2485D0082F10E0AE
:107EA000102F00270E291F29000F111F8ED06801E7
:107EB0006FC0863521F484E090D080E0DECF843638
:107EC00009F040C070D06FD0082F6DD080E0C81688
:107ED00080E7D80618F4F601B7BEE895C0E0D1E017
:107EE00062D089930C17E1F7F0E0CF16F0E7DF06D8
:107EF00018F0F601B7BEE89568D007B600FCFDCFD4
:107F0000A601A0E0B1E02C9130E011968C91119780
:107F100090E0982F8827822B932B1296FA010C0160
:107F200087BEE89511244E5F5F4FF1E0A038BF0790
:107F300051F7F601A7BEE89507B600FCFDCF97BE46
:107F4000E89526C08437B1F42ED02DD0F82E2BD052
:107F50003CD0F601EF2C8F010F5F1F4F84911BD097
:107F6000EA94F801C1F70894C11CD11CFA94CF0C13
:107F7000D11C0EC0853739F428D08EE10CD085E9AC
:107F80000AD08FE07ACF813511F488E018D01DD067
:107F900080E101D065CF982F8091C00085FFFCCF94
:107FA0009093C60008958091C00087FFFCCF809118
:107FB000C00084FD01C0A8958091C6000895E0E648
:107FC000F0E098E1908380830895EDDF803219F02E
:107FD00088E0F5DFFFCF84E1DECF1F93182FE3DFCA
:107FE0001150E9F7F2DF1F91089580E0E8DFEE27F6
:047FF000FF270994CA
:027FFE00040479
:0400000300007E007B
:00000001FF
