:100000000C94A8000C94F4070C94CD070C941F09D1
:100010000C941F090C941F090C94D0000C941B081D
:100020000C94D0000C94D0000C94D0000C94D00010
:100030000C94D0000C94D0000C94D0000C94D00000
:100040000C94681C0C94D0000C94D1080C94AB0850
:100050000C94D0000C94D0000C94D0000C94D000E0
:100060000C94850B0C94D000284C696D69742900A0
:10007000506F7765720043726564697400536572EE
:10008000766500436F696E73005472616E73004C45
:1000900069666574696D650043757272656E74009A
:1000A000467265650054696D6500566163616E74E2
:1000B00000436F696E005465726D696E616C00502B
:1000C00068696C697070696E657300412E522E54B8
:1000D0002E5300CB00BF00B600B100AA00A500A0BF
:1000E0000098008F00890083007D00760070006812
:1000F0000000000000240027002A00000000080083
:1001000002010000030407000000000000000002DC
:100110000000000023002600290000000000250048
:1001200028002B0004040404040404040202020254
:1001300002020303030303030102040810204080AA
:1001400001020408102001020408102074218A1EF4
:1001500011241FBECFEFD8E0DEBFCDBF24E0A8EB57
:10016000B1E001C01D92A33EB207E1F711E0A0E0AB
:10017000B1E0EEE4F8E502C005900D92A83BB107AE
:10018000D9F710E0C7EAD0E004C02197FE010E9431
:100190004227C63AD107C9F70E94A31E0C941A2C15
:1001A0000C94000080E090E0089582E390E00C94CD
:1001B000091DCF92DF92EF92FF92CF93DF9300D091
:1001C00000D0CDB7DEB7BE016F5F7F4F80E290E019
:1001D0000E94AF09C980DA80EB80FC80BE016F5FAE
:1001E0007F4F88E190E00E94AF0989819A81AB81BD
:1001F000BC81C816D906EA06FB0630F081E0809380
:10020000B8010E948F1902C01092B8010F900F9090
:100210000F900F90DF91CF91FF90EF90DF90CF90F4
:1002200008954F925F926F927F928F929F92AF92BA
:10023000BF92CF92DF92EF92FF92CF93DF93CDB731
:10024000DEB762970FB6F894DEBF0FBECDBF0E9437
:10025000190B633071058105910508F042C060E01B
:1002600080E00E94571864E873E0CE0107960E9470
:10027000AF07E3EDF0E0659174918DEF91E00E949E
:10028000D8236DEF71E0CE0101960E94B807AE0150
:10029000495F5F4FBE016F5F7F4FCE010D960E9499
:1002A0001E18BE01635F7F4F8AE893E00E949D089D
:1002B000CE010D960E94F017CE0101960E94F01714
:1002C000CE0107960E94F01761E080E00E94571867
:1002D00064E873E0CE0107960E94AF07E5EDF0E019
:1002E000D3C00E94190B633071058105910508F494
:1002F000F5C00E94190B663071058105910508F063
:10030000EDC060E080E00E94571864E873E0CE0121
:1003100007960E94AF07E5EEF0E0659174918DEFCE
:1003200091E00E94D8236DEF71E0CE0101960E940A
:10033000B807AE01495F5F4FBE016F5F7F4FCE01CF
:100340000D960E941E18BE01635F7F4F8AE893E0FE
:100350000E949D08CE010D960E94F017CE010196D5
:100360000E94F017CE0107960E94F01760E088E027
:100370000E945718BE016F5F7F4F8CE190E00E9492
:10038000AF0969817A818B819C814AE00E9498182B
:1003900061E080E00E94571864E873E0CE010796A0
:1003A0000E94AF07E7EEF0E0659174918DEF91E068
:1003B0000E94D8236DEF71E0CE0101960E94B8072C
:1003C000AE01495F5F4FBE016F5F7F4FCE010D965B
:1003D0000E941E18BE01635F7F4F8AE893E00E946F
:1003E0009D08CE010D960E94F017CE0101960E9445
:1003F000F017CE0107960E94F01761E088E00E9496
:100400005718BE016F5F7F4F80E290E02FC180E000
:100410000E94571864E873E0CE0107960E94AF0768
:100420000E940309BC01CE0101960E94B807AE01EB
:10043000495F5F4FBE016F5F7F4FCE010D960E94F7
:100440001E18BE01635F7F4F8AE893E00E949D08FB
:10045000CE010D960E94F017CE0101960E94F01772
:10046000CE0107960E94F01761E088E00E945718BD
:100470008091B80164E873E0811195C3CE010796BD
:100480000E94AF07EBEDF0E0659174918DEF91E084
:100490000E94D8236DEF71E0CE0101960E94B8074B
:1004A000AE01495F5F4FBE016F5F7F4FCE010D967A
:1004B0000E941E18BE01635F7F4F8AE893E00E948E
:1004C0009D08CE010D960E94F017CE0101960E9464
:1004D000F017CE0107960E94F01773C30E94190B04
:1004E000663071058105910538F00E94190B69305D
:1004F00071058105910588F00E94190B693071051D
:100500008105910508F4DFC10E94190B6C3071055B
:100510008105910508F4DAC0D6C160E080E00E9450
:10052000571864E873E0CE0107960E94AF07E9EE22
:10053000F0E0659174918DEF91E00E94D8236DEF0A
:1005400071E0CE0101960E94B807AE01495F5F4F8E
:10055000BE016F5F7F4FCE010D960E941E18BE0137
:10056000635F7F4F8AE893E00E949D08CE010D965D
:100570000E94F017CE0101960E94F017CE01079657
:100580000E94F01760E088E00E94571864E873E06A
:10059000CE0107960E94AF07BE016F5F7F4F84E2D6
:1005A00090E00E94AF0949815A816B817C81CE0124
:1005B00001960E94B21CAE01495F5F4FBE016F5FA2
:1005C0007F4FCE010D960E941E18BE01635F7F4FC4
:1005D0008AE893E00E949D08CE010D960E94F017D4
:1005E000CE0101960E94F017CE0107960E94F017E7
:1005F00061E080E00E94571864E873E0CE0107963E
:100600000E94AF07EBEEF0E0659174918DEF91E001
:100610000E94D8236DEF71E0CE0101960E94B807C9
:10062000AE01495F5F4FBE016F5F7F4FCE010D96F8
:100630000E941E18BE01635F7F4F8AE893E00E940C
:100640009D08CE010D960E94F017CE0101960E94E2
:10065000F017CE0107960E94F01761E088E00E9433
:100660005718BE016F5F7F4F80E490E00E94AF0992
:1006700089819A812B813C81E7E9F3E044E1DF0144
:100680001D924A95E9F73F932F939F938F938DE6A1
:1006900091E09F938F93FF93EF930E94672967E9FF
:1006A00073E0CE0101960E94B807BE016F5F7F4FD5
:1006B0008AE893E00E949D08CE0101960E94F017FF
:1006C0000FB6F894DEBF0FBECDBF7BC260E080E006
:1006D0000E94571864E873E0CE0107960E94AF07A6
:1006E000EDEEF0E0659174918DEF91E00E94D823DA
:1006F0006DEF71E0CE0101960E94B807AE01495F2F
:100700005F4FBE016F5F7F4FCE010D960E941E1896
:10071000BE01635F7F4F8AE893E00E949D08CE018F
:100720000D960E94F017CE0101960E94F017CE019F
:1007300007960E94F01760E088E00E945718BE01FB
:100740006F5F7F4F84E490E00E94AF0969817A81F6
:100750008B819C810E942B2420E030E04AE754E406
:100760000E941E266B017C014B015C019B01AC01C8
:100770000E94C426882319F081E691E01AC0260160
:100780003701E89477F82FEF3FEF4FE75FE7C301BA
:10079000B2010E94C42681110FC02FEF3FEF4FE737
:1007A0005FE7C301B2010E94262418162CF485E6E7
:1007B00091E00E9486187AC02FEF3FEF4FE75FE489
:1007C000C701B6010E94BF2618161CF489E691E005
:1007D000F0CF2FEF3FEF4FE75FECC701B6010E946C
:1007E000262487FDF3CF20E030E0A901C701B60140
:1007F0000E94262487FF0CC041E06DE28AE893E066
:100800000E941D1646015701B7FAB094B7F8B0948C
:100810002AE037ED43EA5BE3C501B4010E94B2254B
:100820004B015C010E9490266B017C010E942B24ED
:100830009B01AC01C501B4010E94B1254B015C01D3
:100840004AE0C701B6010E94981841E06EE28AE8CA
:1008500093E00E941D1620E030E040E251E4C50123
:10086000B4010E948C244B015C010E9490266B0114
:10087000E12CF12C4AE0C701B6010E949818C7018B
:10088000B6010E942B249B01AC01C501B4010E945A
:10089000B12520E030E040E251E40E948C240E9427
:1008A000902680E090E04AE00E94981861E080E0A5
:1008B0000E94571864E873E0CE0107960E94AF07C4
:1008C0006CE771E0E9CD60E080E00E94571864E8D1
:1008D00073E0CE0107960E94AF07E9EDF0E0659165
:1008E00074918DEF91E00E94D8236DEF71E0CE01FD
:1008F00001960E94B807AE01495F5F4FBE016F5F6E
:100900007F4FCE010D960E941E18BE01635F7F4F80
:100910008AE893E00E949D08CE010D960E94F01790
:10092000CE0101960E94F017CE0107960E94F017A3
:1009300060E088E00E94571864E873E0CE010796F3
:100940000E94AF078091600490916104AC01E7E9D7
:10095000F3E024E1DF011D922A95E9F71F921F922F
:100960005F938F938DE691E09F938F93FF93EF9327
:100970000E94672967E973E0CE0101960E94B807DB
:10098000AE01495F5F4FBE016F5F7F4FCE010D9695
:100990000E941E18BE01635F7F4F8AE893E00E94A9
:1009A0009D08CE010D960E94F017CE0101960E947F
:1009B000F017CE0107960E94F0170FB6F894DEBF2D
:1009C0000FBECDBF8091730490917404A091750403
:1009D000B0917604892B8A2B8B2B09F441C061E0FE
:1009E00080E00E94571864E873E0CE0107960E94E9
:1009F000AF070E940309BC01CE0101960E94B8070F
:100A0000AE01495F5F4FBE016F5F7F4FCE010D9614
:100A10000E941E18BE01635F7F4F8AE893E00E9428
:100A20009D08CE010D960E94F017CE0101960E94FE
:100A3000F017CE0107960E94F01761E088E00E944F
:100A4000571864E873E0CE0107960E94AF07409103
:100A5000730450917404609175047091760466C0BB
:100A6000BE016F5F7F4F88E090E00E94AF098981EF
:100A70009A81AB81BC81892B8A2B8B2B09F05BC0BF
:100A8000809160049091610461E0892B09F4BFCCEE
:100A900080E00E94571864E873E0CE0107960E9438
:100AA000AF070E940309BC01CE0101960E94B8075E
:100AB000AE01495F5F4FBE016F5F7F4FCE010D9664
:100AC0000E941E18BE01635F7F4F8AE893E00E9478
:100AD0009D08CE010D960E94F017CE0101960E944E
:100AE000F017CE0107960E94F01761E088E00E949F
:100AF000571864E873E0CE0107960E94AF07C090D4
:100B00006004D0906104E12CF12CBE016F5F7F4F37
:100B100080E190E00E94AF0969817A818B819C819C
:100B2000A70196010E94C926AB01BC01CE01019626
:100B30000E94B21CB5CC61E080E00E94571864E8C6
:100B400073E0CE0107960E94AF070E940309BC0123
:100B5000CE0101960E94B807AE01495F5F4FBE010A
:100B60006F5F7F4FCE010D960E941E18BE01635F1E
:100B70007F4F8AE893E00E949D08CE010D960E9467
:100B8000F017CE0101960E94F017CE0107960E9441
:100B9000F01761E088E00E9457188091B80164E87E
:100BA00073E0882339F0CE0107960E94AF07EFEE7D
:100BB000F0E06ACCCE0107960E94AF07EFEDF0E0BF
:100BC00063CC62960FB6F894DEBF0FBECDBFDF9147
:100BD000CF91FF90EF90DF90CF90BF90AF909F901C
:100BE0008F907F906F905F904F9008950C941101BB
:100BF0000895CF92DF92EF92FF920F931F93CF93BE
:100C0000DF936C017A018B01C0E0D0E0CE15DF05E7
:100C100081F0D8016D918D01D601ED91FC9101908B
:100C2000F081E02DC6010995892B11F02196EECFB8
:100C30007E01C701DF91CF911F910F91FF90EF903F
:100C4000DF90CF900895FC01538D448D252F30E027
:100C5000842F90E0821B930B541710F0CF960895C9
:100C600001970895FC01918D828D981761F0828D16
:100C7000DF01A80FB11D5D968C91928D9F5F9F73D0
:100C8000928F90E008958FEF9FEF0895FC01918D72
:100C9000828D981731F0828DE80FF11D858D90E0DF
:100CA00008958FEF9FEF0895FC01918D228D892F7C
:100CB00090E0805C9F4F821B91098F739927089564
:100CC0008BED92E00E94540621E0892B09F420E08C
:100CD000822F0895FC01848DDF01A80FB11DA35A56
:100CE000BF4F2C91848D90E001968F739927848F4C
:100CF000A689B7892C93A089B1898C91837080646F
:100D00008C93938D848D981306C00288F389E02D0F
:100D100080818F7D80830895EF92FF920F931F93C0
:100D2000CF93DF93EC0181E0888F9B8D8C8D98139E
:100D300005C0E889F989808185FD26C0F62E0B8DD6
:100D400010E00F5F1F4F0F731127E02E8C8DE812FC
:100D50000CC00FB607FCFACFE889F989808185FFBE
:100D6000F5CFCE010E946A06F1CF8B8DFE01E80F10
:100D7000F11DE35AFF4FF0829FB7F8940B8FEA8979
:100D8000FB89808180620AC09FB7F894EE89FF8951
:100D90006083E889F98980818370806480839FBF44
:100DA00081E090E0DF91CF911F910F91FF90EF9044
:100DB0000895CF93DF93EC01888D8823C9F0EA89E9
:100DC000FB89808185FD05C0A889B9898C9186FD44
:100DD0000FC00FB607FCF5CF808185FFF2CFA88941
:100DE000B9898C9185FFEDCFCE010E946A06E7CFCD
:100DF000DF91CF9108950E94600681110C949616A0
:100E000008952091B3023091B4022817390771F484
:100E10009091B1028091B202981741F0E091B10235
:100E2000F0E0E15BFD4F808190E008958FEF9FEF50
:100E3000089508951F93CF93DF93DC015C968D9105
:100E40009C915D97009739F421E030E013963C9334
:100E50002E9312973BC05196ED91FC91529750966C
:100E60002C915097322F30951FB75E964C915E971C
:100E7000742F727041FD6095F8944081772311F0D2
:100E8000422B01C043234083EC012197F1F748E056
:100E9000508160FF02C0522B01C053235083EC01EC
:100EA0002197F1F76695415099F78081772319F0E2
:100EB0008323808302C0282B20831FBF5C968D91E3
:100EC0009C915D970197F1F781E090E0DF91CF91E0
:100ED0001F9108952091B3023091B4022817390769
:100EE00071F48091B2022091B10290E0805C9F4F3A
:100EF000821B910960E470E00E94D926089580E089
:100F000090E008952091B3023091B4022817390778
:100F1000B9F49091B1028091B202981789F0E091F2
:100F2000B102F0E0E15BFD4F80812091B10230E041
:100F30002F5F3F4F2F7333272093B10290E0089526
:100F40008FEF9FEF089585ED8093BC008091BC00EA
:100F500084FDFCCF1092BB02089508950895FC0112
:100F60001182108213821282158214820C94D91776
:100F7000FC01118210821382128215821482611583
:100F8000710551F0FB0101900020E9F73197AF01A5
:100F9000461B570B0C94A11708951F920F920FB682
:100FA0000F9211242F933F934F935F936F937F93EF
:100FB0008F939F93AF93BF93EF93FF93E0910201C1
:100FC000F09103010995FF91EF91BF91AF919F912E
:100FD0008F917F916F915F914F913F912F910F90E2
:100FE0000FBE0F901F9018951F920F920FB60F9281
:100FF00011242F933F934F935F936F937F938F931E
:101000009F93AF93BF93EF93FF93E0910001F09113
:1010100001010995FF91EF91BF91AF919F918F9140
:101020007F916F915F914F913F912F910F900FBEE4
:101030000F901F9018951F920F920FB60F921124C8
:101040002F933F934F935F936F937F938F939F93D0
:10105000AF93BF93EF93FF938091C8029091C90221
:10106000A091CA02B091CB02892B8A2B8B2B59F10C
:101070009091C502E091C602F091C7028081892754
:1010800080838091C8029091C902A091CA02B09158
:10109000CB02181619061A061B060CF03DC08091EB
:1010A000C8029091C902A091CA02B091CB020197E7
:1010B000A109B1098093C8029093C902A093CA0202
:1010C000B093CB0229C080910401EFE0F1E0E491FC
:1010D0009FEF90930401E130B9F098F0E230C9F449
:1010E000909170009D7F9093700091E09093B0007C
:1010F0009091B100987F94609093B1001092B300EA
:1011000008C010926E0005C090916F009D7F909373
:101110006F0060E00E942419FF91EF91BF91AF91A1
:101120009F918F917F916F915F914F913F912F91FF
:101130000F900FBE0F901F901895DB0114964D91E4
:101140005C9115976D917C91DC01ED91FC91028091
:10115000F381E02D09941F920F920FB60F92112484
:101160002F933F934F935F936F937F938F939F93AF
:10117000AF93BF93EF93FF938BED92E00E946A06CB
:10118000FF91EF91BF91AF919F918F917F916F915F
:101190005F914F913F912F910F900FBE0F901F9035
:1011A00018951F920F920FB60F9211242F938F93C1
:1011B0009F93EF93FF93E091EB02F091EC0280811B
:1011C000E091F102F091F20282FD12C090818091D3
:1011D000F4028F5F8F732091F502821751F0E09136
:1011E000F402F0E0E552FD4F958F8093F40201C0C8
:1011F0008081FF91EF919F918F912F910F900FBE62
:101200000F901F901895EDEDF0E0659174918DEFC2
:1012100091E00E94D8238DEF91E00895CF93DF9362
:10122000EC018C810E94FB182E8130E041E02817F0
:10123000390709F040E0842FDF91CF9108951F9284
:101240000F920FB60F9211242F933F934F935F93FA
:101250006F937F938F939F93AF93BF93EF93FF937E
:10126000E091B302F091B402309709F451C0968D29
:10127000A685B785858591FF04C09C91892329F4B3
:1012800047C09C91892309F043C0A389B4899C91EC
:101290008589809589238C93868997890197F1F7B1
:1012A000608D718DA685B785558538E020E0CB012E
:1012B0000197F1F7822F90E095958795282F4C9113
:1012C000452309F02068315091F7868D81FD2095E6
:1012D0008091B20290E001968F7399273091B1020C
:1012E000381749F0A091B202B0E0A15BBD4F2C933A
:1012F0008093B20203C0868D8160868F828D938D2C
:101300000197F1F7A389B4899C918589892B8C93E6
:10131000FF91EF91BF91AF919F918F917F916F91CD
:101320005F914F913F912F910F900FBE0F901F90A3
:101330001895E091B302F091B402E817F90769F447
:10134000A389B4899C918589809589238C93109277
:10135000B4021092B30281E0089580E00895CF9224
:10136000DF92EF92FF920F931F93CF93DF93EB01E6
:101370007B0124E0E20EF11C8B016C01C61AD70A36
:10138000C601800F911F0E944A25F80181938F01A9
:10139000EE15FF05A9F7CE01DF91CF911F910F91B7
:1013A000FF90EF90DF90CF900895AF92BF92DF92C1
:1013B000EF92FF920F931F93CF93DF93EC017B018A
:1013C0008B015C0184E0A80EB11CF801D1908F0163
:1013D000CE010E944A25D81621F06D2DCE010E9423
:1013E00052252196CA15DB0581F7C701DF91CF9100
:1013F0001F910F91FF90EF90DF90BF90AF900895F5
:10140000CF92DF92EF92FF92CF93DF9300D000D084
:10141000CDB7DEB76B01BE016F5F7F4F80E490E018
:101420000E94AF09E12CF12C89819A81AB81BC81AA
:101430008C0D9D1DAE1DBF1D89839A83AB83BC831C
:10144000BE016F5F7F4F80E490E00E94D509BE012E
:101450006F5F7F4F84E590E00E94AF0989819A8198
:10146000AB81BC81C80ED91EEA1EFB1EC982DA827E
:10147000EB82FC82BE016F5F7F4F84E590E00E94AB
:10148000D5090F900F900F900F90DF91CF91FF90A3
:10149000EF90DF90CF900895CF92DF92EF92FF927E
:1014A000CF93DF9300D000D0CDB7DEB76B01BE0184
:1014B0006F5F7F4F84E290E00E94AF09E12CF12C36
:1014C00089819A81AB81BC818C0D9D1DAE1DBF1D94
:1014D00089839A83AB83BC83BE016F5F7F4F84E2B5
:1014E00090E00E94D509BE016F5F7F4F80E590E0DC
:1014F0000E94AF0989819A81AB81BC81C80ED91E37
:10150000EA1EFB1EC982DA82EB82FC82BE016F5F9B
:101510007F4F80E590E00E94D5090F900F900F90CB
:101520000F90DF91CF91FF90EF90DF90CF900895D3
:10153000EF92FF920F931F93CF93DF9300D000D0D1
:10154000CDB7DEB77C0149835A836B837C838C01E2
:10155000045F1F4FB80188E090E00E94D509B701F1
:101560008CE090E00E94D509B7016C5F7F4F80E16D
:1015700090E00E94D509B80184E190E00E94D5096D
:10158000B701685F7F4F88E190E00E94D509B801FC
:101590008CE190E00E94D509B80180E290E00E94C1
:1015A000D509B80184E290E00E94D509B80180E431
:1015B00090E00E94D509B80184E490E00E94D5092A
:1015C000B80188E490E00E94D509B8018CE490E06D
:1015D0000E94D509B80180E590E00E94D509B801C4
:1015E00084E590E00E94D509B80188E590E00E946A
:1015F000D509BE016F5F7F4F80E890E00E94D5095A
:10160000BE016F5F7F4F84E890E00E94D509BE0164
:101610006F5F7F4F88E890E00E94D5090F900F9090
:101620000F900F90DF91CF911F910F91FF90EF904E
:1016300008952FB7F8946091C1027091C202809111
:10164000C3029091C4022FBF28EE33E040E050E087
:101650000E94ED26CA01B9010895FC018081811123
:1016600002C00C94091C813079F48FB7F894409132
:10167000C1025091C2026091C3027091C4028FBF37
:10168000342F252FCB0104C0823011F40C94190B98
:10169000632F722F08950F931F93CF93DF93EC0165
:1016A0000E942D0B0C811D812E813F81DC01CB011D
:1016B000801B910BA20BB30B088519852A853B85EE
:1016C00080179107A207B307D8F0CE010E942D0B17
:1016D0006C837D838E839F838981882389F09A819F
:1016E000992371F09F3F29F08B81891748F48F5F10
:1016F0008B83EC85FD85DF91CF911F910F9109942C
:10170000DF91CF911F910F9108951F920F920FB605
:101710000F9211242F933F934F935F936F937F9377
:101720008F939F93AF93BF93EF93FF938091B900F3
:10173000887F803609F49CC068F5883209F45BC064
:1017400090F4803109F454C038F4882309F4F6C0C9
:10175000883009F44DC0F6C0883109F44CC080329D
:1017600009F45DC0EFC0803409F468C048F48033E8
:1017700009F455C0883309F0E5C08093D901D8C079
:10178000803509F44FC0883509F45DC0883409F00C
:10179000D9C0D6C0883909F4C7C0A8F4883709F47D
:1017A00067C038F4883609F463C0803709F460C034
:1017B000C9C0883809F4B8C0803909F45FC08038DE
:1017C00009F0C0C05BC0803B09F486C038F4803AA1
:1017D00009F466C0883A09F47FC0B4C0803C09F4BB
:1017E000A7C0883C09F4A4C0883B09F48AC0AAC0F9
:1017F0008091FC0110C09091FB018091FA01981733
:1018000070F5E091FB0181E08E0F8093FB01F0E029
:10181000E652FE4F80818093BB0085EC86C08093AA
:10182000D9018EC0E091FB0181E08E0F8093FB0116
:101830008091BB00F0E0E652FE4F80839091FB0167
:101840008091FA016EC0E091FB0181E08E0F8093E0
:10185000FB018091BB00F0E0E652FE4F8083809157
:10186000BA0281116DC081E08093B90284EA61C03F
:1018700083E08093BB0210924E02CFCF80914E0244
:10188000803208F051C0E0914E0281E08E0F8093CB
:101890004E028091BB00F0E0E25DFD4F8083BDCF42
:1018A00085EC8093BC001092BB0280914E02803286
:1018B00030F4E0914E02F0E0E25DFD4F1082609165
:1018C0004E0270E0E091B502F091B6028EE292E035
:1018D000099510924E0236C084E08093BB021092AC
:1018E0002D0210922C02E091B702F091B8020995F6
:1018F00080912C02811105C081E080932C0210920E
:101900000C02E0912D0281E08E0F80932D02F0E019
:10191000E45FFD4F80818093BB0090912D02809108
:101920002C02981708F479CF85E88093BC000AC090
:1019300085EC8093BC001092BB0204C01092D901C8
:101940000E94A307FF91EF91BF91AF919F918F915B
:101950007F916F915F914F913F912F910F900FBEAB
:101960000F901F90189540912C02262F30E0240FE5
:10197000311D21323105DCF42091BB022430C9F441
:10198000FC0180E090E0861758F430912C02219100
:10199000DC01A45FBD4FA30FB11D2C930196F3CFC3
:1019A00080912C02680F60932C0280E0089581E002
:1019B000089582E008954F925F926F927F928F9286
:1019C0009F92AF92BF92CF92DF92EF92FF920F93CE
:1019D0001F93CF93DF93CDB7DEB7C055D1090FB6B4
:1019E000F894DEBF0FBECDBFBE016F5F7F4F84E0B6
:1019F00090E00E94AF0949815A816B817C81CE01C0
:101A000001960E94661D67E671E0CE0107960E946E
:101A1000B807BE016F5F7F4FCE0107960E948E17F9
:101A2000BC01CE018D5B9F4F0E94AF07CE01079690
:101A30000E94F017CE0101960E94F01763E771E053
:101A4000CE01CD960E94B80765E771E0CE01C7963A
:101A50000E94B80760E070E0CE01CD960E94931D11
:101A60005C01BB2485010F5F1F4FB801CE01CD96ED
:101A70000E94931D6C01DD2446018FEF881A980A9D
:101A8000B401CE01CD960E94931D7C01A50160E0BA
:101A900070E0CE01C1960E94B31DA601B801CE012F
:101AA0008B960E94B31DFF24A701B401CE01859639
:101AB0000E94B31D40911E0450911F04B7016F5F37
:101AC0007F4FCE014F960E94B31DBE016F5C7F4FCA
:101AD000CE0101960E94AF07CE0101960E94F71D2C
:101AE0004B015C01CE0101960E94F017BE016B5DB7
:101AF0007F4FCE0101960E94AF07CE0101960E9452
:101B0000F71D6B017C01CE0101960E94F017BE010A
:101B1000615E7F4FCE0101960E94AF07CE01019614
:101B20000E94F71D2B013C01CE0101960E94F01787
:101B3000BE016D5B7F4FCE0101960E94AF07BE01D3
:101B4000635C7F4FCE0101960E948E17BE01655DDA
:101B50007F4F0E948E17BE01635C7F4F0E948E17DD
:101B6000BC018AE194E00E94D917CE0101960E943F
:101B7000F01768E771E0CE018B960E94EE1688237D
:101B800071F0B701A60189E294E00E94980ABE01B3
:101B9000695C7F4F8AE194E00E9475171DC36DE771
:101BA00071E0CE018B960E94EE16BE016F5F7F4FF3
:101BB000882309F400C388E090E00E94AF094981BE
:101BC0005A816B817C81CE0107960E94661DBE0101
:101BD000695F7F4FCE0101960E94AF07BE01635C33
:101BE0007F4FCE0101960E948E17BC018AE194E0DE
:101BF0000E947517CE0101960E94F017CE0107963C
:101C00000E94F017BE016F5F7F4F80E890E00E9456
:101C1000AF0949815A816B817C81CE0101960E9476
:101C2000661DBE01695F7F4F84E890E00E94AF09A6
:101C30004F81588569857A85CE0107960E94661D79
:101C4000BE01635F7F4F88E890E00E94AF094D8539
:101C50005E856F857889CE0143960E94661DBE0120
:101C60006D5E7F4FCE010D960E94AF07BE01635C93
:101C70007F4FCE010D960E948E17BE01695F7F4F88
:101C80000E948E17BE01635C7F4F0E948E17BE01BB
:101C90006F5F7F4F0E948E17BE01635C7F4F0E9473
:101CA0008E17BC018AE194E00E947517CE010D9653
:101CB0000E94F017CE0143960E94F017CE010796BE
:101CC0000E94F017CE0101960E94F017BE016F5FCF
:101CD0007F4F88E190E00E94AF0949815A816B8172
:101CE0007C81CE0101960E94661DBE01695F7F4F17
:101CF00084E190E00E94AF094F81588569857A851B
:101D0000CE0107960E94661DBE01635F7F4F80E192
:101D100090E00E94AF094D855E856F857889CE0180
:101D20000D960E94661D0E94190BAB01BC01CE01ED
:101D300049960E94661DBE01675E7F4FCE014396A5
:101D40000E94AF07BE01635C7F4FCE0143960E94A5
:101D50008E17BE01635F7F4F0E948E17BE01635CCA
:101D60007F4F0E948E17BE01695F7F4F0E948E17C2
:101D7000BE01635C7F4F0E948E17BE016F5F7F4F75
:101D80000E948E17BE01635C7F4F0E948E17BC01BC
:101D90008AE194E00E947517CE0143960E94F017E5
:101DA000CE0149960E94F017CE010D960E94F017C1
:101DB000CE0107960E94F017CE0101960E94F017FF
:101DC000E0912004F091210440855185628573855E
:101DD000CE0107960E94661DBE01695F7F4FCE014E
:101DE00001960E94AF07BE01635C7F4FCE01019652
:101DF0000E948E17BC018AE194E00E947517CE0103
:101E000001960E94F017CE0107960E94F017E0910C
:101E10002004F09121044789508D618D728DCE018F
:101E200007960E94661DBE01695F7F4FCE01019635
:101E30000E94AF07BE01635C7F4FCE0101960E94F6
:101E40008E17BC018AE194E00E947517CE010196BD
:101E50000E94F017CE0107960E94F017E09120042F
:101E6000F091210446A157A160A571A5CE01079666
:101E70000E94661DBE01695F7F4FCE0101960E94E0
:101E8000AF07BE01635C7F4FCE0101960E948E17A3
:101E9000BC018AE194E00E947517CE0101960E9470
:101EA000F017CE0107960E94F017E0912004F09100
:101EB000210445A956A967A970ADCE0107960E94D5
:101EC000661DBE01695F7F4FCE0101960E94AF077C
:101ED000BE01635C7F4FCE0101960E948E17BC014C
:101EE0008AE194E00E947517CE0101960E94F017D6
:101EF000CE0107960E94F017BE016F5F7F4F88E406
:101F000090E00E94AF0949815A816B817C81CE01AA
:101F100001960E94661DBE01695F7F4F8CE190E0D3
:101F20000E94AF094F81588569857A85CE010D964B
:101F30000E94661DBE01635F7F4FCE0107960E941F
:101F4000AF07BE01635C7F4FCE0107960E948E17DC
:101F5000BE016F5F7F4F0E948E17BE01635C7F4F93
:101F60000E948E17BC018AE194E00E947517CE0191
:101F700007960E94F017CE010D960E94F017CE0131
:101F800001960E94F017BE016F5F7F4F8CE490E0D6
:101F90000E94AF0949815A816B817C81CE010196F3
:101FA0000E94661DBE01695F7F4F80E290E00E9443
:101FB000AF094F81588569857A85CE010D960E94BB
:101FC000661DBE01635F7F4FCE0107960E94AF077B
:101FD000BE01635C7F4FCE0107960E948E17BE0143
:101FE0006F5F7F4F0E948E17BE01635C7F4F0E9420
:101FF0008E17BC018AE194E00E947517CE01079606
:102000000E94F017CE010D960E94F017CE010196A6
:102010000E94F017BE016F5F7F4F80E590E00E9445
:10202000AF0949815A816B817C81CE0101960E9462
:10203000661DBE01695F7F4F84E290E00E94AF0998
:102040004F81588569857A85CE010D960E94661D5F
:10205000BE01635F7F4FCE0107960E94AF07BE01AE
:10206000635C7F4FCE0107960E948E17BE016F5FA3
:102070007F4F0E948E17BE01635C7F4F0E948E17B8
:10208000BC018AE194E00E947517CE0107960E9478
:10209000F017CE010D960E94F017CE0101960E9416
:1020A000F017BE016F5F7F4F84E590E00E94AF099B
:1020B00049815A816B817C81CE0101960E94661D07
:1020C000BE01695F7F4F80E490E00E94AF094F81BD
:1020D000588569857A85CE010D960E94661DBE01E0
:1020E000635F7F4FCE0107960E94AF07BE01635C1E
:1020F0007F4FCE0107960E948E17BE016F5F7F4F04
:102100000E948E17BE01635C7F4F0E948E17BC0138
:102110008AE194E00E947517CE0107960E94F0179D
:10212000CE010D960E94F017CE0101960E94F01785
:10213000BE016F5F7F4F88E590E00E94AF09498143
:102140005A816B817C81CE0101960E94661DBE0181
:10215000695F7F4F84E490E00E94AF094F8158850A
:1021600069857A85CE010D960E94661DBE01635F6A
:102170007F4FCE0107960E94AF07BE01635C7F4F81
:10218000CE0107960E948E17BE016F5F7F4F0E949F
:102190008E17BC018AE194E00E947517CE01079664
:1021A0000E94F017CE010D960E94F017CE01019605
:1021B0000E94F01711C08CE090E00E94AF09898165
:1021C0009A81AB81BC8188169906AA06BB0659F094
:1021D00080E891E00E94551D8BE791E00E94551D1B
:1021E000CE014F962FC163E871E0CE018B960E941D
:1021F000EE16882361F06196CCAEDDAEEEAEFFAE9A
:102200006197BE01635B7F4F88E090E006C166E89E
:1022100071E0CE018B960E94EE16882309F454C01B
:10222000BE016F5F7F4F80E190E00E94AF0989811E
:102230009A81AB81BC81489E4001499E900C589E7A
:10224000900C1124B20189E294E00E94000AB401CA
:1022500089E294E00E944C0AA12CB12C2FE02C9D25
:10226000C0012D9D900D1124E0902004F0902104D8
:10227000E80EF91EF7018685882349F0848195814F
:10228000A681B781880E991EAA1EBB1E0EC00E9491
:10229000190BF70160837183828393830E94190B6A
:1022A000860E971EA81EB91EF70184829582A6820B
:1022B000B78281E0F7018687BE01695C7F4F8AE1C2
:1022C00094E00E947517B8C069E871E0CE018B9662
:1022D0000E94EE16882361F02D96CCAEDDAEEEAEF8
:1022E000FFAE2D97BE01675B7F4F8CE090E095C0FD
:1022F0006CE871E0CE018B960E94EE16882351F0B7
:10230000C98EDA8EEB8EFC8EBE01675E7F4F80E158
:1023100090E083C06FE871E0CE018B960E94EE16CC
:10232000882351F0CB8ADC8AED8AFE8ABE016D5E7D
:102330007F4F84E190E071C062E971E0CE018B963D
:102340000E94EE16882351F0CD86DE86EF86F88A4D
:10235000BE01635F7F4F88E190E05FC065E971E097
:10236000CE018B960E94EE16882341F1CF82D8864B
:10237000E986FA8665E374E088E090E00E94D5097A
:1023800069E274E08CE090E00E94D5096DE274E0AF
:1023900080E190E00E94D50965E374E084E190E07B
:1023A0000E94D50961E374E088E190E00E94D509BC
:1023B000BE01695F7F4F84E890E02FC068E971E05B
:1023C000CE018B960E94EE16882351F1C982DA82E3
:1023D000EB82FC8265E374E08CE190E00E94D50919
:1023E00065E374E080E290E00E94D50965E374E063
:1023F00084E290E00E94D50965E374E080E490E017
:102400000E94D50965E374E084E490E00E94D50958
:10241000BE016F5F7F4F80E890E00E94D5094CCFEE
:102420006BE971E0CE018B960E94EE168111FFCF11
:102430008EE991E00E94551D8BE791E00E94551DA9
:10244000CE014F960E94F017CE0185960E94F0179C
:10245000CE018B960E94F017CE01C1960E94F01714
:10246000CE01C7960E94F017CE01CD960E94F017BC
:10247000CE018D5B9F4F0E94F017C05BDF4F0FB600
:10248000F894DEBF0FBECDBFDF91CF911F910F91AA
:10249000FF90EF90DF90CF90BF90AF909F908F9084
:1024A0007F906F905F904F900895E091BF02809170
:1024B000BE02E81730F4F0E0E754FE4F808190E070
:1024C00008958FEF9FEF08959091BF028091BE0213
:1024D000981750F4E92FF0E0E754FE4F208130E0E8
:1024E0009F5F9093BF0202C02FEF3FEFC901089595
:1024F0008091BE0290E02091BF02821B9109089555
:102500000895CF92DF92EF92FF920F931F93CF9394
:10251000DF937C01CB018A012091B002222389F054
:10252000EB016B01C40ED51ECC15DD0569F0699178
:10253000D701ED91FC910190F081E02DC701099543
:10254000F3CF642F0E94B30CC801DF91CF911F918C
:102550000F91FF90EF90DF90CF900895CF93DF938E
:102560001F92CDB7DEB769832091B0022223D1F04C
:102570002091BC02203240F021E030E0FC013383A6
:10258000228380E090E015C08091BD02E82FF0E04A
:10259000E057FD4F998190838F5F8093BD028093B8
:1025A000BC0205C061E0CE0101960E94B30C81E03F
:1025B00090E00F90DF91CF9108951F93CF93DF9319
:1025C000C82F1092C002D4E11FE0E091C002E430B5
:1025D00020F5DE9FF0011124E555FC4F8481C813DE
:1025E00016C00E948F19E091C0021E9FF0011124B5
:1025F000E559FB4F108611861286138610821182D0
:102600001282138214821582168217821686809196
:10261000C0028F5F8093C002D8CFDF91CF911F910E
:1026200008952F923F924F925F926F927F928F9276
:102630009F92AF92BF92CF92DF92EF92FF920F9351
:102640001F93CF93DF9300D000D0CDB7DEB7C82E55
:10265000BE016F5F7F4F88E090E00E94AF098981E3
:102660009A81AB81BC812091600430916104820F1A
:10267000931F9093610480936004892B09F428C10F
:102680001092C00284E1382E9FE0D92E2CE8222E31
:102690008091C002843008F01BC190E0389EF001A8
:1026A000399EF00D1124E555FC4F2481C2120AC158
:1026B000D89EF001D99EF00D1124E559FB4F868577
:1026C000882309F45FC00E948F1900916004109163
:1026D00061042801612C712CBE016F5F7F4F80E186
:1026E00090E00E94AF0969817A818B819C81A3016E
:1026F00092010E94C9264B015C01BE016F5F7F4FB2
:1027000088E090E00E94AF0989819A81AB81BC8109
:10271000892B8A2B8B2B09F04DC0BE016F5F7F4F39
:1027200080E290E00E94AF0989819A81AB81BC81EF
:10273000840D951DA61DB71D89839A83AB83BC8329
:10274000BE016F5F7F4F80E290E00E94D509BE011D
:102750006F5F7F4F8CE490E00E94AF0989819A817E
:10276000AB81BC81840D951DA61DB71D89839A83FD
:10277000AB83BC83BE016F5F7F4F8CE490E00E940F
:10278000D50918C08090600490906104A12CB12CF0
:10279000BE016F5F7F4F84E190E00E94AF098981A5
:1027A0009A81AB81BC8188169906AA06BB0608F4FB
:1027B00089C089CFBE016F5F7F4F88E090E00E94A3
:1027C000AF0989819A81AB81BC81892B8A2B8B2BA4
:1027D00029F0B8018FE494E00E94000ABE016F5F07
:1027E0007F4F8CE190E00E94AF0989819A81AB8193
:1027F000BC810196A11DB11D89839A83AB83BC83E3
:10280000BE016F5F7F4F8CE190E00E94D509BE0151
:102810006F5F7F4F88E490E00E94AF0989819A81C1
:10282000AB81BC810196A11DB11D89839A83AB83C5
:10283000BC83BE016F5F7F4F88E490E00E94D509A2
:10284000B4018FE494E00E944C0A289CC001299CAA
:10285000900D11240E94091DE090C002F12CDE9C15
:102860008001DF9C100D112405591B4FF80186854E
:10287000882349F084819581A681B781880E991EAD
:10288000AA1EBB1E0EC00E94190BF8016083718343
:10289000828393830E94190B860E971EA81EB91E71
:1028A000F80184829582A682B782DE9CF001DF9CCB
:1028B000F00D1124E559FB4F81E0868710926104E9
:1028C000109260048091C0028F5F8093C002E0CEBE
:1028D0000F900F900F900F90DF91CF911F910F915C
:1028E000FF90EF90DF90CF90BF90AF909F908F9030
:1028F0007F906F905F904F903F902F9008950E942F
:102900008F191092650480916504863960F4809176
:1029100063040E94FB18892B91F4809165048F5FFA
:1029200080936504F0CF20916204809160049091BF
:102930006104820F911D9093610480936004089557
:102940004F925F926F927F92BF92CF92DF92EF92FF
:10295000FF920F931F93CF93DF931092C00284E1F5
:10296000D82E9FE0C92EBB24B3948091C00284303E
:1029700008F0D8C0E82EF12CDE9CE001DF9CD00DE1
:102980001124C555DC4FCE010E940E099F81891785
:1029900009F468C0CE010E940E09882309F462C0C0
:1029A0002FB7F8948091C1029091C202A091C30206
:1029B000B091C4022FBF88879987AA87BB87CE01B1
:1029C0000E940E09DE9CF001DF9CF00D1124E555FC
:1029D000FC4F87830091C00210E0C09EF001C19EB1
:1029E000F00D1124E559FB4F86856585811101C0E5
:1029F0006B2584850E942419C09EE001C19ED00DE4
:102A00001124C559DB4F8E85882331F14C805D80C0
:102A10006E807F800E94190B461A570A680A790A4D
:102A2000488659866A867B860E94190B0C811D8117
:102A30002E813F81601771078207930768F018861F
:102A400019861A861B86188219821A821B821C829A
:102A50001D821E821F821E868091C0028F5F80931E
:102A6000C00283CFCE010E940E09DE9C8001DF9C54
:102A7000100D112405551C4FF8019781891709F491
:102A80009ECFCE010E940E09811199CF2FB7F894E5
:102A90008091C1029091C202A091C302B091C40280
:102AA0002FBFF8014085518562857385841B950B86
:102AB000A60BB70B4485558566857785481759075A
:102AC0006A077B0790F4F80140895189628973890C
:102AD00084179507A607B70740F40190F081E02D11
:102AE000309709F46CCFD80119C0DE9C9001DF9CAF
:102AF000300D112425553C4FF901408951896289D7
:102B00007389481759076A077B0708F058CF028076
:102B1000F381E02D309709F452CFD90114968C91AE
:102B200009954DCFDF91CF911F910F91FF90EF90BD
:102B3000DF90CF90BF907F906F905F904F900895FF
:102B4000CF93FC01C48121E02093B002C0938F0297
:102B50001092BD021092BC028385682B88E793E037
:102B60000E94AE129091BC02913208F045C0809153
:102B7000BB028111FCCF82E08093BB0281E0809395
:102B8000BA028FEF8093D9011092FB019093FA0162
:102B9000A0E9B2E0EAEDF1E080E0981721F02D9194
:102BA00021938F5FFACF1092FC018091FC01CC0F32
:102BB000C82BC093FC018091B902813061F410925E
:102BC000B9028091FC018093BB008091BC0083FD21
:102BD000F8CF85EC01C085EE8093BC008091BB02EC
:102BE0008230E1F38091D9018F3F31F08091D9019A
:102BF000803211F08091D9011092BD021092BC0276
:102C00001092B002CF9108950F931F93CF938C0130
:102C1000C62F0E94A0156C2F6460C8010E94A015E9
:102C20006C2F6B7FC8010E94A01583EC90E0019788
:102C3000F1F7CF911F910F9108950F931F93CF93A9
:102C4000DF938C01C62FD42F607F642B0E94041663
:102C500080E1C89FB00111246D2BC801DF91CF9195
:102C60001F910F910C94041641E00E941D1681E003
:102C700090E00895CF93DF9300D000D000D0CDB77F
:102C8000DEB761EA71E0CE0101960E94B8076AE101
:102C900074E0CE0101960E948E17BC018BED92E08C
:102CA0000E949D08CE0101960E94F0170E94DB0C45
:102CB0006AE174E0CE0101960E94AF0741E050E066
:102CC0006BE771E0CE0101960E943417882349F129
:102CD000BE016F5F7F4F8BEF93E00E949D08CE0196
:102CE00001960E94F01764EA71E0CE0101960E94FD
:102CF000B8076AE174E0CE0101960E948E17BC010C
:102D00008BED92E00E949D08CE0101960E94F01783
:102D100026960FB6F894DEBF0FBECDBFDF91CF91E0
:102D20000895CE0101960E947C17D2CF1F93CF93B6
:102D3000DF9300D000D000D0CDB7DEB78BED92E0AE
:102D40000E945406892BF1F18BED92E00E9432062D
:102D5000182F682F8AE194E00E9462171A3091F5CB
:102D600061EA71E0CE0101960E94B8076AE174E061
:102D7000CE0101960E948E17BC018BED92E00E945D
:102D80009D08CE0101960E94F0170E94DB0C64EAB8
:102D900071E0CE0101960E94B8076AE174E0CE01AD
:102DA00001960E948E17BC018BED92E00E949D0857
:102DB000CE0101960E94F0176CE771E08AE194E081
:102DC0000E94C21726960FB6F894DEBF0FBECDBF85
:102DD000DF91CF911F9108950E942F29FC0124813A
:102DE0003581232B31F421E061157105A1F0FB0140
:102DF00008C0FC01808191816115710531F421E0E9
:102E0000FC018081882339F005C00E943D2921E022
:102E1000892B09F020E0822F08950F931F93CF9301
:102E2000DF93EC0188819981009729F02A813B8109
:102E30002617370788F48B016F5F7F4F0E94692840
:102E4000009761F0998388831B830A832C813D81DD
:102E5000232B11F4FC01108281E001C080E0DF919E
:102E6000CF911F910F910895EF92FF920F931F93AF
:102E7000CF93DF936115710511F480E01CC04115FB
:102E80005105C1F07B01EC018C819D818A01080F05
:102E9000191FB801CE010E940D17882371F32881F4
:102EA00039818C819D81B701820F931F0E94462931
:102EB0001D830C8381E0DF91CF911F910F91FF90D3
:102EC000EF900895CF93DF9300D0CDB7DEB769833D
:102ED0001A8241E050E0BE016F5F7F4F0E943417BD
:102EE0000F900F90DF91CF910895FB0144815581A0
:102EF000608171810C943417CF93DF93EC0188814A
:102F00009981009711F00E94E027198218821D8292
:102F10001C821B821A82DF91CF910895CF93DF9399
:102F2000EC01FB0144815581608171810E9434175D
:102F3000811103C0CE010E947C17CE01DF91CF9199
:102F40000895EF92FF920F931F93CF93DF93EC01BD
:102F50007B018A01BA010E940D17811104C0CE01C4
:102F60000E947C1707C01D830C83B701888199815B
:102F70000E944629CE01DF91CF911F910F91FF90C2
:102F8000EF900895CF93DF93EC016115710559F02F
:102F9000FB0101900020E9F73197AF01461B570B69
:102FA0000E94A11702C00E947C17CE01DF91CF9131
:102FB0000895CF93DF93EC01FB018617970761F02B
:102FC000608171816115710529F0448155810E94EC
:102FD000A11702C00E947C17CE01DF91CF91089506
:102FE000FC01808191810C94E027833081F028F4EA
:102FF000813099F08230A1F008958730A9F08830AF
:10300000B9F08430D1F4809180008F7D03C080912D
:1030100080008F7780938000089584B58F7702C0F9
:1030200084B58F7D84BD08958091B0008F7703C0F3
:103030008091B0008F7D8093B0000895EF92FF9251
:103040000F931F93CF93DF938C01EB017A018C8157
:103050008093960380919603803140F4B701CE01AE
:103060000E947517809196038F5FF2CFF80111824D
:103070001082138212821582148288819981918331
:1030800080838A819B81938382838C819D819583B8
:103090008483198218821B821A821D821C82C801B5
:1030A000DF91CF911F910F91FF90EF900895CF93F3
:1030B000DF93CDB7DEB728970FB6F894DEBF0FBE0B
:1030C000CDBF98E0EBE0F1E0DE01119601900D92AA
:1030D0009A95E1F790919203961710F46FEF690FAC
:1030E000FE013196E60FF11DE60FF11D6081680FBC
:1030F000606840E08AE893E028960FB6F894DEBF57
:103100000FBECDBFDF91CF910C941D16009769F0D3
:10311000FC0101900020E9F73197AF01481B590BE2
:10312000BC018AE893E00C94F90580E090E00895F2
:103130008F929F92AF92BF920F931F93CF93DF9383
:10314000CDB7DEB7A1970FB6F894DEBF0FBECDBFE7
:1031500019A2423008F44AE08E010F5D1F4F842E01
:10316000912CA12CB12CA50194010E94ED26E62FF3
:10317000B901CA0101501109EA3014F4E05D01C03F
:10318000E95CD801EC93232B242B252B61F7C80194
:103190000E948618A1960FB6F894DEBF0FBECDBF71
:1031A000DF91CF911F910F91BF90AF909F908F9023
:1031B00008958230F8F4E82FF0E0EE0FFF1FE050A2
:1031C000FF4F2FE734E131832083813041F080913C
:1031D00069008C7F682B60936900E89A089580915C
:1031E0006900837F660F771F660F771F682B6093D8
:1031F0006900E99A0895CF93DF93282F30E0F90111
:10320000E550FF4F8491F901E85CFE4FD491F9013C
:10321000EC5DFE4FC491CC2391F081110E94F51713
:10322000EC2FF0E0EE0FFF1FE05FFE4FA591B49191
:10323000EC91ED2381E090E021F480E002C080E099
:1032400090E0DF91CF9108951F93CF93DF93282FC4
:1032500030E0F901E550FF4F8491F901E85CFE4F41
:10326000D491F901EC5DFE4FC491CC23C1F0162F2F
:1032700081110E94F517EC2FF0E0EE0FFF1FE65EC4
:10328000FE4FA591B4919FB7F894111104C08C9191
:10329000D095D82302C0EC91DE2BDC939FBFDF9149
:1032A000CF911F910895CF93DF9390E0FC01E85CEC
:1032B000FE4F2491FC01EC5DFE4F8491882361F167
:1032C00090E0880F991FFC01EF50FF4FC591D491FA
:1032D000FC01E65EFE4FA591B491611109C09FB754
:1032E000F8948881209582238883EC912E230BC04B
:1032F000623061F49FB7F8948881322F3095832330
:103300008883EC912E2B2C939FBF06C08FB7F89427
:10331000E8812E2B28838FBFDF91CF9108952F92C4
:103320003F924F925F926F927F928F929F92AF9255
:10333000BF92CF92DF92EF92FF920F931F93CF93A2
:10334000DF9300D000D01F92CDB7DEB72090690484
:1033500030906A04C101A0E0B0E089839A83AB8316
:10336000BC83009167041091680480916604909179
:103370000401891721F09F3F09F033C205C0EFE037
:10338000F1E094919D837CC080930401EFE0F1E033
:10339000A491AD83AF3F09F424C2A13009F449C020
:1033A00058F1A23009F06CC01092B0001092B10038
:1033B0009091B00092609093B0009091B1009160B4
:1033C0009093B100282F30E0F901EC5DFE4FE491BD
:1033D000F0E0EE0FFF1FE65EFE4F459154915093D3
:1033E000C7024093C602F901E85CFE4FE491E09306
:1033F000C50222E02D83F1C114BC15BC94B59260C6
:1034000094BD95B5916095BD282F30E0F901EC5D34
:10341000FE4FE491F0E0EE0FFF1FE65EFE4F459198
:103420005491F901E85CFE4FE491E093D2021D82D1
:10343000D4C1109280001092810090918100986018
:103440009093810090918100916090938100282F4A
:1034500030E0F901EC5DFE4FE491F0E0EE0FFF1F6C
:10346000E65EFE4F45915491F901E85CFE4FE49110
:10347000E093D10261E00E945319B1E0BD83B4C072
:103480009D8197FDAEC161E00E9453198D818D7FB2
:1034900009F0AAC04801A12CB12C60E072E18AE7D2
:1034A00090E0A50194010E940F2729013A016901CA
:1034B0007A01A1E0CA1AD108E108F108BFEFCB16E2
:1034C000D104E104F10409F008F44DC060E472E4B1
:1034D0008FE090E0A50194010E940F2769017A0115
:1034E00081E0C81AD108E108F1089D81923001F508
:1034F000AFEFCA16D104E104F10409F008F405C1E4
:1035000060E970ED83E090E0A50194010E940F272F
:1035100069017A01B1E0CB1AD108E108F1082FEF77
:10352000C216D104E104F10409F040F583E055C06E
:103530008FEFC816D104E104F104B9F0B0F068E4EB
:1035400078EE81E090E0A50194010E940F276901C7
:103550007A0191E0C91AD108E108F108AD81AA23E6
:1035600009F4D5C031C181E001C082E09D81911193
:1035700034C095B5987F892B85BD75C068E478EE19
:1035800081E090E0A50194010E940F2769017A0172
:10359000A1E0CA1AD108E108F108BFEFCB16D104A7
:1035A000E104F10409F008F4AEC064E274EF80E0D5
:1035B00090E0A50194010E940F2769017A01B1E012
:1035C000CB1AD108E108F1082FEFC216D104E104AB
:1035D000F10411F008F0CEC085E09091B100987F21
:1035E000892B8093B1003FC04801A12CB12C60E031
:1035F00072E18AE790E0A50194010E940F2769011A
:103600007A01A1E0CA1AD108E108F108C114D10475
:10361000B1E0EB06F10488F068E478EE81E090E038
:10362000A50194010E940F2769017A0181E0C81A5F
:10363000D108E108F10883E001C081E09D8191306B
:1036400091F490918100987F892B809381008981EA
:103650009A81AB81BC81892B8A2B8B2B61F42FEF54
:103660003FEFA9012EC089819A81AB81BC81892B52
:103670008A2B8B2B69F0D801AA0FBB1F91010E94E6
:10368000A22528EE33E040E050E00E94ED2603C082
:103690002FEF3FEFA9019D81913099F0923019F100
:1036A00091119FC0C7BC2093D7023093D80240939A
:1036B000D9025093DA0280916E00826080936E008E
:1036C00090C0D0928900C09288002093D30230939A
:1036D000D4024093D5025093D60280916F0082604D
:1036E00080936F007EC0C092B3002093C8023093D5
:1036F000C9024093CA025093CB028091700082604D
:10370000809370006EC084E068CF82E066CFBFEF28
:10371000CB16D104E104F10459F150F162E17AE7EA
:1037200080E090E0A50194010E940F2769017A01D1
:1037300091E0C91AD108E108F108AFEFCA16D10427
:10374000E104F10499F090F0D301C2013AE0B5959B
:10375000A795979587953A95D1F76C017D0121E062
:10376000C21AD108E108F10885E003CF84E001CF57
:1037700083E0FFCE62E17AE780E090E0A50194016A
:103780000E940F2769017A0181E0C81AD108E10877
:10379000F1088FEFC816D104E104F10499F090F01C
:1037A000D301C2012AE0B595A795979587952A95EB
:1037B000D1F76C017D0121E0C21AD108E108F108BE
:1037C00087E00BCF86E009CF9FEFC916D104E10453
:1037D000F10409F078F684E0C9CE61E00E94531943
:1037E00059CE0F900F900F900F900F90DF91CF91C7
:1037F0001F910F91FF90EF90DF90CF90BF90AF900F
:103800009F908F907F906F905F904F903F902F9000
:1038100008953FB7F8948091CD029091CE02A09187
:10382000CF02B091D00226B5A89B05C02F3F19F05A
:103830000196A11DB11D3FBFBA2FA92F982F882730
:10384000820F911DA11DB11DBC01CD0142E0660F8B
:10385000771F881F991F4A95D1F708958F929F92DD
:10386000AF92BF92CF92DF92EF92FF926B017C01F9
:103870000E94091C4B015C01C114D104E104F10454
:10388000F1F00E94091CDC01CB0188199909AA09F1
:10389000BB09883E9340A105B10570F321E0C21A2F
:1038A000D108E108F10888EE880E83E0981EA11C7B
:1038B000B11CC114D104E104F10419F7DDCFFF906C
:1038C000EF90DF90CF90BF90AF909F908F90089532
:1038D0001F920F920FB60F9211242F933F938F9345
:1038E0009F93AF93BF938091C1029091C202A09128
:1038F000C302B091C4023091CC0223E0230F2D37D4
:1039000020F40196A11DB11D05C026E8230F0296E3
:10391000A11DB11D2093CC028093C1029093C202DD
:10392000A093C302B093C4028091CD029091CE02C5
:10393000A091CF02B091D0020196A11DB11D80933C
:10394000CD029093CE02A093CF02B093D002BF914C
:10395000AF919F918F913F912F910F900FBE0F903C
:103960001F9018958F929F92AF92BF92CF92DF9245
:10397000EF92FF920F931F93CF93DF938C016A0115
:103980007B01C7E9D3E084E1FE0111928A95E9F752
:103990008CE3882E912CA12CB12CCB01BA01A5016E
:1039A00094010E94ED267F936F93CA01B901A5018E
:1039B00094010E94ED267F936F93C701B60120E129
:1039C0003EE040E050E00E94ED261F922F9387EAF0
:1039D00091E09F938F93DF93CF930E946729BE015D
:1039E000C8010E94B807EDB7FEB73A960FB6F89433
:1039F000FEBF0FBEEDBFC801DF91CF911F910F91A8
:103A0000FF90EF90DF90CF90BF90AF909F908F90FE
:103A10000895CF92DF92EF92FF92CF93DF9300D081
:103A200000D0CDB7DEB76C01BE016F5F7F4F84E47D
:103A300090E00E94AF09E12CF12C89819A81AB8141
:103A4000BC818C0D9D1DAE1DBF1D89839A83AB83E8
:103A5000BC83BE016F5F7F4F84E490E00E94D50974
:103A6000BE016F5F7F4F88E590E00E94AF098981BA
:103A70009A81AB81BC81C80ED91EEA1EFB1EC98289
:103A8000DA82EB82FC82BE016F5F7F4F88E590E0B7
:103A90000E94D5090F900F900F900F90DF91CF915A
:103AA000FF90EF90DF90CF900895009769F0FC01B0
:103AB00001900020E9F73197AF01481B590BBC0179
:103AC0008AE194E00C94341780E008950F931F93DB
:103AD000CF93DF93CDB7DEB7A1970FB6F894DEBFD3
:103AE0000FBECDBF8C01CB01BA01F801118210824B
:103AF00013821282158214822AE0AE014F5F5F4F5B
:103B00000E94F423BE016F5F7F4FC8010E94C2175D
:103B1000A1960FB6F894DEBF0FBECDBFDF91CF9157
:103B20001F910F910895CF93DF9320911E04309140
:103B30001F046217730790F49B01FC01C0911A04E3
:103B4000D0911B0460817181CE01820F931F0E946E
:103B50004D29009719F08C1B9D0B02C08FEF9FEF32
:103B6000DF91CF910895CF92DF92EF92FF920F9362
:103B70001F93CF93DF936C018B017A014617570790
:103B800020F4812F8A01E62EF82E6CE771E0C60141
:103B90000E94B807C0911E04D0911F040C171D0786
:103BA000E0F4EC16FD0608F4E701E0911A04F09148
:103BB0001B04EC0FFD1FF080108260911A047091BD
:103BC0001B04600F711FC6010E94C21780911A0466
:103BD00090911B04C80FD91FF882C601DF91CF91C5
:103BE0001F910F91FF90EF90DF90CF900895CF92AB
:103BF000DF92EF92FF920F931F93CF93DF9300D04A
:103C000000D000D0CDB7DEB78C016CE771E0CE01FB
:103C100001960E94B80710923A0480913A0490E00D
:103C2000F801248135818217930730F54081518155
:103C30004115510529F0FA01E80FF91F208101C053
:103C400020E0022E000C330B205331092A303105BD
:103C500068F44115510529F0FA01E80FF91F608158
:103C600001C060E0CE0101960E94621780913A0483
:103C70008F5F80933A04D1CF89819A81009729F090
:103C80000E94B1236B017C0103C0C12CD12C7601B1
:103C9000CE0101960E94F017C701B60126960FB615
:103CA000F894DEBF0FBECDBFDF91CF911F910F9172
:103CB000FF90EF90DF90CF900895FC01862F158242
:103CC0001682178210861186128613861486158630
:103CD000168617864CED55E060E070E0408B518B06
:103CE000628B738B848362E00C945319FC01862FE2
:103CF0001082118212821382148215821682178218
:103D0000108611861286138615861686648761E0F2
:103D10000C945319CF93DF9384E893E00E94F0173B
:103D2000CBEFD3E083E591E0998388838AE194E047
:103D30000E94F01783E591E099838883CE01DF919B
:103D4000CF910C949909CF93DF93CDB7DEB7289725
:103D50000FB6F894DEBF0FBECDBF789484B58260F5
:103D600084BD84B5816084BD85B5826085BD85B51F
:103D7000816085BD80916E00816080936E0010929D
:103D80008100809181008260809381008091810018
:103D900081608093810080918000816080938000A9
:103DA0008091B10084608093B1008091B000816007
:103DB0008093B00080917A00846080937A00809133
:103DC0007A00826080937A0080917A00816080938B
:103DD0007A0080917A00806880937A001092C10006
:103DE000BE016F5F7F4F80E090E00E94AF09898144
:103DF0009A81AB81BC8181159440A105B10531F157
:103E00004BE355E164E371E08FE494E00E94980A8B
:103E10008AE090E0A0E0B0E089839A83AB83BC8322
:103E2000BE016F5F7F4F84E090E00E94D50980E083
:103E300094E0A0E0B0E08D839E83AF83B887BE019D
:103E40006B5F7F4F80E090E00E94D5090E948F1940
:103E5000E091EB02F091EC0282E08083E091E702D6
:103E6000F091E8021082E091E902F091EA028FEC11
:103E700080831092F302E091EF02F091F00286E06D
:103E80008083E091ED02F091EE0280818061808379
:103E9000E091ED02F091EE02808188608083E091F4
:103EA000ED02F091EE02808180688083E091ED0266
:103EB000F091EE0280818F7D80838AE396E190937A
:103EC0002704809326041092160410921504109271
:103ED00014041092130410921204109211048DE92C
:103EE00091E0909318048093170490910704963101
:103EF00008F058C02DEB30E03093120420931104E9
:103F00002BE931E030931404209313042CE231E0C8
:103F1000309316042093150440916800983058F0AF
:103F200031E09E3008F430E021E0822F01C0880F9C
:103F30003A95EAF701C084E0842B809368009830BA
:103F400038F09E3040F0963148F020E030E008C074
:103F50002DE630E005C02BE630E002C02CE630E074
:103F600030930F0420930E04983030F481E001C0A8
:103F7000880F9A95EAF70EC0292F30E09E3018F48A
:103F80002850310902C02E50310981E001C0880F4C
:103F90002A95EAF7809310048091170490911804F1
:103FA0000197F1F78091150490911604892B21F166
:103FB0008091B3029091B40223E08B3F9207E1F02D
:103FC000009711F00E949909809119048E7F8093C7
:103FD00019041092B2021092B1028BEF93E0909309
:103FE000B4028093B302E0910E04F0910F0490812B
:103FF00080911004892B80831092BF021092BE0220
:104000001092BD021092BC021092BB0281E080931C
:10401000BA021092B90261E082E10E94241961E0C3
:1040200083E10E9424198091B9008E7F8093B900AA
:104030008091B9008D7F8093B90088E48093B800A7
:1040400085E48093BC008DEA97E09093B80280935A
:10405000B7028EEA97E09093B6028093B502109271
:104060008F0380919403823018F098E090938F032F
:104070008093920362E370E080E090E00E942E1C47
:10408000609195038AE893E00E94A01568EE73E0C2
:1040900080E090E00E942E1C60E38AE893E00E949A
:1040A00004160BE416E4C8010197F1F760E38AE80F
:1040B00093E00E940416C8010197F1F760E38AE8D3
:1040C00093E00E94041683E592E00197F1F760E225
:1040D0008AE893E00E94041660918F03606240E0DA
:1040E0008AE893E00E941D1684E08093900340E0EC
:1040F0006CE08AE893E00E941D1640E061E08AE8E7
:1041000093E00E941D160BE31FE1C8010197F1F730
:1041100082E08093910340E066E08AE893E00E94A9
:104120001D1640E062E08AE893E00E941D16C80177
:104130000197F1F788E08093950360E08AE893E0C7
:104140000E94A0158091640490916304882361F01B
:10415000923021F0933021F08FEF03C080E001C056
:1041600081E063E070E009C0923029F0933011F0F3
:104170008FEF01C081E062E070E00E94D9188BE609
:1041800094E0909321048093200488EE93E0A0E0D3
:10419000B0E08093D9049093DA04A093DB04B09349
:1041A000DC048FEF8093D30426EF35E03093DE04F8
:1041B0002093DD0449E150E060E070E04093CB04DF
:1041C0005093CC046093CD047093CE048093C504C7
:1041D00020EA34E13093D0042093CF0440E157E249
:1041E00060E070E04093BD045093BE046093BF0450
:1041F0007093C0048093B70429ED30E03093C2047B
:104200002093C10440E65AEE60E070E04093AF04B2
:104210005093B0046093B1047093B2048093A904E6
:1042200085ED90E09093B4048093B30481E0809393
:10423000D2048093C4048093B6048093A80480E0E1
:1042400094E141E153E12DED32E1989FF001112419
:10425000E555FC4F51834083338322838F5F843045
:10426000A1F78093C0029FE088E10FB6F894A8956B
:10427000809360000FBE9093600081ED94E00E94F7
:104280004B0B83EC94E00E944B0B85EB94E00E9477
:104290004B0B87EA94E00E944B0B8BEF93E00E945C
:1042A0006A07892BE9F08BEF93E00E946A07892B5C
:1042B000B9F08BEF93E00E948207182F682F8AE1F4
:1042C00094E00E9462171A3059F4E0912604F091AC
:1042D000270409956CE771E08AE194E00E94C21717
:1042E000A8950E94FB06C9CFCF92DF92EF92FF9272
:1042F0001F93CF93DF93CDB7DEB765970FB6F894D2
:10430000DEBF0FBECDBF1092DE021092DD0298EE2E
:10431000C92E93E0D92EE12CF12CC092DF02D0926D
:10432000E002E092E102F092E20287E191E09093F4
:10433000DC028093DB0285EC90E09093E8028093AE
:10434000E70284EC90E09093EA028093E90280EC2B
:1043500090E09093EC028093EB0281EC90E09093DC
:10436000EE028093ED0282EC90E09093F002809355
:10437000EF0286EC90E09093F2028093F1021092AB
:10438000F4021092F5021092F6021092F7021092C7
:104390007B0310927A03C0927C03D0927D03E0925B
:1043A0007E03F0927F0389E291E0909379038093FA
:1043B00078031092D2041092D3041092D404109275
:1043C000D5041092D6041092D7041092D8041092FB
:1043D000D9041092DA041092DB041092DC041092DB
:1043E000DE041092DD0411E01093D1041092C40495
:1043F0001092C5041092C6041092C7041092C8040B
:104400001092C9041092CA041092CB041092CC04EA
:104410001092CD041092CE041092D0041092CF04CA
:104420001093C3041092B6041092B7041092B8040B
:104430001092B9041092BA041092BB041092BC04FA
:104440001092BD041092BE041092BF041092C004DA
:104450001092C2041092C1041093B5041092A804E3
:104460001092A9041092AA041092AB041092AC040A
:104470001092AD041092AE041092AF041092B004EA
:104480001092B1041092B2041092B4041092B304CA
:104490001093A7046EE08BE694E00E94761E6FE016
:1044A0008AE794E00E94761E60E189E894E00E9429
:1044B000761E61E188E994E00E94761E8DE080938B
:1044C000660483E597E0909368048093670482E331
:1044D00090E090936A048093690461E08DE00E940B
:1044E00053191092610410926004109264041092A7
:1044F000650482E0809363041093620462E00E948A
:10450000531980E492EEA1E0B0E080934F049093C1
:104510005004A0935104B093520488E790E0A0E0C7
:10452000B0E08093530490935404A0935504B09347
:10453000560480E197E2A0E0B0E0809357049093A6
:104540005804A0935904B0935A0410925B0410923B
:104550005C0410925D0410925E041092FE031092AF
:10456000FD03C092FF03D0920004E0920104F09298
:10457000020483E591E09093FC038093FB03109287
:104580001204109211041092140410921304109249
:1045900016041092150410921804109217046091DA
:1045A00019046E7F6D7F60931904669561706127B1
:1045B00088E00E94241961E088E00E945319E0E439
:1045C000F1E0E491E0930B04ECE2F1E0E491F0E03F
:1045D000EE0FFF1FE65EFE4F8591949190930D04C0
:1045E00080930C0460E089E00E94531980911904C3
:1045F00081FD04C061E089E00E94241989E0809374
:104600000704E1E4F1E0E491E0930804EDE2F1E075
:10461000E491F0E0EE0FFF1FE05FFE4F8591949173
:1046200090930A048093090483E591E09093FC033E
:104630008093FB036CE771E08AE194E00E94B80785
:104640001092280480E492EEA1E0B0E08093290467
:1046500090932A04A0932B04B0932C0488E790E055
:10466000A0E0B0E080932D0490932E04A0932F043B
:10467000B093300480E197E2A0E0B0E08093310491
:1046800090933204A0933304B09334041092350411
:1046900010923604109237041092380415E1FE018E
:1046A0003196DF01812F1D928A95E9F7AAE3B4E0E4
:1046B000812F01900D928A95E1F760E870E08AE120
:1046C00094E00E940D1780ED97E0A0E0B0E08093A9
:1046D000220490932304A0932404B093250464E05F
:1046E0008BEA93E00E945D1E65E08FEB93E00E94F1
:1046F0005D1E66E083ED93E00E945D1E67E087EE3D
:1047000093E00E945D1EE6E9F3E0DF011D921A9539
:10471000E9F710928D0310928C038BE391E0909354
:104720008B0380938A0387E280938E0389E18093D1
:10473000930384E0809394031092950366EB71E0F9
:1047400084E893E065960FB6F894DEBF0FBECDBF48
:10475000DF91CF911F91FF90EF90DF90CF900C945D
:10476000B8071F93FC0199278827BC01E894119191
:104770001032E9F3193010F01E30C8F31B3251F03B
:104780001D3249F4689406C00E94DF23610F711D39
:10479000811D911D119110531A30B0F33EF4909584
:1047A0008095709561957F4F8F4F9F4F1F91089512
:1047B000FB01DC0105900D920020E1F70895592FCF
:1047C000482F372F262F660F771F881F991F660FD8
:1047D000771F881F991F620F731F841F951F660F15
:1047E000771F881F991F0895BB27FA01A62F62170C
:1047F000710581059105330B30FB66F0AA27660F22
:10480000771F881F991FAA1FA21710F0A21B63957C
:104810003850A9F7A05DAA3308F0A95DA19336F737
:10482000B111B1931082CA010C941624DC01FC0171
:10483000672F71917723E1F7329704C07C916D93D4
:1048400070836291AE17BF07C8F308950E94682471
:1048500008F481E00895E89409C097FB3EF4909530
:104860008095709561957F4F8F4F9F4F9923A9F049
:10487000F92F96E9BB279395F695879577956795D8
:10488000B795F111F8CFFAF4BB0F11F460FF1BC01C
:104890006F5F7F4F8F4F9F4F16C0882311F096E9AF
:1048A00011C0772321F09EE8872F762F05C066235D
:1048B00071F096E8862F70E060E02AF09A95660F16
:1048C000771F881FDAF7880F9695879597F90895CF
:1048D000990F0008550FAA0BE0E8FEEF1616170611
:1048E000E807F907C0F012161306E407F50798F079
:1048F000621B730B840B950B39F40A2661F0232B92
:10490000242B252B21F408950A2609F4A140A6950D
:104910008FEF811D811D08950E949F240C94102506
:104920000E94022538F00E94092520F0952311F0FD
:104930000C94F9240C94FF2411240C9444250E9417
:10494000212570F3959FC1F3950F50E0551F629F8D
:10495000F001729FBB27F00DB11D639FAA27F00DD8
:10496000B11DAA1F649F6627B00DA11D661F829FFF
:104970002227B00DA11D621F739FB00DA11D621FE4
:10498000839FA00D611D221F749F3327A00D611D01
:10499000231F849F600D211D822F762F6A2F1124E3
:1049A0009F5750409AF0F1F088234AF0EE0FFF1F16
:1049B000BB1F661F771F881F91505040A9F79E3F6D
:1049C000510580F00C94F9240C9444255F3FE4F3E6
:1049D000983ED4F3869577956795B795F795E795C3
:1049E0009F5FC1F7FE2B880F911D9695879597F9CC
:1049F000089597F99F6780E870E060E008959FEF61
:104A000080EC089500240A94161617061806090665
:104A1000089500240A941216130614060506089534
:104A2000092E0394000C11F4882352F0BB0F40F4BC
:104A3000BF2B11F460FF04C06F5F7F4F8F4F9F4FFC
:104A4000089557FD9058440F551F59F05F3F71F07E
:104A50004795880F97FB991F61F09F3F79F08795E5
:104A60000895121613061406551FF2CF4695F1DF6E
:104A700008C0161617061806991FF1CF86957105FE
:104A8000610508940895E894BB2766277727CB0132
:104A900097F90895F999FECF92BD81BDF89A9927AB
:104AA00080B50895262FF999FECF1FBA92BD81BD1A
:104AB00020BD0FB6F894FA9AF99A0FBE01960895A0
:104AC0000E94A225A59F900DB49F900DA49F800DDC
:104AD000911D112408952F923F924F925F926F92F1
:104AE0007F928F929F92AF92BF92CF92DF92EF927E
:104AF000FF920F931F93CF93DF93CDB7DEB7CA1BFF
:104B0000DB0B0FB6F894DEBF0FBECDBF09942A8829
:104B1000398848885F846E847D848C849B84AA84D1
:104B2000B984C884DF80EE80FD800C811B81AA815E
:104B3000B981CE0FD11D0FB6F894DEBF0FBECDBF29
:104B4000ED010895A29FB001B39FC001A39F700D16
:104B5000811D1124911DB29F700D811D1124911D85
:104B600008955058BB27AA270E94C9250C941025E8
:104B70000E94022538F00E94092520F039F49F3F59
:104B800019F426F40C94FF240EF4E095E7FB0C9442
:104B9000F924E92F0E94212558F3BA1762077307F9
:104BA0008407950720F079F4A6F50C9443250EF4BC
:104BB000E0950B2EBA2FA02D0B01B90190010C012D
:104BC000CA01A0011124FF27591B99F0593F50F445
:104BD000503E68F11A16F040A22F232F342F44279D
:104BE000585FF3CF469537952795A795F040539595
:104BF000C9F77EF41F16BA0B620B730B840BBAF065
:104C00009150A1F0FF0FBB1F661F771F881FC2F7CF
:104C10000EC0BA0F621F731F841F48F487957795E3
:104C20006795B795F7959E3F08F0B0CF9395880F9D
:104C300008F09927EE0F9795879508950E943226E0
:104C40000C9410250E94092558F00E94022540F07E
:104C500029F45F3F29F00C94F92451110C94442558
:104C60000C94FF240E94212568F39923B1F3552366
:104C700091F3951B550BBB27AA276217730784076F
:104C800038F09F5F5F4F220F331F441FAA1FA9F305
:104C900035D00E2E3AF0E0E832D091505040E695F3
:104CA000001CCAF72BD0FE2F29D0660F771F881F54
:104CB000BB1F261737074807AB07B0E809F0BB0B47
:104CC000802DBF01FF2793585F4F3AF09E3F51055B
:104CD00078F00C94F9240C9444255F3FE4F3983E5B
:104CE000D4F3869577956795B795F7959F5FC9F744
:104CF000880F911D9695879597F90895E1E0660FC5
:104D0000771F881FBB1F621773078407BA0720F03D
:104D1000621B730B840BBA0BEE1F88F7E0950895A6
:104D20000E94292588F09F5798F0B92F9927B751ED
:104D3000B0F0E1F0660F771F881F991F1AF0BA953F
:104D4000C9F714C0B13091F00E944325B1E0089535
:104D50000C944325672F782F8827B85F39F0B93F27
:104D6000CCF3869577956795B395D9F73EF49095F2
:104D70008095709561957F4F8F4F9F4F08950E944A
:104D8000682408F48FEF08950E946824880B990B1B
:104D90000895DB018F939F930E946025BF91AF918F
:104DA000A29F800D911DA39F900DB29F900D112485
:104DB000089597FB072E16F4009407D077FD09D0CD
:104DC0000E942E2707FC05D03EF4909581959F4FB9
:104DD0000895709561957F4F0895A1E21A2EAA1B40
:104DE000BB1BFD010DC0AA1FBB1FEE1FFF1FA2179B
:104DF000B307E407F50720F0A21BB30BE40BF50B98
:104E0000661F771F881F991F1A9469F76095709520
:104E1000809590959B01AC01BD01CF010895052EB1
:104E200097FB1EF400940E94262757FD07D00E948E
:104E3000ED2607FC03D04EF40C94262750954095A0
:104E4000309521953F4F4F4F5F4F08959095809536
:104E5000709561957F4F8F4F9F4F0895AA1BBB1B85
:104E600051E107C0AA1FBB1FA617B70710F0A61B6A
:104E7000B70B881F991F5A95A9F780959095BC018B
:104E8000CD010895EE0FFF1F0590F491E02D0994D8
:104E90000F931F93CF93DF938230910510F482E03C
:104EA00090E0E091E104F091E20420E030E0A0E045
:104EB000B0E0309719F14081518102811381481788
:104EC0005907C8F08417950769F4109731F01296C6
:104ED0000C93129713961C9327C00093E104109330
:104EE000E20422C02115310519F04217530718F4C6
:104EF0009A01BD01EF01DF01F801DBCF211531057A
:104F0000F9F0281B390B2430310580F48A819B810C
:104F10006115710521F0FB019383828304C0909396
:104F2000E2048093E104FE01329644C0FE01E20FE8
:104F3000F31F8193919322503109398328833AC01A
:104F40002091DF043091E004232B41F420910701EC
:104F5000309108013093E0042093DF042091050193
:104F6000309106012115310541F42DB73EB740912E
:104F7000090150910A01241B350BE091DF04F091E7
:104F8000E004E217F307A0F42E1B3F0B28173907A4
:104F900078F0AC014E5F5F4F2417350748F04E0F95
:104FA0005F1F5093E0044093DF048193919302C00C
:104FB000E0E0F0E0CF01DF91CF911F910F910895D4
:104FC000CF93DF93009709F481C0FC0132971382DD
:104FD0001282A091E104B091E204109781F4208143
:104FE0003181820F931F2091DF043091E004281754
:104FF000390751F5F093E004E093DF0467C0ED0159
:1050000020E030E0CE17DF0740F44A815B819E014B
:1050100041155105F1F0EA01F5CFD383C2834081F8
:105020005181840F951FC817D90759F48881998138
:10503000840F951F0296918380838A819B8193833D
:1050400082832115310529F4F093E204E093E10411
:105050003DC0E901FB83EA8349915991C40FD51FF3
:10506000EC17FD0761F480819181840F951F0296F2
:10507000E90199838883828193819B838A83E0E01D
:10508000F0E012968D919C911397009719F0FD0115
:10509000DC01F7CF8D919C9111979D012E5F3F4FC1
:1050A000820F931F2091DF043091E0042817390705
:1050B00069F4309729F41092E2041092E10402C0DE
:1050C00013821282B093E004A093DF04DF91CF91AA
:1050D0000895A0E0B0E0EFE6F8E20C946F25EC0153
:1050E000009721F4CB010E944827B4C0FC01E60FD1
:1050F000F71F9C0122503109E217F30708F4A8C0FA
:10510000D9010D911C91119706171707B0F00530C2
:10511000110508F49BC0C80104978617970708F487
:1051200095C002501109061B170B019311936D9343
:105130007C93CF010E94E02789C05B01A01AB10ACD
:105140004C01800E911EA091E104B091E204612C0B
:10515000712CE12CF12C109709F446C08D919C9193
:105160001197A815B905B1F56C0142E0C40ED11C28
:10517000CA14DB0478F14C018A189B08640142E0F0
:10518000C40ED11C1296BC9012971396AC91B5E048
:10519000CB16D10440F0B282A38391828082D901E0
:1051A0006D937C9309C00E5F1F4F800F911FF90113
:1051B00091838083EB2DFA2FE114F10431F0D701B4
:1051C0001396FC93EE93129741C0F093E204E093A0
:1051D000E1043CC06816790608F43C017D01129692
:1051E0000D90BC91A02DB7CF8091DF049091E00489
:1051F00088169906E1F466167706C8F480910501D1
:1052000090910601009741F48DB79EB74091090136
:1052100050910A01841B950BE817F907C8F4F09325
:10522000E004E093DF04F901718360830FC0CB01D8
:105230000E9448277C01009759F0A801BE010E94F6
:105240003429CE010E94E027C70104C0CE0102C06C
:1052500080E090E0CDB7DEB7EEE00C948B2581E0E6
:1052600090E0F8940C941A2CFB01DC0102C0019030
:105270000D9241505040D8F70895FB01DC018D910B
:10528000019080190110D9F3990B0895FB01DC01FD
:1052900001900D920020E1F70895FB0151915523F3
:1052A000A9F0BF01DC014D9145174111E1F759F417
:1052B000CD010190002049F04D9140154111C9F3F5
:1052C000FB014111EFCF81E090E001970895AEE03E
:1052D000B0E0EDE6F9E20C9479250D891E8986E0AF
:1052E0008C831A8309838FEF9FE79E838D83AE01A2
:1052F000475E5F4F6F89788DCE0101960E948929A4
:10530000EF81F885E00FF11F10822E96E4E00C94F7
:105310009525ABE0B0E0EFE8F9E20C946B256C0169
:105320007B018A01FC0117821682838181FFCCC137
:10533000CE0101963C01F6019381F70193FD859121
:1053400093FF81917F01882309F4BAC1853239F432
:1053500093FD859193FF81917F01853229F4B601F8
:1053600090E00E94802BE7CF912C212C312CFFE183
:10537000F315D8F08B3279F038F4803279F083323B
:10538000A1F4232D20611DC08D3261F0803369F4BA
:10539000232D216016C0832D8260382EE32DE4601A
:1053A0003E2E2AC0F32DF8601DC037FC2DC020ED25
:1053B000280F2A3040F08E32B9F436FC81C1232DFB
:1053C0002064322E19C036FE06C08AE0989E200D59
:1053D0001124922E11C0EAE02E9E200D1124222EBF
:1053E000F32DF0623F2E08C08C3621F4832D8068A7
:1053F000382E02C0883641F4F70193FD859193FF62
:1054000081917F018111B3CF982F9F7D9554933067
:1054100028F40C5F1F4F9FE399830DC0833631F052
:10542000833771F0833509F059C021C0F8018081BC
:1054300089830E5F1F4F88248394912C530113C0DE
:105440002801F2E04F0E511CF801A080B18036FE19
:1054500003C0692D70E002C06FEF7FEFC5010E94AD
:10546000752B4C018201F32DFF773F2E16C02801CA
:1054700022E0420E511CF801A080B18036FE03C02C
:10548000692D70E002C06FEF7FEFC5010E946A2BAB
:105490004C01F32DF0683F2E820133FC1BC0822D9E
:1054A00090E088169906B0F4B60180E290E00E9480
:1054B000802B2A94F4CFF50137FC859137FE81913A
:1054C0005F01B60190E00E94802B21102A9421E018
:1054D000821A91088114910471F7E8C0843611F0A2
:1054E000893641F5F80137FE07C0608171818281FC
:1054F00093810C5F1F4F08C060817181072E000CE3
:10550000880B990B0E5F1F4FF32DFF763F2E97FFF1
:1055100009C090958095709561957F4F8F4F9F4FF3
:10552000F0683F2E2AE030E0A3010E94BC2B882EB9
:10553000861845C0853731F4232D2F7EB22E2AE000
:1055400030E025C0932D997FB92E8F36C1F018F425
:10555000883579F0B5C0803719F0883721F0B0C0B0
:10556000E92FE061BE2EB4FE0DC0FB2DF460BF2E0E
:1055700009C034FE0AC0292F2660B22E06C028E0DA
:1055800030E005C020E130E002C020E132E0F80167
:10559000B7FE07C060817181828193810C5F1F4FCC
:1055A00006C06081718180E090E00E5F1F4FA30113
:1055B0000E94BC2B882E8618FB2DFF773F2E36FECF
:1055C0000DC0232D2E7FA22E891458F434FE0BC05B
:1055D00032FC09C0832D8E7EA82E05C0B82CA32CCA
:1055E00003C0B82C01C0B92CA4FE0FC0FE01E80D09
:1055F000F11D8081803321F49A2D997EA92E09C056
:10560000A2FE06C0B394B39404C08A2D867809F034
:10561000B394A3FC11C0A0FE06C0B21488F4280CF9
:10562000922C9B180EC0B21460F4B60180E290E098
:105630000E94802BB394F7CFB21418F42B1802C039
:10564000982C212CA4FE10C0B60180E390E00E94AB
:10565000802BA2FE17C0A1FC03C088E790E002C027
:1056600088E590E0B6010CC08A2D867859F0A1FE3D
:1056700002C08BE201C080E2A7FC8DE2B60190E09F
:105680000E94802B891438F4B60180E390E00E94D8
:10569000802B9A94F7CF8A94F301E80DF11D808155
:1056A000B60190E00E94802B8110F5CF222009F4F2
:1056B00042CEB60180E290E00E94802B2A94F6CF81
:1056C000F6018681978102C08FEF9FEF2B96E2E172
:1056D0000C948725FC010590615070400110D8F7AB
:1056E000809590958E0F9F1F0895FC01615070402A
:1056F00001900110D8F7809590958E0F9F1F089507
:105700000F931F93CF93DF93FB01238121FD03C0F0
:105710008FEF9FEF2CC022FF16C046815781248156
:1057200035814217530744F4A081B1819D012F5F59
:105730003F4F318320838C93268137812F5F3F4FEA
:105740003783268314C08B01EC01FB010084F185B3
:10575000E02D0995892BE1F6D80116968D919C9143
:105760001797019617969C938E931697CE01DF910B
:10577000CF911F910F910895FA01AA27283051F176
:10578000203181F1E8946F936E7F6E5F7F4F8F4F72
:105790009F4FAF4FB1E03ED0B4E03CD0670F781FD1
:1057A000891F9A1FA11D680F791F8A1F911DA11DB6
:1057B0006A0F711D811D911DA11D20D009F46894EF
:1057C0003F912AE0269F11243019305D3193DEF697
:1057D000CF010895462F4770405D4193B3E00FD04D
:1057E000C9F7F6CF462F4F70405D4A3318F0495D38
:1057F00031FD4052419302D0A9F7EACFB4E0A6951B
:105800009795879577956795BA95C9F7009761053C
:10581000710508959B01AC010A2E06945795479592
:1058200037952795BA95C9F7620F731F841F951F87
:10583000A01D089510E0C7EAD0E004C0FE010E9458
:0E58400042272196C83AD107C9F7F894FFCF46
:10584E00F805F805FF0000E3048000000040001496
:10585E00005400000000008C06F9052306D90654FA
:10586E00063206460600000000AE128112D2001962
:10587E0007781264125512000000003416F905D292
:10588E0000801200000000EC16F905D20080120014
:10589E000000001A07F905D20019076A07820701EE
:1058AE00076E616E00696E66006F76660025642E67
:1058BE003030002C004F4B004652000A004741008A
:1058CE003031004D4400435400504E005241004DC3
:1058DE0049004C49005254004345005242003032B8
:1058EE00003C3C003E3E00253032643A25303264A6
:0858FE003A253032640020005D
:00000001FF
